{
  "abi": [
    {
      "inputs": [
        {
          "internalType": "string",
          "name": "_name",
          "type": "string"
        },
        {
          "internalType": "string",
          "name": "_symbol",
          "type": "string"
        },
        {
          "internalType": "address",
          "name": "_admin",
          "type": "address"
        }
      ],
      "stateMutability": "nonpayable",
      "type": "constructor"
    },
    {
      "anonymous": false,
      "inputs": [
        {
          "indexed": true,
          "internalType": "address",
          "name": "owner",
          "type": "address"
        },
        {
          "indexed": true,
          "internalType": "address",
          "name": "approved",
          "type": "address"
        },
        {
          "indexed": true,
          "internalType": "uint256",
          "name": "tokenId",
          "type": "uint256"
        }
      ],
      "name": "Approval",
      "type": "event"
    },
    {
      "anonymous": false,
      "inputs": [
        {
          "indexed": true,
          "internalType": "address",
          "name": "owner",
          "type": "address"
        },
        {
          "indexed": true,
          "internalType": "address",
          "name": "operator",
          "type": "address"
        },
        {
          "indexed": false,
          "internalType": "bool",
          "name": "approved",
          "type": "bool"
        }
      ],
      "name": "ApprovalForAll",
      "type": "event"
    },
    {
      "anonymous": false,
      "inputs": [
        {
          "indexed": false,
          "internalType": "address",
          "name": "revokedBy",
          "type": "address"
        },
        {
          "indexed": false,
          "internalType": "uint256[]",
          "name": "tokenIds",
          "type": "uint256[]"
        }
      ],
      "name": "BatchRevoked",
      "type": "event"
    },
    {
      "anonymous": false,
      "inputs": [
        {
          "indexed": true,
          "internalType": "address",
          "name": "mintedBy",
          "type": "address"
        },
        {
          "indexed": true,
          "internalType": "address",
          "name": "to",
          "type": "address"
        },
        {
          "indexed": false,
          "internalType": "uint256",
          "name": "tokenId",
          "type": "uint256"
        },
        {
          "indexed": false,
          "internalType": "uint16",
          "name": "tokenType",
          "type": "uint16"
        }
      ],
      "name": "Mint",
      "type": "event"
    },
    {
      "anonymous": false,
      "inputs": [
        {
          "indexed": false,
          "internalType": "address",
          "name": "revokedBy",
          "type": "address"
        },
        {
          "indexed": false,
          "internalType": "uint256",
          "name": "tokenId",
          "type": "uint256"
        }
      ],
      "name": "Revoked",
      "type": "event"
    },
    {
      "anonymous": false,
      "inputs": [
        {
          "indexed": true,
          "internalType": "bytes32",
          "name": "role",
          "type": "bytes32"
        },
        {
          "indexed": true,
          "internalType": "bytes32",
          "name": "previousAdminRole",
          "type": "bytes32"
        },
        {
          "indexed": true,
          "internalType": "bytes32",
          "name": "newAdminRole",
          "type": "bytes32"
        }
      ],
      "name": "RoleAdminChanged",
      "type": "event"
    },
    {
      "anonymous": false,
      "inputs": [
        {
          "indexed": true,
          "internalType": "bytes32",
          "name": "role",
          "type": "bytes32"
        },
        {
          "indexed": true,
          "internalType": "address",
          "name": "account",
          "type": "address"
        },
        {
          "indexed": true,
          "internalType": "address",
          "name": "sender",
          "type": "address"
        }
      ],
      "name": "RoleGranted",
      "type": "event"
    },
    {
      "anonymous": false,
      "inputs": [
        {
          "indexed": true,
          "internalType": "bytes32",
          "name": "role",
          "type": "bytes32"
        },
        {
          "indexed": true,
          "internalType": "address",
          "name": "account",
          "type": "address"
        },
        {
          "indexed": true,
          "internalType": "address",
          "name": "sender",
          "type": "address"
        }
      ],
      "name": "RoleRevoked",
      "type": "event"
    },
    {
      "anonymous": false,
      "inputs": [
        {
          "indexed": false,
          "internalType": "uint256",
          "name": "tokenId",
          "type": "uint256"
        },
        {
          "indexed": false,
          "internalType": "uint16",
          "name": "_tokenType",
          "type": "uint16"
        }
      ],
      "name": "TokenIdTypeUpdated",
      "type": "event"
    },
    {
      "anonymous": false,
      "inputs": [
        {
          "indexed": true,
          "internalType": "address",
          "name": "from",
          "type": "address"
        },
        {
          "indexed": true,
          "internalType": "address",
          "name": "to",
          "type": "address"
        },
        {
          "indexed": true,
          "internalType": "uint256",
          "name": "tokenId",
          "type": "uint256"
        }
      ],
      "name": "Transfer",
      "type": "event"
    },
    {
      "anonymous": false,
      "inputs": [
        {
          "indexed": false,
          "internalType": "uint16",
          "name": "tokenType",
          "type": "uint16"
        },
        {
          "indexed": true,
          "internalType": "address",
          "name": "createdBy",
          "type": "address"
        },
        {
          "indexed": false,
          "internalType": "string",
          "name": "uri",
          "type": "string"
        }
      ],
      "name": "TypeCreated",
      "type": "event"
    },
    {
      "anonymous": false,
      "inputs": [
        {
          "indexed": false,
          "internalType": "uint16",
          "name": "tokenType",
          "type": "uint16"
        },
        {
          "indexed": false,
          "internalType": "string",
          "name": "uri",
          "type": "string"
        }
      ],
      "name": "TypeUpdated",
      "type": "event"
    },
    {
      "inputs": [],
      "name": "DEFAULT_ADMIN_ROLE",
      "outputs": [
        {
          "internalType": "bytes32",
          "name": "",
          "type": "bytes32"
        }
      ],
      "stateMutability": "view",
      "type": "function"
    },
    {
      "inputs": [],
      "name": "DELEGATE_ROLE",
      "outputs": [
        {
          "internalType": "bytes32",
          "name": "",
          "type": "bytes32"
        }
      ],
      "stateMutability": "view",
      "type": "function"
    },
    {
      "inputs": [
        {
          "internalType": "address",
          "name": "to",
          "type": "address"
        },
        {
          "internalType": "uint256",
          "name": "tokenId",
          "type": "uint256"
        }
      ],
      "name": "approve",
      "outputs": [],
      "stateMutability": "nonpayable",
      "type": "function"
    },
    {
      "inputs": [
        {
          "internalType": "address",
          "name": "owner",
          "type": "address"
        }
      ],
      "name": "balanceOf",
      "outputs": [
        {
          "internalType": "uint256",
          "name": "",
          "type": "uint256"
        }
      ],
      "stateMutability": "view",
      "type": "function"
    },
    {
      "inputs": [
        {
          "internalType": "address[]",
          "name": "_to",
          "type": "address[]"
        },
        {
          "internalType": "uint16",
          "name": "_tokenType",
          "type": "uint16"
        }
      ],
      "name": "batchMint",
      "outputs": [],
      "stateMutability": "nonpayable",
      "type": "function"
    },
    {
      "inputs": [
        {
          "internalType": "uint256[]",
          "name": "_tokenIds",
          "type": "uint256[]"
        }
      ],
      "name": "batchRevoke",
      "outputs": [],
      "stateMutability": "nonpayable",
      "type": "function"
    },
    {
      "inputs": [
        {
          "internalType": "uint256",
          "name": "_tokenId",
          "type": "uint256"
        }
      ],
      "name": "burn",
      "outputs": [],
      "stateMutability": "nonpayable",
      "type": "function"
    },
    {
      "inputs": [],
      "name": "contractURI",
      "outputs": [
        {
          "internalType": "string",
          "name": "metadata",
          "type": "string"
        }
      ],
      "stateMutability": "view",
      "type": "function"
    },
    {
      "inputs": [
        {
          "internalType": "uint256",
          "name": "tokenId",
          "type": "uint256"
        }
      ],
      "name": "getApproved",
      "outputs": [
        {
          "internalType": "address",
          "name": "",
          "type": "address"
        }
      ],
      "stateMutability": "view",
      "type": "function"
    },
    {
      "inputs": [
        {
          "internalType": "bytes32",
          "name": "role",
          "type": "bytes32"
        }
      ],
      "name": "getRoleAdmin",
      "outputs": [
        {
          "internalType": "bytes32",
          "name": "",
          "type": "bytes32"
        }
      ],
      "stateMutability": "view",
      "type": "function"
    },
    {
      "inputs": [
        {
          "internalType": "bytes32",
          "name": "role",
          "type": "bytes32"
        },
        {
          "internalType": "uint256",
          "name": "index",
          "type": "uint256"
        }
      ],
      "name": "getRoleMember",
      "outputs": [
        {
          "internalType": "address",
          "name": "",
          "type": "address"
        }
      ],
      "stateMutability": "view",
      "type": "function"
    },
    {
      "inputs": [
        {
          "internalType": "bytes32",
          "name": "role",
          "type": "bytes32"
        }
      ],
      "name": "getRoleMemberCount",
      "outputs": [
        {
          "internalType": "uint256",
          "name": "",
          "type": "uint256"
        }
      ],
      "stateMutability": "view",
      "type": "function"
    },
    {
      "inputs": [
        {
          "internalType": "bytes32",
          "name": "role",
          "type": "bytes32"
        },
        {
          "internalType": "address",
          "name": "account",
          "type": "address"
        }
      ],
      "name": "grantRole",
      "outputs": [],
      "stateMutability": "nonpayable",
      "type": "function"
    },
    {
      "inputs": [
        {
          "internalType": "bytes32",
          "name": "role",
          "type": "bytes32"
        },
        {
          "internalType": "address",
          "name": "account",
          "type": "address"
        }
      ],
      "name": "hasRole",
      "outputs": [
        {
          "internalType": "bool",
          "name": "",
          "type": "bool"
        }
      ],
      "stateMutability": "view",
      "type": "function"
    },
    {
      "inputs": [
        {
          "internalType": "address",
          "name": "owner",
          "type": "address"
        },
        {
          "internalType": "address",
          "name": "operator",
          "type": "address"
        }
      ],
      "name": "isApprovedForAll",
      "outputs": [
        {
          "internalType": "bool",
          "name": "",
          "type": "bool"
        }
      ],
      "stateMutability": "view",
      "type": "function"
    },
    {
      "inputs": [
        {
          "internalType": "address",
          "name": "_to",
          "type": "address"
        },
        {
          "internalType": "uint16",
          "name": "_tokenType",
          "type": "uint16"
        }
      ],
      "name": "mint",
      "outputs": [],
      "stateMutability": "nonpayable",
      "type": "function"
    },
    {
      "inputs": [
        {
          "internalType": "string",
          "name": "typeURI_",
          "type": "string"
        }
      ],
      "name": "mintTokenType",
      "outputs": [],
      "stateMutability": "nonpayable",
      "type": "function"
    },
    {
      "inputs": [],
      "name": "name",
      "outputs": [
        {
          "internalType": "string",
          "name": "",
          "type": "string"
        }
      ],
      "stateMutability": "view",
      "type": "function"
    },
    {
      "inputs": [
        {
          "internalType": "uint256",
          "name": "tokenId",
          "type": "uint256"
        }
      ],
      "name": "ownerOf",
      "outputs": [
        {
          "internalType": "address",
          "name": "",
          "type": "address"
        }
      ],
      "stateMutability": "view",
      "type": "function"
    },
    {
      "inputs": [
        {
          "internalType": "bytes32",
          "name": "role",
          "type": "bytes32"
        },
        {
          "internalType": "address",
          "name": "account",
          "type": "address"
        }
      ],
      "name": "renounceRole",
      "outputs": [],
      "stateMutability": "nonpayable",
      "type": "function"
    },
    {
      "inputs": [
        {
          "internalType": "uint256",
          "name": "_tokenId",
          "type": "uint256"
        }
      ],
      "name": "revoke",
      "outputs": [],
      "stateMutability": "nonpayable",
      "type": "function"
    },
    {
      "inputs": [
        {
          "internalType": "bytes32",
          "name": "role",
          "type": "bytes32"
        },
        {
          "internalType": "address",
          "name": "account",
          "type": "address"
        }
      ],
      "name": "revokeRole",
      "outputs": [],
      "stateMutability": "nonpayable",
      "type": "function"
    },
    {
      "inputs": [
        {
          "internalType": "address",
          "name": "from",
          "type": "address"
        },
        {
          "internalType": "address",
          "name": "to",
          "type": "address"
        },
        {
          "internalType": "uint256",
          "name": "tokenId",
          "type": "uint256"
        }
      ],
      "name": "safeTransferFrom",
      "outputs": [],
      "stateMutability": "nonpayable",
      "type": "function"
    },
    {
      "inputs": [
        {
          "internalType": "address",
          "name": "from",
          "type": "address"
        },
        {
          "internalType": "address",
          "name": "to",
          "type": "address"
        },
        {
          "internalType": "uint256",
          "name": "tokenId",
          "type": "uint256"
        },
        {
          "internalType": "bytes",
          "name": "data",
          "type": "bytes"
        }
      ],
      "name": "safeTransferFrom",
      "outputs": [],
      "stateMutability": "nonpayable",
      "type": "function"
    },
    {
      "inputs": [
        {
          "internalType": "address",
          "name": "operator",
          "type": "address"
        },
        {
          "internalType": "bool",
          "name": "approved",
          "type": "bool"
        }
      ],
      "name": "setApprovalForAll",
      "outputs": [],
      "stateMutability": "nonpayable",
      "type": "function"
    },
    {
      "inputs": [
        {
          "internalType": "string",
          "name": "contractURI_",
          "type": "string"
        }
      ],
      "name": "setContractURI",
      "outputs": [],
      "stateMutability": "nonpayable",
      "type": "function"
    },
    {
      "inputs": [
        {
          "internalType": "bytes4",
          "name": "interfaceId",
          "type": "bytes4"
        }
      ],
      "name": "supportsInterface",
      "outputs": [
        {
          "internalType": "bool",
          "name": "",
          "type": "bool"
        }
      ],
      "stateMutability": "view",
      "type": "function"
    },
    {
      "inputs": [],
      "name": "symbol",
      "outputs": [
        {
          "internalType": "string",
          "name": "",
          "type": "string"
        }
      ],
      "stateMutability": "view",
      "type": "function"
    },
    {
      "inputs": [
        {
          "internalType": "uint256",
          "name": "",
          "type": "uint256"
        }
      ],
      "name": "tokenIdToType",
      "outputs": [
        {
          "internalType": "uint16",
          "name": "",
          "type": "uint16"
        }
      ],
      "stateMutability": "view",
      "type": "function"
    },
    {
      "inputs": [
        {
          "internalType": "uint256",
          "name": "",
          "type": "uint256"
        }
      ],
      "name": "tokenToMinter",
      "outputs": [
        {
          "internalType": "address",
          "name": "",
          "type": "address"
        }
      ],
      "stateMutability": "view",
      "type": "function"
    },
    {
      "inputs": [
        {
          "internalType": "uint256",
          "name": "_tokenId",
          "type": "uint256"
        }
      ],
      "name": "tokenURI",
      "outputs": [
        {
          "internalType": "string",
          "name": "_tokenURI",
          "type": "string"
        }
      ],
      "stateMutability": "view",
      "type": "function"
    },
    {
      "inputs": [],
      "name": "totalSupply",
      "outputs": [
        {
          "internalType": "uint256",
          "name": "",
          "type": "uint256"
        }
      ],
      "stateMutability": "view",
      "type": "function"
    },
    {
      "inputs": [],
      "name": "totalTypes",
      "outputs": [
        {
          "internalType": "uint16",
          "name": "",
          "type": "uint16"
        }
      ],
      "stateMutability": "view",
      "type": "function"
    },
    {
      "inputs": [
        {
          "internalType": "address",
          "name": "from",
          "type": "address"
        },
        {
          "internalType": "address",
          "name": "to",
          "type": "address"
        },
        {
          "internalType": "uint256",
          "name": "tokenId",
          "type": "uint256"
        }
      ],
      "name": "transferFrom",
      "outputs": [],
      "stateMutability": "nonpayable",
      "type": "function"
    },
    {
      "inputs": [
        {
          "internalType": "uint16",
          "name": "_type",
          "type": "uint16"
        }
      ],
      "name": "typeURI",
      "outputs": [
        {
          "internalType": "string",
          "name": "_typeURI",
          "type": "string"
        }
      ],
      "stateMutability": "view",
      "type": "function"
    },
    {
      "inputs": [
        {
          "internalType": "uint256",
          "name": "_tokenId",
          "type": "uint256"
        },
        {
          "internalType": "uint16",
          "name": "_tokenType",
          "type": "uint16"
        }
      ],
      "name": "updateTokenIdType",
      "outputs": [],
      "stateMutability": "nonpayable",
      "type": "function"
    },
    {
      "inputs": [
        {
          "internalType": "uint16",
          "name": "_tokenType",
          "type": "uint16"
        },
        {
          "internalType": "string",
          "name": "_typeURI_",
          "type": "string"
        }
      ],
      "name": "updateTypeURI",
      "outputs": [],
      "stateMutability": "nonpayable",
      "type": "function"
    }
  ],
  "bytecode": {
    "object": "0x60806040523480156200001157600080fd5b50604051620030c7380380620030c783398101604081905262000034916200032e565b8282600062000044838262000449565b50600162000053828262000449565b50506009805462010000600160b01b031916336201000002179055506200008b600080516020620030a78339815191526000620000bc565b620000a6600080516020620030a78339815191528262000107565b620000b360008262000107565b50505062000515565b600082815260066020526040808220600101805490849055905190918391839186917fbd79b86ffe0ab8e8776151514217cd7cacd52c909f66475c3af44e129f0b00ff9190a4505050565b6200011e82826200014a60201b6200134e1760201c565b600082815260076020908152604090912062000145918390620013d4620001ef821b17901c565b505050565b60008281526006602090815260408083206001600160a01b038516845290915290205460ff16620001eb5760008281526006602090815260408083206001600160a01b03851684529091529020805460ff19166001179055620001aa3390565b6001600160a01b0316816001600160a01b0316837f2f8788117e7eff1d82e926ec794901d17c78024a50270940304540a733656f0d60405160405180910390a45b5050565b600062000206836001600160a01b0384166200020f565b90505b92915050565b6000818152600183016020526040812054620002585750815460018181018455600084815260208082209093018490558454848252828601909352604090209190915562000209565b50600062000209565b634e487b7160e01b600052604160045260246000fd5b600082601f8301126200028957600080fd5b81516001600160401b0380821115620002a657620002a662000261565b604051601f8301601f19908116603f01168101908282118183101715620002d157620002d162000261565b81604052838152602092508683858801011115620002ee57600080fd5b600091505b83821015620003125785820183015181830184015290820190620002f3565b83821115620003245760008385830101525b9695505050505050565b6000806000606084860312156200034457600080fd5b83516001600160401b03808211156200035c57600080fd5b6200036a8783880162000277565b945060208601519150808211156200038157600080fd5b50620003908682870162000277565b604086015190935090506001600160a01b0381168114620003b057600080fd5b809150509250925092565b600181811c90821680620003d057607f821691505b602082108103620003f157634e487b7160e01b600052602260045260246000fd5b50919050565b601f8211156200014557600081815260208120601f850160051c81016020861015620004205750805b601f850160051c820191505b8181101562000441578281556001016200042c565b505050505050565b81516001600160401b0381111562000465576200046562000261565b6200047d81620004768454620003bb565b84620003f7565b602080601f831160018114620004b557600084156200049c5750858301515b600019600386901b1c1916600185901b17855562000441565b600085815260208120601f198616915b82811015620004e657888601518255948401946001909101908401620004c5565b5085821015620005055787850151600019600388901b60f8161c191681555b5050505050600190811b01905550565b612b8280620005256000396000f3fe608060405234801561001057600080fd5b50600436106102275760003560e01c806379cdf6ad11610130578063b88d4fde116100b8578063cf4fc7bb1161007c578063cf4fc7bb146104f7578063d547741f1461050a578063e8a3d4851461051d578063e985e9c514610525578063f15df2e51461056157600080fd5b8063b88d4fde14610496578063bf5c2c88146104a9578063c0ba241b146104bc578063c87b56dd146104d1578063ca15c873146104e457600080fd5b806395d89b41116100ff57806395d89b411461044d578063a217fddf14610455578063a22cb4651461045d578063a703ba7f14610470578063ad0be4bd1461048357600080fd5b806379cdf6ad146103eb5780639010d07c1461041457806391d1485414610427578063938e3d7b1461043a57600080fd5b80632f2ff15d116101b357806342842e0e1161018257806342842e0e1461038c57806342966c681461039f5780634b185b60146103b25780636352211e146103c557806370a08231146103d857600080fd5b80632f2ff15d1461031c578063356ee3351461032f57806336568abe146103665780633cfaa64e1461037957600080fd5b806318160ddd116101fa57806318160ddd146102a95780631c02a97c146102c057806320c5429b146102d357806323b872dd146102e6578063248a9ca3146102f957600080fd5b806301ffc9a71461022c57806306fdde0314610254578063081812fc14610269578063095ea7b314610294575b600080fd5b61023f61023a3660046120c4565b61056f565b60405190151581526020015b60405180910390f35b61025c61059a565b60405161024b9190612139565b61027c61027736600461214c565b61062c565b6040516001600160a01b03909116815260200161024b565b6102a76102a2366004612181565b610653565b005b6102b260085481565b60405190815260200161024b565b6102a76102ce366004612216565b61076d565b6102a76102e136600461214c565b6108bb565b6102a76102f43660046122ac565b610946565b6102b261030736600461214c565b60009081526006602052604090206001015490565b6102a761032a3660046122e8565b610977565b61035361033d36600461214c565b600d6020526000908152604090205461ffff1681565b60405161ffff909116815260200161024b565b6102a76103743660046122e8565b61099c565b6102a761038736600461239e565b610a1a565b6102a761039a3660046122ac565b610b4f565b6102a76103ad36600461214c565b610b6a565b61025c6103c03660046123ec565b610c48565b61027c6103d336600461214c565b610c8b565b6102b26103e6366004612407565b610ceb565b61027c6103f936600461214c565b600c602052600090815260409020546001600160a01b031681565b61027c610422366004612422565b610d71565b61023f6104353660046122e8565b610d90565b6102a7610448366004612444565b610dbb565b61025c610df4565b6102b2600081565b6102a761046b366004612479565b610e03565b6102a761047e366004612444565b610e0e565b6102a76104913660046124b5565b610eda565b6102a76104a43660046124df565b610fc9565b6102a76104b736600461255b565b611001565b6102b2600080516020612b2d83398151915281565b61025c6104df36600461214c565b611142565b6102b26104f236600461214c565b611173565b6102a7610505366004612605565b61118a565b6102a76105183660046122e8565b611301565b61025c611326565b61023f610533366004612628565b6001600160a01b03918216600090815260056020908152604080832093909416825291909152205460ff1690565b6009546103539061ffff1681565b60006001600160e01b03198216635a05180f60e01b14806105945750610594826113e9565b92915050565b6060600080546105a990612652565b80601f01602080910402602001604051908101604052809291908181526020018280546105d590612652565b80156106225780601f106105f757610100808354040283529160200191610622565b820191906000526020600020905b81548152906001019060200180831161060557829003601f168201915b5050505050905090565b60006106378261140e565b506000908152600460205260409020546001600160a01b031690565b600061065e82610c8b565b9050806001600160a01b0316836001600160a01b0316036106d05760405162461bcd60e51b815260206004820152602160248201527f4552433732313a20617070726f76616c20746f2063757272656e74206f776e656044820152603960f91b60648201526084015b60405180910390fd5b336001600160a01b03821614806106ec57506106ec8133610533565b61075e5760405162461bcd60e51b815260206004820152603d60248201527f4552433732313a20617070726f76652063616c6c6572206973206e6f7420746f60448201527f6b656e206f776e6572206f7220617070726f76656420666f7220616c6c00000060648201526084016106c7565b6107688383611470565b505050565b600080516020612b2d833981519152610785816114de565b60005b8251811015610768576107b38382815181106107a6576107a661268c565b60200260200101516114e8565b6000600c60008584815181106107cb576107cb61268c565b6020026020010151815260200190815260200160002060006101000a8154816001600160a01b0302191690836001600160a01b031602179055506000600d600085848151811061081d5761081d61268c565b6020026020010151815260200190815260200160002060006101000a81548161ffff021916908361ffff1602179055507f713b90881ad62c4fa8ab6bd9197fa86481fc0c11b2edba60026514281b2dbac4338483815181106108815761088161268c565b60200260200101516040516108ab9291906001600160a01b03929092168252602082015260400190565b60405180910390a1600101610788565b600080516020612b2d8339815191526108d3816114de565b6108dc826114e8565b6000828152600c6020908152604080832080546001600160a01b0319169055600d825291829020805461ffff1916905581513381529081018490527f713b90881ad62c4fa8ab6bd9197fa86481fc0c11b2edba60026514281b2dbac4910160405180910390a15050565b6109503382611589565b61096c5760405162461bcd60e51b81526004016106c7906126a2565b610768838383611608565b600082815260066020526040902060010154610992816114de565b6107688383611777565b6001600160a01b0381163314610a0c5760405162461bcd60e51b815260206004820152602f60248201527f416363657373436f6e74726f6c3a2063616e206f6e6c792072656e6f756e636560448201526e103937b632b9903337b91039b2b63360891b60648201526084016106c7565b610a168282611799565b5050565b6000610a25816114de565b610a2e836117bb565b610a4a5760405162461bcd60e51b81526004016106c7906126ef565b7fc5d2460186f7233c927e7db2dcc703c0e500b653ca82273b7bfad8045d85a47082604051602001610a7c9190612718565b6040516020818303038152906040528051906020012003610ad45760405162461bcd60e51b8152602060048201526012602482015271456d707479206d657461646174612055524960701b60448201526064016106c7565b81604051602001610ae59190612718565b60408051601f1981840301815291815261ffff85166000908152600b6020522090610b109082612782565b507f304e696a7fa05e5e3ba004dbd79df964b1b3d5db091a49d05cc3be105bf6b28d8383604051610b42929190612842565b60405180910390a1505050565b61076883838360405180602001604052806000815250610fc9565b33610b7482610c8b565b6001600160a01b031614610bd65760405162461bcd60e51b815260206004820152602360248201527f4f6e6c7920746865206f776e65722063616e206275726e20746865697220746f60448201526235b2b760e91b60648201526084016106c7565b610bdf816114e8565b6000818152600c6020908152604080832080546001600160a01b0319169055600d825291829020805461ffff1916905581513381529081018390527f713b90881ad62c4fa8ab6bd9197fa86481fc0c11b2edba60026514281b2dbac4910160405180910390a150565b6060600b60008361ffff1661ffff168152602001908152602001600020604051602001610c75919061285f565b6040516020818303038152906040529050919050565b6000818152600260205260408120546001600160a01b0316806105945760405162461bcd60e51b8152602060048201526018602482015277115490cdcc8c4e881a5b9d985b1a59081d1bdad95b88125160421b60448201526064016106c7565b60006001600160a01b038216610d555760405162461bcd60e51b815260206004820152602960248201527f4552433732313a2061646472657373207a65726f206973206e6f7420612076616044820152683634b21037bbb732b960b91b60648201526084016106c7565b506001600160a01b031660009081526003602052604090205490565b6000828152600760205260408120610d8990836117ed565b9392505050565b60009182526006602090815260408084206001600160a01b0393909316845291905290205460ff1690565b6000610dc6816114de565b81604051602001610dd79190612718565b604051602081830303815290604052600a90816107689190612782565b6060600180546105a990612652565b610a163383836117f9565b600080516020612b2d833981519152610e26816114de565b6009805461ffff16906000610e3a836128eb565b91906101000a81548161ffff021916908361ffff1602179055505081604051602001610e669190612718565b60408051601f1981840301815291815260095461ffff166000908152600b6020522090610e939082612782565b5060095460405133917feee6d734ab3002f6fb2460eba7ece9dc144994f56daef931baad47e3d94ef31391610ece9161ffff16908690612842565b60405180910390a25050565b600080516020612b2d833981519152610ef2816114de565b610efb826117bb565b610f175760405162461bcd60e51b81526004016106c7906126ef565b60088054906000610f278361290c565b9190505550610f38836008546118bf565b600880546000908152600c602090815260408083208054336001600160a01b0319909116811790915584548452600d835292819020805461ffff191661ffff881690811790915593548151908152918201939093526001600160a01b038616927f41ddb298124e0da68871b0019ae3694217bfe6d6b113248eb257552eec74268e91015b60405180910390a3505050565b610fd33383611589565b610fef5760405162461bcd60e51b81526004016106c7906126a2565b610ffb848484846118d9565b50505050565b600080516020612b2d833981519152611019816114de565b611022826117bb565b61103e5760405162461bcd60e51b81526004016106c7906126ef565b60005b8351811015610ffb576008805490600061105a8361290c565b91905055506110848482815181106110745761107461268c565b60200260200101516008546118bf565b600880546000908152600c6020908152604080832080546001600160a01b0319163317905592548252600d905220805461ffff851661ffff1990911617905583518490829081106110d7576110d761268c565b60200260200101516001600160a01b0316336001600160a01b03167f41ddb298124e0da68871b0019ae3694217bfe6d6b113248eb257552eec74268e6008548660405161113292919091825261ffff16602082015260400190565b60405180910390a3600101611041565b6000818152600d602090815260408083205461ffff168352600b8252918290209151606092610c759290910161285f565b60008181526007602052604081206105949061190c565b600080516020612b2d8339815191526111a2816114de565b6111ab826117bb565b6111c75760405162461bcd60e51b81526004016106c7906126ef565b6000838152600260205260409020546001600160a01b031661122b5760405162461bcd60e51b815260206004820152601a60248201527f464f5242494444454e3a20496e76616c696420746f6b656e496400000000000060448201526064016106c7565b6000838152600c60205260409020546001600160a01b031633146112ac5760405162461bcd60e51b815260206004820152603260248201527f4f6e6c7920746865206d696e746572206f66206120746f6b656e2063616e207360448201527132ba103a3432b4b91036b2ba30b230ba309760711b60648201526084016106c7565b6000838152600d6020908152604091829020805461ffff191661ffff86169081179091558251868152918201527f6ddfe9db30cf58862bb534375072568ccc4a9bac7cd79e26252b116f6b3be36a9101610b42565b60008281526006602052604090206001015461131c816114de565b6107688383611799565b6060600a60405160200161133a919061285f565b604051602081830303815290604052905090565b6113588282610d90565b610a165760008281526006602090815260408083206001600160a01b03851684529091529020805460ff191660011790556113903390565b6001600160a01b0316816001600160a01b0316837f2f8788117e7eff1d82e926ec794901d17c78024a50270940304540a733656f0d60405160405180910390a45050565b6000610d89836001600160a01b038416611916565b60006001600160e01b03198216635a05180f60e01b1480610594575061059482611965565b6000818152600260205260409020546001600160a01b031661146d5760405162461bcd60e51b8152602060048201526018602482015277115490cdcc8c4e881a5b9d985b1a59081d1bdad95b88125160421b60448201526064016106c7565b50565b600081815260046020526040902080546001600160a01b0319166001600160a01b03841690811790915581906114a582610c8b565b6001600160a01b03167f8c5be1e5ebec7d5bd14f71427d1e84f3dd0314c0f7b2291e5b200ac8c7c3b92560405160405180910390a45050565b61146d813361198a565b60006114f382610c8b565b9050611501816000846119e3565b61150a82610c8b565b600083815260046020908152604080832080546001600160a01b03199081169091556001600160a01b0385168085526003845282852080546000190190558785526002909352818420805490911690555192935084927fddf252ad1be2c89b69c2b068fc378daa952ba7f163c4a11628f55a4df523b3ef908390a45050565b60008061159583610c8b565b9050806001600160a01b0316846001600160a01b031614806115dc57506001600160a01b0380821660009081526005602090815260408083209388168352929052205460ff165b806116005750836001600160a01b03166115f58461062c565b6001600160a01b0316145b949350505050565b826001600160a01b031661161b82610c8b565b6001600160a01b0316146116415760405162461bcd60e51b81526004016106c790612925565b6001600160a01b0382166116a35760405162461bcd60e51b8152602060048201526024808201527f4552433732313a207472616e7366657220746f20746865207a65726f206164646044820152637265737360e01b60648201526084016106c7565b6116ae8383836119e3565b826001600160a01b03166116c182610c8b565b6001600160a01b0316146116e75760405162461bcd60e51b81526004016106c790612925565b600081815260046020908152604080832080546001600160a01b03199081169091556001600160a01b0387811680865260038552838620805460001901905590871680865283862080546001019055868652600290945282852080549092168417909155905184937fddf252ad1be2c89b69c2b068fc378daa952ba7f163c4a11628f55a4df523b3ef91a4505050565b611781828261134e565b600082815260076020526040902061076890826113d4565b6117a38282611a4c565b60008281526007602052604090206107689082611ab3565b6000808261ffff1611801561059457506009546117dd9061ffff16600161296a565b61ffff168261ffff161092915050565b6000610d898383611ac8565b816001600160a01b0316836001600160a01b03160361185a5760405162461bcd60e51b815260206004820152601960248201527f4552433732313a20617070726f766520746f2063616c6c65720000000000000060448201526064016106c7565b6001600160a01b03838116600081815260056020908152604080832094871680845294825291829020805460ff191686151590811790915591519182527f17307eab39ab6107e8899845ad3d59bd9653f200f220920489ca2b5937696c319101610fbc565b610a16828260405180602001604052806000815250611af2565b6118e4848484611608565b6118f084848484611b25565b610ffb5760405162461bcd60e51b81526004016106c790612990565b6000610594825490565b600081815260018301602052604081205461195d57508154600181810184556000848152602080822090930184905584548482528286019093526040902091909155610594565b506000610594565b60006001600160e01b03198216637965db0b60e01b1480610594575061059482611c26565b6119948282610d90565b610a16576119a181611c76565b6119ac836020611c88565b6040516020016119bd9291906129e2565b60408051601f198184030181529082905262461bcd60e51b82526106c791600401612139565b6001600160a01b0382161580611a0057506001600160a01b038316155b6107685760405162461bcd60e51b815260206004820152601d60248201527f5468697320746f6b656e2063616e206f6e6c79206265206275726e656400000060448201526064016106c7565b611a568282610d90565b15610a165760008281526006602090815260408083206001600160a01b0385168085529252808320805460ff1916905551339285917ff6391f5c32d9c69d2a47ea670b442974b53935d1edc7fd64eb21e047a839171b9190a45050565b6000610d89836001600160a01b038416611e24565b6000826000018281548110611adf57611adf61268c565b9060005260206000200154905092915050565b611afc8383611f17565b611b096000848484611b25565b6107685760405162461bcd60e51b81526004016106c790612990565b60006001600160a01b0384163b15611c1b57604051630a85bd0160e11b81526001600160a01b0385169063150b7a0290611b69903390899088908890600401612a57565b6020604051808303816000875af1925050508015611ba4575060408051601f3d908101601f19168201909252611ba191810190612a94565b60015b611c01573d808015611bd2576040519150601f19603f3d011682016040523d82523d6000602084013e611bd7565b606091505b508051600003611bf95760405162461bcd60e51b81526004016106c790612990565b805181602001fd5b6001600160e01b031916630a85bd0160e11b149050611600565b506001949350505050565b60006001600160e01b031982166380ac58cd60e01b1480611c5757506001600160e01b03198216635b5e139f60e01b145b8061059457506301ffc9a760e01b6001600160e01b0319831614610594565b60606105946001600160a01b03831660145b60606000611c97836002612ab1565b611ca2906002612ad0565b67ffffffffffffffff811115611cba57611cba6121ab565b6040519080825280601f01601f191660200182016040528015611ce4576020820181803683370190505b509050600360fc1b81600081518110611cff57611cff61268c565b60200101906001600160f81b031916908160001a905350600f60fb1b81600181518110611d2e57611d2e61268c565b60200101906001600160f81b031916908160001a9053506000611d52846002612ab1565b611d5d906001612ad0565b90505b6001811115611dd5576f181899199a1a9b1b9c1cb0b131b232b360811b85600f1660108110611d9157611d9161268c565b1a60f81b828281518110611da757611da761268c565b60200101906001600160f81b031916908160001a90535060049490941c93611dce81612ae8565b9050611d60565b508315610d895760405162461bcd60e51b815260206004820181905260248201527f537472696e67733a20686578206c656e67746820696e73756666696369656e7460448201526064016106c7565b60008181526001830160205260408120548015611f0d576000611e48600183612aff565b8554909150600090611e5c90600190612aff565b9050818114611ec1576000866000018281548110611e7c57611e7c61268c565b9060005260206000200154905080876000018481548110611e9f57611e9f61268c565b6000918252602080832090910192909255918252600188019052604090208390555b8554869080611ed257611ed2612b16565b600190038181906000526020600020016000905590558560010160008681526020019081526020016000206000905560019350505050610594565b6000915050610594565b6001600160a01b038216611f6d5760405162461bcd60e51b815260206004820181905260248201527f4552433732313a206d696e7420746f20746865207a65726f206164647265737360448201526064016106c7565b6000818152600260205260409020546001600160a01b031615611fd25760405162461bcd60e51b815260206004820152601c60248201527f4552433732313a20746f6b656e20616c7265616479206d696e7465640000000060448201526064016106c7565b611fde600083836119e3565b6000818152600260205260409020546001600160a01b0316156120435760405162461bcd60e51b815260206004820152601c60248201527f4552433732313a20746f6b656e20616c7265616479206d696e7465640000000060448201526064016106c7565b6001600160a01b038216600081815260036020908152604080832080546001019055848352600290915280822080546001600160a01b0319168417905551839291907fddf252ad1be2c89b69c2b068fc378daa952ba7f163c4a11628f55a4df523b3ef908290a45050565b6001600160e01b03198116811461146d57600080fd5b6000602082840312156120d657600080fd5b8135610d89816120ae565b60005b838110156120fc5781810151838201526020016120e4565b83811115610ffb5750506000910152565b600081518084526121258160208601602086016120e1565b601f01601f19169290920160200192915050565b602081526000610d89602083018461210d565b60006020828403121561215e57600080fd5b5035919050565b80356001600160a01b038116811461217c57600080fd5b919050565b6000806040838503121561219457600080fd5b61219d83612165565b946020939093013593505050565b634e487b7160e01b600052604160045260246000fd5b604051601f8201601f1916810167ffffffffffffffff811182821017156121ea576121ea6121ab565b604052919050565b600067ffffffffffffffff82111561220c5761220c6121ab565b5060051b60200190565b6000602080838503121561222957600080fd5b823567ffffffffffffffff81111561224057600080fd5b8301601f8101851361225157600080fd5b803561226461225f826121f2565b6121c1565b81815260059190911b8201830190838101908783111561228357600080fd5b928401925b828410156122a157833582529284019290840190612288565b979650505050505050565b6000806000606084860312156122c157600080fd5b6122ca84612165565b92506122d860208501612165565b9150604084013590509250925092565b600080604083850312156122fb57600080fd5b8235915061230b60208401612165565b90509250929050565b803561ffff8116811461217c57600080fd5b600067ffffffffffffffff831115612340576123406121ab565b612353601f8401601f19166020016121c1565b905082815283838301111561236757600080fd5b828260208301376000602084830101529392505050565b600082601f83011261238f57600080fd5b610d8983833560208501612326565b600080604083850312156123b157600080fd5b6123ba83612314565b9150602083013567ffffffffffffffff8111156123d657600080fd5b6123e28582860161237e565b9150509250929050565b6000602082840312156123fe57600080fd5b610d8982612314565b60006020828403121561241957600080fd5b610d8982612165565b6000806040838503121561243557600080fd5b50508035926020909101359150565b60006020828403121561245657600080fd5b813567ffffffffffffffff81111561246d57600080fd5b6116008482850161237e565b6000806040838503121561248c57600080fd5b61249583612165565b9150602083013580151581146124aa57600080fd5b809150509250929050565b600080604083850312156124c857600080fd5b6124d183612165565b915061230b60208401612314565b600080600080608085870312156124f557600080fd5b6124fe85612165565b935061250c60208601612165565b925060408501359150606085013567ffffffffffffffff81111561252f57600080fd5b8501601f8101871361254057600080fd5b61254f87823560208401612326565b91505092959194509250565b6000806040838503121561256e57600080fd5b823567ffffffffffffffff81111561258557600080fd5b8301601f8101851361259657600080fd5b803560206125a661225f836121f2565b82815260059290921b830181019181810190888411156125c557600080fd5b938201935b838510156125ea576125db85612165565b825293820193908201906125ca565b95506125f99050868201612314565b93505050509250929050565b6000806040838503121561261857600080fd5b8235915061230b60208401612314565b6000806040838503121561263b57600080fd5b61264483612165565b915061230b60208401612165565b600181811c9082168061266657607f821691505b60208210810361268657634e487b7160e01b600052602260045260246000fd5b50919050565b634e487b7160e01b600052603260045260246000fd5b6020808252602d908201527f4552433732313a2063616c6c6572206973206e6f7420746f6b656e206f776e6560408201526c1c881bdc88185c1c1c9bdd9959609a1b606082015260800190565b6020808252600f908201526e496e76616c6964205342207479706560881b604082015260600190565b6000825161272a8184602087016120e1565b9190910192915050565b601f82111561076857600081815260208120601f850160051c8101602086101561275b5750805b601f850160051c820191505b8181101561277a57828155600101612767565b505050505050565b815167ffffffffffffffff81111561279c5761279c6121ab565b6127b0816127aa8454612652565b84612734565b602080601f8311600181146127e557600084156127cd5750858301515b600019600386901b1c1916600185901b17855561277a565b600085815260208120601f198616915b82811015612814578886015182559484019460019091019084016127f5565b50858210156128325787850151600019600388901b60f8161c191681555b5050505050600190811b01905550565b61ffff83168152604060208201526000611600604083018461210d565b600080835461286d81612652565b60018281168015612885576001811461289a576128c9565b60ff19841687528215158302870194506128c9565b8760005260208060002060005b858110156128c05781548a8201529084019082016128a7565b50505082870194505b50929695505050505050565b634e487b7160e01b600052601160045260246000fd5b600061ffff808316818103612902576129026128d5565b6001019392505050565b60006001820161291e5761291e6128d5565b5060010190565b60208082526025908201527f4552433732313a207472616e736665722066726f6d20696e636f72726563742060408201526437bbb732b960d91b606082015260800190565b600061ffff808316818516808303821115612987576129876128d5565b01949350505050565b60208082526032908201527f4552433732313a207472616e7366657220746f206e6f6e20455243373231526560408201527131b2b4bb32b91034b6b83632b6b2b73a32b960711b606082015260800190565b7f416363657373436f6e74726f6c3a206163636f756e7420000000000000000000815260008351612a1a8160178501602088016120e1565b7001034b99036b4b9b9b4b733903937b6329607d1b6017918401918201528351612a4b8160288401602088016120e1565b01602801949350505050565b6001600160a01b0385811682528416602082015260408101839052608060608201819052600090612a8a9083018461210d565b9695505050505050565b600060208284031215612aa657600080fd5b8151610d89816120ae565b6000816000190483118215151615612acb57612acb6128d5565b500290565b60008219821115612ae357612ae36128d5565b500190565b600081612af757612af76128d5565b506000190190565b600082821015612b1157612b116128d5565b500390565b634e487b7160e01b600052603160045260246000fdfe663244bfd3de81cc055674c09ade24d4646b75863d5d9dd77d1544f2eb5acc26a2646970667358221220bcb68b52279834bf82a8d95702b3733d05c05177a842ce0c98b9e929c5b99c3f64736f6c634300080f0033663244bfd3de81cc055674c09ade24d4646b75863d5d9dd77d1544f2eb5acc26",
    "linkReferences": {}
  },
  "methodIdentifiers": {
    "DEFAULT_ADMIN_ROLE()": "a217fddf",
    "DELEGATE_ROLE()": "c0ba241b",
    "approve(address,uint256)": "095ea7b3",
    "balanceOf(address)": "70a08231",
    "batchMint(address[],uint16)": "bf5c2c88",
    "batchRevoke(uint256[])": "1c02a97c",
    "burn(uint256)": "42966c68",
    "contractURI()": "e8a3d485",
    "getApproved(uint256)": "081812fc",
    "getRoleAdmin(bytes32)": "248a9ca3",
    "getRoleMember(bytes32,uint256)": "9010d07c",
    "getRoleMemberCount(bytes32)": "ca15c873",
    "grantRole(bytes32,address)": "2f2ff15d",
    "hasRole(bytes32,address)": "91d14854",
    "isApprovedForAll(address,address)": "e985e9c5",
    "mint(address,uint16)": "ad0be4bd",
    "mintTokenType(string)": "a703ba7f",
    "name()": "06fdde03",
    "ownerOf(uint256)": "6352211e",
    "renounceRole(bytes32,address)": "36568abe",
    "revoke(uint256)": "20c5429b",
    "revokeRole(bytes32,address)": "d547741f",
    "safeTransferFrom(address,address,uint256)": "42842e0e",
    "safeTransferFrom(address,address,uint256,bytes)": "b88d4fde",
    "setApprovalForAll(address,bool)": "a22cb465",
    "setContractURI(string)": "938e3d7b",
    "supportsInterface(bytes4)": "01ffc9a7",
    "symbol()": "95d89b41",
    "tokenIdToType(uint256)": "356ee335",
    "tokenToMinter(uint256)": "79cdf6ad",
    "tokenURI(uint256)": "c87b56dd",
    "totalSupply()": "18160ddd",
    "totalTypes()": "f15df2e5",
    "transferFrom(address,address,uint256)": "23b872dd",
    "typeURI(uint16)": "4b185b60",
    "updateTokenIdType(uint256,uint16)": "cf4fc7bb",
    "updateTypeURI(uint16,string)": "3cfaa64e"
  },
  "id": 23
}