{
  "abi": [
    {
      "inputs": [
        {
          "internalType": "string",
          "name": "_name",
          "type": "string"
        },
        {
          "internalType": "string",
          "name": "_symbol",
          "type": "string"
        },
        {
          "internalType": "bytes",
          "name": "_metadata",
          "type": "bytes"
        },
        {
          "internalType": "address",
          "name": "_admin",
          "type": "address"
        }
      ],
      "stateMutability": "nonpayable",
      "type": "constructor"
    },
    {
      "anonymous": false,
      "inputs": [
        {
          "indexed": true,
          "internalType": "address",
          "name": "owner",
          "type": "address"
        },
        {
          "indexed": true,
          "internalType": "address",
          "name": "approved",
          "type": "address"
        },
        {
          "indexed": true,
          "internalType": "uint256",
          "name": "tokenId",
          "type": "uint256"
        }
      ],
      "name": "Approval",
      "type": "event"
    },
    {
      "anonymous": false,
      "inputs": [
        {
          "indexed": true,
          "internalType": "address",
          "name": "owner",
          "type": "address"
        },
        {
          "indexed": true,
          "internalType": "address",
          "name": "operator",
          "type": "address"
        },
        {
          "indexed": false,
          "internalType": "bool",
          "name": "approved",
          "type": "bool"
        }
      ],
      "name": "ApprovalForAll",
      "type": "event"
    },
    {
      "anonymous": false,
      "inputs": [
        {
          "indexed": true,
          "internalType": "address",
          "name": "revokedBy",
          "type": "address"
        },
        {
          "indexed": false,
          "internalType": "address[]",
          "name": "owners",
          "type": "address[]"
        },
        {
          "indexed": false,
          "internalType": "uint256[]",
          "name": "tokenIds",
          "type": "uint256[]"
        }
      ],
      "name": "BatchRevoked",
      "type": "event"
    },
    {
      "anonymous": false,
      "inputs": [
        {
          "indexed": true,
          "internalType": "address",
          "name": "mintedBy",
          "type": "address"
        },
        {
          "indexed": true,
          "internalType": "address",
          "name": "to",
          "type": "address"
        },
        {
          "indexed": false,
          "internalType": "uint256",
          "name": "tokenId",
          "type": "uint256"
        },
        {
          "indexed": false,
          "internalType": "uint16",
          "name": "tokenType",
          "type": "uint16"
        }
      ],
      "name": "Mint",
      "type": "event"
    },
    {
      "anonymous": false,
      "inputs": [
        {
          "indexed": true,
          "internalType": "address",
          "name": "revokedBy",
          "type": "address"
        },
        {
          "indexed": true,
          "internalType": "address",
          "name": "owner",
          "type": "address"
        },
        {
          "indexed": false,
          "internalType": "uint256",
          "name": "tokenId",
          "type": "uint256"
        }
      ],
      "name": "Revoked",
      "type": "event"
    },
    {
      "anonymous": false,
      "inputs": [
        {
          "indexed": true,
          "internalType": "bytes32",
          "name": "role",
          "type": "bytes32"
        },
        {
          "indexed": true,
          "internalType": "bytes32",
          "name": "previousAdminRole",
          "type": "bytes32"
        },
        {
          "indexed": true,
          "internalType": "bytes32",
          "name": "newAdminRole",
          "type": "bytes32"
        }
      ],
      "name": "RoleAdminChanged",
      "type": "event"
    },
    {
      "anonymous": false,
      "inputs": [
        {
          "indexed": true,
          "internalType": "bytes32",
          "name": "role",
          "type": "bytes32"
        },
        {
          "indexed": true,
          "internalType": "address",
          "name": "account",
          "type": "address"
        },
        {
          "indexed": true,
          "internalType": "address",
          "name": "sender",
          "type": "address"
        }
      ],
      "name": "RoleGranted",
      "type": "event"
    },
    {
      "anonymous": false,
      "inputs": [
        {
          "indexed": true,
          "internalType": "bytes32",
          "name": "role",
          "type": "bytes32"
        },
        {
          "indexed": true,
          "internalType": "address",
          "name": "account",
          "type": "address"
        },
        {
          "indexed": true,
          "internalType": "address",
          "name": "sender",
          "type": "address"
        }
      ],
      "name": "RoleRevoked",
      "type": "event"
    },
    {
      "anonymous": false,
      "inputs": [
        {
          "indexed": false,
          "internalType": "uint256",
          "name": "tokenId",
          "type": "uint256"
        },
        {
          "indexed": false,
          "internalType": "uint16",
          "name": "_tokenType",
          "type": "uint16"
        }
      ],
      "name": "TokenIdTypeUpdated",
      "type": "event"
    },
    {
      "anonymous": false,
      "inputs": [
        {
          "indexed": true,
          "internalType": "address",
          "name": "from",
          "type": "address"
        },
        {
          "indexed": true,
          "internalType": "address",
          "name": "to",
          "type": "address"
        },
        {
          "indexed": true,
          "internalType": "uint256",
          "name": "tokenId",
          "type": "uint256"
        }
      ],
      "name": "Transfer",
      "type": "event"
    },
    {
      "anonymous": false,
      "inputs": [
        {
          "indexed": false,
          "internalType": "uint16",
          "name": "tokenType",
          "type": "uint16"
        },
        {
          "indexed": true,
          "internalType": "address",
          "name": "createdBy",
          "type": "address"
        },
        {
          "indexed": false,
          "internalType": "bytes",
          "name": "uri",
          "type": "bytes"
        }
      ],
      "name": "TypeCreated",
      "type": "event"
    },
    {
      "anonymous": false,
      "inputs": [
        {
          "indexed": false,
          "internalType": "uint16",
          "name": "tokenType",
          "type": "uint16"
        },
        {
          "indexed": false,
          "internalType": "bytes",
          "name": "uri",
          "type": "bytes"
        }
      ],
      "name": "TypeUpdated",
      "type": "event"
    },
    {
      "inputs": [],
      "name": "DEFAULT_ADMIN_ROLE",
      "outputs": [
        {
          "internalType": "bytes32",
          "name": "",
          "type": "bytes32"
        }
      ],
      "stateMutability": "view",
      "type": "function"
    },
    {
      "inputs": [],
      "name": "DELEGATE_ROLE",
      "outputs": [
        {
          "internalType": "bytes32",
          "name": "",
          "type": "bytes32"
        }
      ],
      "stateMutability": "view",
      "type": "function"
    },
    {
      "inputs": [
        {
          "internalType": "address",
          "name": "to",
          "type": "address"
        },
        {
          "internalType": "uint256",
          "name": "tokenId",
          "type": "uint256"
        }
      ],
      "name": "approve",
      "outputs": [],
      "stateMutability": "nonpayable",
      "type": "function"
    },
    {
      "inputs": [
        {
          "internalType": "address",
          "name": "owner",
          "type": "address"
        }
      ],
      "name": "balanceOf",
      "outputs": [
        {
          "internalType": "uint256",
          "name": "",
          "type": "uint256"
        }
      ],
      "stateMutability": "view",
      "type": "function"
    },
    {
      "inputs": [
        {
          "internalType": "address[]",
          "name": "_to",
          "type": "address[]"
        },
        {
          "internalType": "uint16",
          "name": "_tokenType",
          "type": "uint16"
        }
      ],
      "name": "batchMint",
      "outputs": [],
      "stateMutability": "nonpayable",
      "type": "function"
    },
    {
      "inputs": [
        {
          "internalType": "uint256[]",
          "name": "_tokenIds",
          "type": "uint256[]"
        }
      ],
      "name": "batchRevoke",
      "outputs": [],
      "stateMutability": "nonpayable",
      "type": "function"
    },
    {
      "inputs": [
        {
          "internalType": "uint256",
          "name": "_tokenId",
          "type": "uint256"
        }
      ],
      "name": "burn",
      "outputs": [],
      "stateMutability": "nonpayable",
      "type": "function"
    },
    {
      "inputs": [],
      "name": "contractURI",
      "outputs": [
        {
          "internalType": "bytes",
          "name": "",
          "type": "bytes"
        }
      ],
      "stateMutability": "view",
      "type": "function"
    },
    {
      "inputs": [
        {
          "internalType": "uint256",
          "name": "tokenId",
          "type": "uint256"
        }
      ],
      "name": "getApproved",
      "outputs": [
        {
          "internalType": "address",
          "name": "",
          "type": "address"
        }
      ],
      "stateMutability": "view",
      "type": "function"
    },
    {
      "inputs": [
        {
          "internalType": "bytes32",
          "name": "role",
          "type": "bytes32"
        }
      ],
      "name": "getRoleAdmin",
      "outputs": [
        {
          "internalType": "bytes32",
          "name": "",
          "type": "bytes32"
        }
      ],
      "stateMutability": "view",
      "type": "function"
    },
    {
      "inputs": [
        {
          "internalType": "bytes32",
          "name": "role",
          "type": "bytes32"
        },
        {
          "internalType": "uint256",
          "name": "index",
          "type": "uint256"
        }
      ],
      "name": "getRoleMember",
      "outputs": [
        {
          "internalType": "address",
          "name": "",
          "type": "address"
        }
      ],
      "stateMutability": "view",
      "type": "function"
    },
    {
      "inputs": [
        {
          "internalType": "bytes32",
          "name": "role",
          "type": "bytes32"
        }
      ],
      "name": "getRoleMemberCount",
      "outputs": [
        {
          "internalType": "uint256",
          "name": "",
          "type": "uint256"
        }
      ],
      "stateMutability": "view",
      "type": "function"
    },
    {
      "inputs": [
        {
          "internalType": "bytes32",
          "name": "role",
          "type": "bytes32"
        },
        {
          "internalType": "address",
          "name": "account",
          "type": "address"
        }
      ],
      "name": "grantRole",
      "outputs": [],
      "stateMutability": "nonpayable",
      "type": "function"
    },
    {
      "inputs": [
        {
          "internalType": "bytes32",
          "name": "role",
          "type": "bytes32"
        },
        {
          "internalType": "address",
          "name": "account",
          "type": "address"
        }
      ],
      "name": "hasRole",
      "outputs": [
        {
          "internalType": "bool",
          "name": "",
          "type": "bool"
        }
      ],
      "stateMutability": "view",
      "type": "function"
    },
    {
      "inputs": [
        {
          "internalType": "address",
          "name": "owner",
          "type": "address"
        },
        {
          "internalType": "address",
          "name": "operator",
          "type": "address"
        }
      ],
      "name": "isApprovedForAll",
      "outputs": [
        {
          "internalType": "bool",
          "name": "",
          "type": "bool"
        }
      ],
      "stateMutability": "view",
      "type": "function"
    },
    {
      "inputs": [
        {
          "internalType": "address",
          "name": "_to",
          "type": "address"
        },
        {
          "internalType": "uint16",
          "name": "_tokenType",
          "type": "uint16"
        }
      ],
      "name": "mint",
      "outputs": [],
      "stateMutability": "nonpayable",
      "type": "function"
    },
    {
      "inputs": [
        {
          "internalType": "bytes",
          "name": "typeURI_",
          "type": "bytes"
        }
      ],
      "name": "mintTokenType",
      "outputs": [],
      "stateMutability": "nonpayable",
      "type": "function"
    },
    {
      "inputs": [],
      "name": "name",
      "outputs": [
        {
          "internalType": "string",
          "name": "",
          "type": "string"
        }
      ],
      "stateMutability": "view",
      "type": "function"
    },
    {
      "inputs": [
        {
          "internalType": "uint256",
          "name": "tokenId",
          "type": "uint256"
        }
      ],
      "name": "ownerOf",
      "outputs": [
        {
          "internalType": "address",
          "name": "",
          "type": "address"
        }
      ],
      "stateMutability": "view",
      "type": "function"
    },
    {
      "inputs": [
        {
          "internalType": "bytes32",
          "name": "role",
          "type": "bytes32"
        },
        {
          "internalType": "address",
          "name": "account",
          "type": "address"
        }
      ],
      "name": "renounceRole",
      "outputs": [],
      "stateMutability": "nonpayable",
      "type": "function"
    },
    {
      "inputs": [
        {
          "internalType": "uint256",
          "name": "_tokenId",
          "type": "uint256"
        }
      ],
      "name": "revoke",
      "outputs": [],
      "stateMutability": "nonpayable",
      "type": "function"
    },
    {
      "inputs": [
        {
          "internalType": "bytes32",
          "name": "role",
          "type": "bytes32"
        },
        {
          "internalType": "address",
          "name": "account",
          "type": "address"
        }
      ],
      "name": "revokeRole",
      "outputs": [],
      "stateMutability": "nonpayable",
      "type": "function"
    },
    {
      "inputs": [
        {
          "internalType": "address",
          "name": "from",
          "type": "address"
        },
        {
          "internalType": "address",
          "name": "to",
          "type": "address"
        },
        {
          "internalType": "uint256",
          "name": "tokenId",
          "type": "uint256"
        }
      ],
      "name": "safeTransferFrom",
      "outputs": [],
      "stateMutability": "nonpayable",
      "type": "function"
    },
    {
      "inputs": [
        {
          "internalType": "address",
          "name": "from",
          "type": "address"
        },
        {
          "internalType": "address",
          "name": "to",
          "type": "address"
        },
        {
          "internalType": "uint256",
          "name": "tokenId",
          "type": "uint256"
        },
        {
          "internalType": "bytes",
          "name": "data",
          "type": "bytes"
        }
      ],
      "name": "safeTransferFrom",
      "outputs": [],
      "stateMutability": "nonpayable",
      "type": "function"
    },
    {
      "inputs": [
        {
          "internalType": "address",
          "name": "operator",
          "type": "address"
        },
        {
          "internalType": "bool",
          "name": "approved",
          "type": "bool"
        }
      ],
      "name": "setApprovalForAll",
      "outputs": [],
      "stateMutability": "nonpayable",
      "type": "function"
    },
    {
      "inputs": [
        {
          "internalType": "bytes",
          "name": "contractURI_",
          "type": "bytes"
        }
      ],
      "name": "setContractURI",
      "outputs": [],
      "stateMutability": "nonpayable",
      "type": "function"
    },
    {
      "inputs": [
        {
          "internalType": "bytes4",
          "name": "interfaceId",
          "type": "bytes4"
        }
      ],
      "name": "supportsInterface",
      "outputs": [
        {
          "internalType": "bool",
          "name": "",
          "type": "bool"
        }
      ],
      "stateMutability": "view",
      "type": "function"
    },
    {
      "inputs": [],
      "name": "symbol",
      "outputs": [
        {
          "internalType": "string",
          "name": "",
          "type": "string"
        }
      ],
      "stateMutability": "view",
      "type": "function"
    },
    {
      "inputs": [
        {
          "internalType": "uint256",
          "name": "_tokenId",
          "type": "uint256"
        }
      ],
      "name": "tokenCID",
      "outputs": [
        {
          "internalType": "bytes",
          "name": "",
          "type": "bytes"
        }
      ],
      "stateMutability": "view",
      "type": "function"
    },
    {
      "inputs": [
        {
          "internalType": "uint256",
          "name": "",
          "type": "uint256"
        }
      ],
      "name": "tokenIdToType",
      "outputs": [
        {
          "internalType": "uint16",
          "name": "",
          "type": "uint16"
        }
      ],
      "stateMutability": "view",
      "type": "function"
    },
    {
      "inputs": [
        {
          "internalType": "uint256",
          "name": "",
          "type": "uint256"
        }
      ],
      "name": "tokenToMinter",
      "outputs": [
        {
          "internalType": "address",
          "name": "",
          "type": "address"
        }
      ],
      "stateMutability": "view",
      "type": "function"
    },
    {
      "inputs": [
        {
          "internalType": "uint256",
          "name": "tokenId",
          "type": "uint256"
        }
      ],
      "name": "tokenURI",
      "outputs": [
        {
          "internalType": "string",
          "name": "",
          "type": "string"
        }
      ],
      "stateMutability": "view",
      "type": "function"
    },
    {
      "inputs": [],
      "name": "totalSupply",
      "outputs": [
        {
          "internalType": "uint256",
          "name": "",
          "type": "uint256"
        }
      ],
      "stateMutability": "view",
      "type": "function"
    },
    {
      "inputs": [],
      "name": "totalTypes",
      "outputs": [
        {
          "internalType": "uint16",
          "name": "",
          "type": "uint16"
        }
      ],
      "stateMutability": "view",
      "type": "function"
    },
    {
      "inputs": [
        {
          "internalType": "address",
          "name": "from",
          "type": "address"
        },
        {
          "internalType": "address",
          "name": "to",
          "type": "address"
        },
        {
          "internalType": "uint256",
          "name": "tokenId",
          "type": "uint256"
        }
      ],
      "name": "transferFrom",
      "outputs": [],
      "stateMutability": "nonpayable",
      "type": "function"
    },
    {
      "inputs": [
        {
          "internalType": "uint16",
          "name": "",
          "type": "uint16"
        },
        {
          "internalType": "address",
          "name": "",
          "type": "address"
        }
      ],
      "name": "typeToSoul",
      "outputs": [
        {
          "internalType": "bool",
          "name": "",
          "type": "bool"
        }
      ],
      "stateMutability": "view",
      "type": "function"
    },
    {
      "inputs": [
        {
          "internalType": "uint16",
          "name": "_type",
          "type": "uint16"
        }
      ],
      "name": "typeURI",
      "outputs": [
        {
          "internalType": "bytes",
          "name": "",
          "type": "bytes"
        }
      ],
      "stateMutability": "view",
      "type": "function"
    },
    {
      "inputs": [
        {
          "internalType": "uint256",
          "name": "_tokenId",
          "type": "uint256"
        },
        {
          "internalType": "uint16",
          "name": "_tokenType",
          "type": "uint16"
        }
      ],
      "name": "updateTokenIdType",
      "outputs": [],
      "stateMutability": "nonpayable",
      "type": "function"
    },
    {
      "inputs": [
        {
          "internalType": "uint16",
          "name": "_tokenType",
          "type": "uint16"
        },
        {
          "internalType": "bytes",
          "name": "_typeURI_",
          "type": "bytes"
        }
      ],
      "name": "updateTypeURI",
      "outputs": [],
      "stateMutability": "nonpayable",
      "type": "function"
    }
  ],
  "bytecode": {
    "object": "0x60806040523480156200001157600080fd5b506040516200327b3803806200327b83398101604081905262000034916200040b565b8351849084906200004d90600090602085019062000288565b5080516200006390600190602084019062000288565b50506009805462010000600160b01b0319163362010000021790555081516200009490600a90602085019062000288565b50620000b16000805160206200325b8339815191526000620000e3565b620000cc6000805160206200325b833981519152826200012e565b620000d96000826200012e565b505050506200050f565b600082815260066020526040808220600101805490849055905190918391839186917fbd79b86ffe0ab8e8776151514217cd7cacd52c909f66475c3af44e129f0b00ff9190a4505050565b6200014582826200017160201b620013c61760201c565b60008281526007602090815260409091206200016c9183906200144c62000216821b17901c565b505050565b60008281526006602090815260408083206001600160a01b038516845290915290205460ff16620002125760008281526006602090815260408083206001600160a01b03851684529091529020805460ff19166001179055620001d13390565b6001600160a01b0316816001600160a01b0316837f2f8788117e7eff1d82e926ec794901d17c78024a50270940304540a733656f0d60405160405180910390a45b5050565b60006200022d836001600160a01b03841662000236565b90505b92915050565b60008181526001830160205260408120546200027f5750815460018181018455600084815260208082209093018490558454848252828601909352604090209190915562000230565b50600062000230565b8280546200029690620004d3565b90600052602060002090601f016020900481019282620002ba576000855562000305565b82601f10620002d557805160ff191683800117855562000305565b8280016001018555821562000305579182015b8281111562000305578251825591602001919060010190620002e8565b506200031392915062000317565b5090565b5b8082111562000313576000815560010162000318565b634e487b7160e01b600052604160045260246000fd5b60006001600160401b03808411156200036157620003616200032e565b604051601f8501601f19908116603f011681019082821181831017156200038c576200038c6200032e565b81604052809350858152868686011115620003a657600080fd5b600092505b85831015620003cb578285015160208483010152602083019250620003ab565b85831115620003de576000602087830101525b5050509392505050565b600082601f830112620003fa57600080fd5b6200022d8383516020850162000344565b600080600080608085870312156200042257600080fd5b84516001600160401b03808211156200043a57600080fd5b6200044888838901620003e8565b955060208701519150808211156200045f57600080fd5b6200046d88838901620003e8565b945060408701519150808211156200048457600080fd5b508501601f810187136200049757600080fd5b620004a88782516020840162000344565b606087015190935090506001600160a01b0381168114620004c857600080fd5b939692955090935050565b600181811c90821680620004e857607f821691505b6020821081036200050957634e487b7160e01b600052602260045260246000fd5b50919050565b612d3c806200051f6000396000f3fe608060405234801561001057600080fd5b506004361061023d5760003560e01c806370a082311161013b578063b88d4fde116100b8578063cf4fc7bb1161007c578063cf4fc7bb1461054e578063d547741f14610561578063e8a3d48514610574578063e985e9c51461057c578063f15df2e5146105b857600080fd5b8063b88d4fde146104ed578063bf5c2c8814610500578063c0ba241b14610513578063c87b56dd14610528578063ca15c8731461053b57600080fd5b806395d89b41116100ff57806395d89b41146104a4578063a217fddf146104ac578063a22cb465146104b4578063ad0be4bd146104c7578063b64da769146104da57600080fd5b806370a082311461042f57806379cdf6ad146104425780638f6dbbbb1461046b5780639010d07c1461047e57806391d148541461049157600080fd5b8063248a9ca3116101c957806342966c681161018d57806342966c68146103b55780634b185b60146103c85780634d9d061d146103db5780636352211e146104095780636972fbb81461041c57600080fd5b8063248a9ca3146103225780632f2ff15d14610345578063356ee3351461035857806336568abe1461038f57806342842e0e146103a257600080fd5b806318160ddd1161021057806318160ddd146102bf5780631c02a97c146102d657806320c5429b146102e95780632329319a146102fc57806323b872dd1461030f57600080fd5b806301ffc9a71461024257806306fdde031461026a578063081812fc1461027f578063095ea7b3146102aa575b600080fd5b6102556102503660046122d6565b6105c6565b60405190151581526020015b60405180910390f35b6102726105f1565b604051610261919061234b565b61029261028d36600461235e565b610683565b6040516001600160a01b039091168152602001610261565b6102bd6102b8366004612393565b6106aa565b005b6102c860085481565b604051908152602001610261565b6102bd6102e4366004612428565b6107c4565b6102bd6102f736600461235e565b610947565b6102bd61030a366004612507565b6109ff565b6102bd61031d366004612549565b610a1c565b6102c861033036600461235e565b60009081526006602052604090206001015490565b6102bd610353366004612585565b610a4d565b61037c61036636600461235e565b600d6020526000908152604090205461ffff1681565b60405161ffff9091168152602001610261565b6102bd61039d366004612585565b610a72565b6102bd6103b0366004612549565b610af0565b6102bd6103c336600461235e565b610b0b565b6102726103d63660046125c3565b610c1c565b6102556103e93660046125de565b600e60209081526000928352604080842090915290825290205460ff1681565b61029261041736600461235e565b610cc3565b61027261042a36600461235e565b610d23565b6102c861043d366004612608565b610d51565b61029261045036600461235e565b600c602052600090815260409020546001600160a01b031681565b6102bd610479366004612623565b610dd7565b61029261048c366004612676565b610ea6565b61025561049f366004612585565b610ec5565b610272610ef0565b6102c8600081565b6102bd6104c2366004612698565b610eff565b6102bd6104d53660046126d4565b610f0a565b6102bd6104e8366004612507565b611083565b6102bd6104fb3660046126fe565b611164565b6102bd61050e3660046127be565b611196565b6102c8600080516020612ce783398151915281565b61027261053636600461235e565b61120a565b6102c861054936600461235e565b61127d565b6102bd61055c366004612868565b611294565b6102bd61056f366004612585565b611392565b6102726113b7565b61025561058a36600461288b565b6001600160a01b03918216600090815260056020908152604080832093909416825291909152205460ff1690565b60095461037c9061ffff1681565b60006001600160e01b03198216635a05180f60e01b14806105eb57506105eb82611461565b92915050565b606060008054610600906128a7565b80601f016020809104026020016040519081016040528092919081815260200182805461062c906128a7565b80156106795780601f1061064e57610100808354040283529160200191610679565b820191906000526020600020905b81548152906001019060200180831161065c57829003601f168201915b5050505050905090565b600061068e82611486565b506000908152600460205260409020546001600160a01b031690565b60006106b582610cc3565b9050806001600160a01b0316836001600160a01b0316036107275760405162461bcd60e51b815260206004820152602160248201527f4552433732313a20617070726f76616c20746f2063757272656e74206f776e656044820152603960f91b60648201526084015b60405180910390fd5b336001600160a01b03821614806107435750610743813361058a565b6107b55760405162461bcd60e51b815260206004820152603d60248201527f4552433732313a20617070726f76652063616c6c6572206973206e6f7420746f60448201527f6b656e206f776e6572206f7220617070726f76656420666f7220616c6c000000606482015260840161071e565b6107bf83836114e8565b505050565b600080516020612ce78339815191526107dc81611556565b6000825167ffffffffffffffff8111156107f8576107f86123bd565b604051908082528060200260200182016040528015610821578160200160208202803683370190505b50905060005b83518110156108fe57610852848281518110610845576108456128e1565b6020026020010151610cc3565b828281518110610864576108646128e1565b60200260200101906001600160a01b031690816001600160a01b0316815250506108a6848281518110610899576108996128e1565b6020026020010151611560565b6000600c60008684815181106108be576108be6128e1565b602090810291909101810151825281019190915260400160002080546001600160a01b0319166001600160a01b0392909216919091179055600101610827565b50336001600160a01b03167fdcd0cfc5596f7922b66d78eb868e28cd8f356952d1f7f589d467d7107ad3d2dd828560405161093a9291906128f7565b60405180910390a2505050565b600080516020612ce783398151915261095f81611556565b600061096a83610cc3565b905061097583611560565b6000838152600d602090815260408083205461ffff168352600e82528083206001600160a01b038516808552908352818420805460ff19169055868452600c83529281902080546001600160a01b03191690555185815233917f1b0d5fb22a7bd6488427342953b1f43743eda17130144de1ea68a9058355d3fb91015b60405180910390a3505050565b6000610a0a81611556565b610a16600a8484612227565b50505050565b610a263382611601565b610a425760405162461bcd60e51b815260040161071e9061297b565b6107bf838383611680565b600082815260066020526040902060010154610a6881611556565b6107bf83836117ef565b6001600160a01b0381163314610ae25760405162461bcd60e51b815260206004820152602f60248201527f416363657373436f6e74726f6c3a2063616e206f6e6c792072656e6f756e636560448201526e103937b632b9903337b91039b2b63360891b606482015260840161071e565b610aec8282611811565b5050565b6107bf83838360405180602001604052806000815250611164565b6000610b1682610cc3565b90506001600160a01b0381163314610b7c5760405162461bcd60e51b815260206004820152602360248201527f4f6e6c7920746865206f776e65722063616e206275726e20746865697220746f60448201526235b2b760e91b606482015260840161071e565b610b8582611560565b6000828152600c6020908152604080832080546001600160a01b0319169055600d808352818420805461ffff168552600e845282852033808752908552838620805460ff1916905594879052908352805461ffff19169055518481526001600160a01b03841692917f1b0d5fb22a7bd6488427342953b1f43743eda17130144de1ea68a9058355d3fb910160405180910390a35050565b61ffff81166000908152600b60205260409020805460609190610c3e906128a7565b80601f0160208091040260200160405190810160405280929190818152602001828054610c6a906128a7565b8015610cb75780601f10610c8c57610100808354040283529160200191610cb7565b820191906000526020600020905b815481529060010190602001808311610c9a57829003601f168201915b50505050509050919050565b6000818152600260205260408120546001600160a01b0316806105eb5760405162461bcd60e51b8152602060048201526018602482015277115490cdcc8c4e881a5b9d985b1a59081d1bdad95b88125160421b604482015260640161071e565b6000818152600d602090815260408083205461ffff168352600b9091529020805460609190610c3e906128a7565b60006001600160a01b038216610dbb5760405162461bcd60e51b815260206004820152602960248201527f4552433732313a2061646472657373207a65726f206973206e6f7420612076616044820152683634b21037bbb732b960b91b606482015260840161071e565b506001600160a01b031660009081526003602052604090205490565b6000610de281611556565b610deb84611833565b610e075760405162461bcd60e51b815260040161071e906129c8565b81610e465760405162461bcd60e51b815260206004820152600f60248201526e496e76616c6964207479706555524960881b604482015260640161071e565b61ffff84166000908152600b60205260409020610e64908484612227565b507fdc86cf909261f03097a94d7a759421659cb255578ed96118d9ea96a32d424dd5848484604051610e98939291906129f1565b60405180910390a150505050565b6000828152600760205260408120610ebe9083611865565b9392505050565b60009182526006602090815260408084206001600160a01b0393909316845291905290205460ff1690565b606060018054610600906128a7565b610aec338383611871565b600080516020612ce7833981519152610f2281611556565b610f2b82611833565b610f475760405162461bcd60e51b815260040161071e906129c8565b61ffff82166000908152600e602090815260408083206001600160a01b038716845290915290205460ff161515600103610fba5760405162461bcd60e51b8152602060048201526014602482015273111d5c1b1a58d85d194818dc9959195b9d1a585b60621b604482015260640161071e565b60088054906000610fca83612a41565b9190505550610fdb83600854611937565b600880546000908152600c602090815260408083208054336001600160a01b0319909116811790915584548452600d8352818420805461ffff191661ffff8916908117909155808552600e84528285206001600160a01b038a1680875290855294839020805460ff1916600117905594548251908152928301949094529192917f41ddb298124e0da68871b0019ae3694217bfe6d6b113248eb257552eec74268e91016109f2565b600080516020612ce783398151915261109b81611556565b816110da5760405162461bcd60e51b815260206004820152600f60248201526e496e76616c6964207479706555524960881b604482015260640161071e565b6009805461ffff169060006110ee83612a5a565b82546101009290920a61ffff818102199093169183160217909155600954166000908152600b6020526040902061112791508484612227565b5060095460405133917fadd3eb4561a4fd4de77bdc61981a52d574518ca58af23209a9d827254388abf19161093a9161ffff1690879087906129f1565b61116e3383611601565b61118a5760405162461bcd60e51b815260040161071e9061297b565b610a1684848484611951565b600080516020612ce78339815191526111ae81611556565b6111b782611833565b6111d35760405162461bcd60e51b815260040161071e906129c8565b60005b8351811015610a16576112028482815181106111f4576111f46128e1565b602002602001015184610f0a565b6001016111d6565b606061121582611486565b600061122c60408051602081019091526000815290565b9050600081511161124c5760405180602001604052806000815250610ebe565b8061125684611984565b604051602001611267929190612a7b565b6040516020818303038152906040529392505050565b60008181526007602052604081206105eb90611a85565b600080516020612ce78339815191526112ac81611556565b6112b582611833565b6112d15760405162461bcd60e51b815260040161071e906129c8565b6000838152600260205260409020546001600160a01b03166113355760405162461bcd60e51b815260206004820152601a60248201527f464f5242494444454e3a20496e76616c696420746f6b656e4964000000000000604482015260640161071e565b6000838152600d6020908152604091829020805461ffff191661ffff86169081179091558251868152918201527f6ddfe9db30cf58862bb534375072568ccc4a9bac7cd79e26252b116f6b3be36a910160405180910390a1505050565b6000828152600660205260409020600101546113ad81611556565b6107bf8383611811565b6060600a8054610600906128a7565b6113d08282610ec5565b610aec5760008281526006602090815260408083206001600160a01b03851684529091529020805460ff191660011790556114083390565b6001600160a01b0316816001600160a01b0316837f2f8788117e7eff1d82e926ec794901d17c78024a50270940304540a733656f0d60405160405180910390a45050565b6000610ebe836001600160a01b038416611a8f565b60006001600160e01b03198216635a05180f60e01b14806105eb57506105eb82611ade565b6000818152600260205260409020546001600160a01b03166114e55760405162461bcd60e51b8152602060048201526018602482015277115490cdcc8c4e881a5b9d985b1a59081d1bdad95b88125160421b604482015260640161071e565b50565b600081815260046020526040902080546001600160a01b0319166001600160a01b038416908117909155819061151d82610cc3565b6001600160a01b03167f8c5be1e5ebec7d5bd14f71427d1e84f3dd0314c0f7b2291e5b200ac8c7c3b92560405160405180910390a45050565b6114e58133611b03565b600061156b82610cc3565b905061157981600084611b5c565b61158282610cc3565b600083815260046020908152604080832080546001600160a01b03199081169091556001600160a01b0385168085526003845282852080546000190190558785526002909352818420805490911690555192935084927fddf252ad1be2c89b69c2b068fc378daa952ba7f163c4a11628f55a4df523b3ef908390a45050565b60008061160d83610cc3565b9050806001600160a01b0316846001600160a01b0316148061165457506001600160a01b0380821660009081526005602090815260408083209388168352929052205460ff165b806116785750836001600160a01b031661166d84610683565b6001600160a01b0316145b949350505050565b826001600160a01b031661169382610cc3565b6001600160a01b0316146116b95760405162461bcd60e51b815260040161071e90612aaa565b6001600160a01b03821661171b5760405162461bcd60e51b8152602060048201526024808201527f4552433732313a207472616e7366657220746f20746865207a65726f206164646044820152637265737360e01b606482015260840161071e565b611726838383611b5c565b826001600160a01b031661173982610cc3565b6001600160a01b03161461175f5760405162461bcd60e51b815260040161071e90612aaa565b600081815260046020908152604080832080546001600160a01b03199081169091556001600160a01b0387811680865260038552838620805460001901905590871680865283862080546001019055868652600290945282852080549092168417909155905184937fddf252ad1be2c89b69c2b068fc378daa952ba7f163c4a11628f55a4df523b3ef91a4505050565b6117f982826113c6565b60008281526007602052604090206107bf908261144c565b61181b8282611bc5565b60008281526007602052604090206107bf9082611c2c565b6000808261ffff161180156105eb57506009546118559061ffff166001612aef565b61ffff168261ffff161092915050565b6000610ebe8383611c41565b816001600160a01b0316836001600160a01b0316036118d25760405162461bcd60e51b815260206004820152601960248201527f4552433732313a20617070726f766520746f2063616c6c657200000000000000604482015260640161071e565b6001600160a01b03838116600081815260056020908152604080832094871680845294825291829020805460ff191686151590811790915591519182527f17307eab39ab6107e8899845ad3d59bd9653f200f220920489ca2b5937696c3191016109f2565b610aec828260405180602001604052806000815250611c6b565b61195c848484611680565b61196884848484611c9e565b610a165760405162461bcd60e51b815260040161071e90612b0c565b6060816000036119ab5750506040805180820190915260018152600360fc1b602082015290565b8160005b81156119d557806119bf81612a41565b91506119ce9050600a83612b74565b91506119af565b60008167ffffffffffffffff8111156119f0576119f06123bd565b6040519080825280601f01601f191660200182016040528015611a1a576020820181803683370190505b5090505b841561167857611a2f600183612b88565b9150611a3c600a86612b9f565b611a47906030612bb3565b60f81b818381518110611a5c57611a5c6128e1565b60200101906001600160f81b031916908160001a905350611a7e600a86612b74565b9450611a1e565b60006105eb825490565b6000818152600183016020526040812054611ad6575081546001818101845560008481526020808220909301849055845484825282860190935260409020919091556105eb565b5060006105eb565b60006001600160e01b03198216637965db0b60e01b14806105eb57506105eb82611d9f565b611b0d8282610ec5565b610aec57611b1a81611def565b611b25836020611e01565b604051602001611b36929190612bcb565b60408051601f198184030181529082905262461bcd60e51b825261071e9160040161234b565b6001600160a01b0382161580611b7957506001600160a01b038316155b6107bf5760405162461bcd60e51b815260206004820152601d60248201527f5468697320746f6b656e2063616e206f6e6c79206265206275726e6564000000604482015260640161071e565b611bcf8282610ec5565b15610aec5760008281526006602090815260408083206001600160a01b0385168085529252808320805460ff1916905551339285917ff6391f5c32d9c69d2a47ea670b442974b53935d1edc7fd64eb21e047a839171b9190a45050565b6000610ebe836001600160a01b038416611f9d565b6000826000018281548110611c5857611c586128e1565b9060005260206000200154905092915050565b611c758383612090565b611c826000848484611c9e565b6107bf5760405162461bcd60e51b815260040161071e90612b0c565b60006001600160a01b0384163b15611d9457604051630a85bd0160e11b81526001600160a01b0385169063150b7a0290611ce2903390899088908890600401612c40565b6020604051808303816000875af1925050508015611d1d575060408051601f3d908101601f19168201909252611d1a91810190612c7d565b60015b611d7a573d808015611d4b576040519150601f19603f3d011682016040523d82523d6000602084013e611d50565b606091505b508051600003611d725760405162461bcd60e51b815260040161071e90612b0c565b805181602001fd5b6001600160e01b031916630a85bd0160e11b149050611678565b506001949350505050565b60006001600160e01b031982166380ac58cd60e01b1480611dd057506001600160e01b03198216635b5e139f60e01b145b806105eb57506301ffc9a760e01b6001600160e01b03198316146105eb565b60606105eb6001600160a01b03831660145b60606000611e10836002612c9a565b611e1b906002612bb3565b67ffffffffffffffff811115611e3357611e336123bd565b6040519080825280601f01601f191660200182016040528015611e5d576020820181803683370190505b509050600360fc1b81600081518110611e7857611e786128e1565b60200101906001600160f81b031916908160001a905350600f60fb1b81600181518110611ea757611ea76128e1565b60200101906001600160f81b031916908160001a9053506000611ecb846002612c9a565b611ed6906001612bb3565b90505b6001811115611f4e576f181899199a1a9b1b9c1cb0b131b232b360811b85600f1660108110611f0a57611f0a6128e1565b1a60f81b828281518110611f2057611f206128e1565b60200101906001600160f81b031916908160001a90535060049490941c93611f4781612cb9565b9050611ed9565b508315610ebe5760405162461bcd60e51b815260206004820181905260248201527f537472696e67733a20686578206c656e67746820696e73756666696369656e74604482015260640161071e565b60008181526001830160205260408120548015612086576000611fc1600183612b88565b8554909150600090611fd590600190612b88565b905081811461203a576000866000018281548110611ff557611ff56128e1565b9060005260206000200154905080876000018481548110612018576120186128e1565b6000918252602080832090910192909255918252600188019052604090208390555b855486908061204b5761204b612cd0565b6001900381819060005260206000200160009055905585600101600086815260200190815260200160002060009055600193505050506105eb565b60009150506105eb565b6001600160a01b0382166120e65760405162461bcd60e51b815260206004820181905260248201527f4552433732313a206d696e7420746f20746865207a65726f2061646472657373604482015260640161071e565b6000818152600260205260409020546001600160a01b03161561214b5760405162461bcd60e51b815260206004820152601c60248201527f4552433732313a20746f6b656e20616c7265616479206d696e74656400000000604482015260640161071e565b61215760008383611b5c565b6000818152600260205260409020546001600160a01b0316156121bc5760405162461bcd60e51b815260206004820152601c60248201527f4552433732313a20746f6b656e20616c7265616479206d696e74656400000000604482015260640161071e565b6001600160a01b038216600081815260036020908152604080832080546001019055848352600290915280822080546001600160a01b0319168417905551839291907fddf252ad1be2c89b69c2b068fc378daa952ba7f163c4a11628f55a4df523b3ef908290a45050565b828054612233906128a7565b90600052602060002090601f016020900481019282612255576000855561229b565b82601f1061226e5782800160ff1982351617855561229b565b8280016001018555821561229b579182015b8281111561229b578235825591602001919060010190612280565b506122a79291506122ab565b5090565b5b808211156122a757600081556001016122ac565b6001600160e01b0319811681146114e557600080fd5b6000602082840312156122e857600080fd5b8135610ebe816122c0565b60005b8381101561230e5781810151838201526020016122f6565b83811115610a165750506000910152565b600081518084526123378160208601602086016122f3565b601f01601f19169290920160200192915050565b602081526000610ebe602083018461231f565b60006020828403121561237057600080fd5b5035919050565b80356001600160a01b038116811461238e57600080fd5b919050565b600080604083850312156123a657600080fd5b6123af83612377565b946020939093013593505050565b634e487b7160e01b600052604160045260246000fd5b604051601f8201601f1916810167ffffffffffffffff811182821017156123fc576123fc6123bd565b604052919050565b600067ffffffffffffffff82111561241e5761241e6123bd565b5060051b60200190565b6000602080838503121561243b57600080fd5b823567ffffffffffffffff81111561245257600080fd5b8301601f8101851361246357600080fd5b803561247661247182612404565b6123d3565b81815260059190911b8201830190838101908783111561249557600080fd5b928401925b828410156124b35783358252928401929084019061249a565b979650505050505050565b60008083601f8401126124d057600080fd5b50813567ffffffffffffffff8111156124e857600080fd5b60208301915083602082850101111561250057600080fd5b9250929050565b6000806020838503121561251a57600080fd5b823567ffffffffffffffff81111561253157600080fd5b61253d858286016124be565b90969095509350505050565b60008060006060848603121561255e57600080fd5b61256784612377565b925061257560208501612377565b9150604084013590509250925092565b6000806040838503121561259857600080fd5b823591506125a860208401612377565b90509250929050565b803561ffff8116811461238e57600080fd5b6000602082840312156125d557600080fd5b610ebe826125b1565b600080604083850312156125f157600080fd5b6125fa836125b1565b91506125a860208401612377565b60006020828403121561261a57600080fd5b610ebe82612377565b60008060006040848603121561263857600080fd5b612641846125b1565b9250602084013567ffffffffffffffff81111561265d57600080fd5b612669868287016124be565b9497909650939450505050565b6000806040838503121561268957600080fd5b50508035926020909101359150565b600080604083850312156126ab57600080fd5b6126b483612377565b9150602083013580151581146126c957600080fd5b809150509250929050565b600080604083850312156126e757600080fd5b6126f083612377565b91506125a8602084016125b1565b6000806000806080858703121561271457600080fd5b61271d85612377565b9350602061272c818701612377565b935060408601359250606086013567ffffffffffffffff8082111561275057600080fd5b818801915088601f83011261276457600080fd5b813581811115612776576127766123bd565b612788601f8201601f191685016123d3565b9150808252898482850101111561279e57600080fd5b808484018584013760008482840101525080935050505092959194509250565b600080604083850312156127d157600080fd5b823567ffffffffffffffff8111156127e857600080fd5b8301601f810185136127f957600080fd5b8035602061280961247183612404565b82815260059290921b8301810191818101908884111561282857600080fd5b938201935b8385101561284d5761283e85612377565b8252938201939082019061282d565b955061285c90508682016125b1565b93505050509250929050565b6000806040838503121561287b57600080fd5b823591506125a8602084016125b1565b6000806040838503121561289e57600080fd5b6125fa83612377565b600181811c908216806128bb57607f821691505b6020821081036128db57634e487b7160e01b600052602260045260246000fd5b50919050565b634e487b7160e01b600052603260045260246000fd5b604080825283519082018190526000906020906060840190828701845b828110156129395781516001600160a01b031684529284019290840190600101612914565b5050508381038285015284518082528583019183019060005b8181101561296e57835183529284019291840191600101612952565b5090979650505050505050565b6020808252602d908201527f4552433732313a2063616c6c6572206973206e6f7420746f6b656e206f776e6560408201526c1c881bdc88185c1c1c9bdd9959609a1b606082015260800190565b6020808252600f908201526e496e76616c6964205342207479706560881b604082015260600190565b61ffff8416815260406020820152816040820152818360608301376000818301606090810191909152601f909201601f1916010192915050565b634e487b7160e01b600052601160045260246000fd5b600060018201612a5357612a53612a2b565b5060010190565b600061ffff808316818103612a7157612a71612a2b565b6001019392505050565b60008351612a8d8184602088016122f3565b835190830190612aa18183602088016122f3565b01949350505050565b60208082526025908201527f4552433732313a207472616e736665722066726f6d20696e636f72726563742060408201526437bbb732b960d91b606082015260800190565b600061ffff808316818516808303821115612aa157612aa1612a2b565b60208082526032908201527f4552433732313a207472616e7366657220746f206e6f6e20455243373231526560408201527131b2b4bb32b91034b6b83632b6b2b73a32b960711b606082015260800190565b634e487b7160e01b600052601260045260246000fd5b600082612b8357612b83612b5e565b500490565b600082821015612b9a57612b9a612a2b565b500390565b600082612bae57612bae612b5e565b500690565b60008219821115612bc657612bc6612a2b565b500190565b7f416363657373436f6e74726f6c3a206163636f756e7420000000000000000000815260008351612c038160178501602088016122f3565b7001034b99036b4b9b9b4b733903937b6329607d1b6017918401918201528351612c348160288401602088016122f3565b01602801949350505050565b6001600160a01b0385811682528416602082015260408101839052608060608201819052600090612c739083018461231f565b9695505050505050565b600060208284031215612c8f57600080fd5b8151610ebe816122c0565b6000816000190483118215151615612cb457612cb4612a2b565b500290565b600081612cc857612cc8612a2b565b506000190190565b634e487b7160e01b600052603160045260246000fdfe663244bfd3de81cc055674c09ade24d4646b75863d5d9dd77d1544f2eb5acc26a2646970667358221220f08e55da171515bf06fd800d183e401cfda303c0996b531ea716ef7fc714412664736f6c634300080d0033663244bfd3de81cc055674c09ade24d4646b75863d5d9dd77d1544f2eb5acc26",
    "linkReferences": {}
  },
  "methodIdentifiers": {
    "DEFAULT_ADMIN_ROLE()": "a217fddf",
    "DELEGATE_ROLE()": "c0ba241b",
    "approve(address,uint256)": "095ea7b3",
    "balanceOf(address)": "70a08231",
    "batchMint(address[],uint16)": "bf5c2c88",
    "batchRevoke(uint256[])": "1c02a97c",
    "burn(uint256)": "42966c68",
    "contractURI()": "e8a3d485",
    "getApproved(uint256)": "081812fc",
    "getRoleAdmin(bytes32)": "248a9ca3",
    "getRoleMember(bytes32,uint256)": "9010d07c",
    "getRoleMemberCount(bytes32)": "ca15c873",
    "grantRole(bytes32,address)": "2f2ff15d",
    "hasRole(bytes32,address)": "91d14854",
    "isApprovedForAll(address,address)": "e985e9c5",
    "mint(address,uint16)": "ad0be4bd",
    "mintTokenType(bytes)": "b64da769",
    "name()": "06fdde03",
    "ownerOf(uint256)": "6352211e",
    "renounceRole(bytes32,address)": "36568abe",
    "revoke(uint256)": "20c5429b",
    "revokeRole(bytes32,address)": "d547741f",
    "safeTransferFrom(address,address,uint256)": "42842e0e",
    "safeTransferFrom(address,address,uint256,bytes)": "b88d4fde",
    "setApprovalForAll(address,bool)": "a22cb465",
    "setContractURI(bytes)": "2329319a",
    "supportsInterface(bytes4)": "01ffc9a7",
    "symbol()": "95d89b41",
    "tokenCID(uint256)": "6972fbb8",
    "tokenIdToType(uint256)": "356ee335",
    "tokenToMinter(uint256)": "79cdf6ad",
    "tokenURI(uint256)": "c87b56dd",
    "totalSupply()": "18160ddd",
    "totalTypes()": "f15df2e5",
    "transferFrom(address,address,uint256)": "23b872dd",
    "typeToSoul(uint16,address)": "4d9d061d",
    "typeURI(uint16)": "4b185b60",
    "updateTokenIdType(uint256,uint16)": "cf4fc7bb",
    "updateTypeURI(uint16,bytes)": "8f6dbbbb"
  },
  "id": 23
}