{
  "abi": [
    {
      "inputs": [
        {
          "internalType": "address",
          "name": "forwarder",
          "type": "address"
        }
      ],
      "stateMutability": "nonpayable",
      "type": "constructor"
    },
    {
      "anonymous": false,
      "inputs": [
        {
          "indexed": true,
          "internalType": "address",
          "name": "org",
          "type": "address"
        }
      ],
      "name": "Refuted",
      "type": "event"
    },
    {
      "anonymous": false,
      "inputs": [
        {
          "indexed": true,
          "internalType": "address",
          "name": "token",
          "type": "address"
        },
        {
          "indexed": true,
          "internalType": "address",
          "name": "owner",
          "type": "address"
        }
      ],
      "name": "TokenCreated",
      "type": "event"
    },
    {
      "anonymous": false,
      "inputs": [
        {
          "indexed": true,
          "internalType": "address",
          "name": "org",
          "type": "address"
        }
      ],
      "name": "Verified",
      "type": "event"
    },
    {
      "inputs": [
        {
          "internalType": "string",
          "name": "_name",
          "type": "string"
        },
        {
          "internalType": "string",
          "name": "_symbol",
          "type": "string"
        },
        {
          "internalType": "string",
          "name": "_metadata",
          "type": "string"
        }
      ],
      "name": "deployToken",
      "outputs": [
        {
          "internalType": "address",
          "name": "token",
          "type": "address"
        }
      ],
      "stateMutability": "nonpayable",
      "type": "function"
    },
    {
      "inputs": [],
      "name": "getTrustedForwarder",
      "outputs": [
        {
          "internalType": "address",
          "name": "forwarder",
          "type": "address"
        }
      ],
      "stateMutability": "view",
      "type": "function"
    },
    {
      "inputs": [
        {
          "internalType": "address",
          "name": "forwarder",
          "type": "address"
        }
      ],
      "name": "isTrustedForwarder",
      "outputs": [
        {
          "internalType": "bool",
          "name": "",
          "type": "bool"
        }
      ],
      "stateMutability": "view",
      "type": "function"
    },
    {
      "inputs": [],
      "name": "owner",
      "outputs": [
        {
          "internalType": "address",
          "name": "",
          "type": "address"
        }
      ],
      "stateMutability": "view",
      "type": "function"
    },
    {
      "inputs": [
        {
          "internalType": "address",
          "name": "org",
          "type": "address"
        }
      ],
      "name": "refute",
      "outputs": [],
      "stateMutability": "nonpayable",
      "type": "function"
    },
    {
      "inputs": [
        {
          "internalType": "address",
          "name": "",
          "type": "address"
        }
      ],
      "name": "verified",
      "outputs": [
        {
          "internalType": "bool",
          "name": "",
          "type": "bool"
        }
      ],
      "stateMutability": "view",
      "type": "function"
    },
    {
      "inputs": [
        {
          "internalType": "address",
          "name": "org",
          "type": "address"
        }
      ],
      "name": "verify",
      "outputs": [],
      "stateMutability": "nonpayable",
      "type": "function"
    }
  ],
  "bytecode": {
    "object": "0x608060405234801561001057600080fd5b5060405161369238038061369283398101604081905261002f9161009f565b61003761006b565b600180546001600160a01b039283166001600160a01b031991821617909155600080549390921692169190911790556100cf565b60006014361080159061008857506000546001600160a01b031633145b1561009a575060131936013560601c90565b503390565b6000602082840312156100b157600080fd5b81516001600160a01b03811681146100c857600080fd5b9392505050565b6135b4806100de6000396000f3fe60806040523480156200001157600080fd5b5060043610620000875760003560e01c806363a9c3d7116200006257806363a9c3d7146200011c5780638da5cb5b1462000135578063ce1b815f1462000149578063dcbf6b14146200015b57600080fd5b80630db065f4146200008c578063457902d214620000c7578063572b6c0514620000f7575b600080fd5b620000b26200009d36600462000500565b60026020526000908152604090205460ff1681565b60405190151581526020015b60405180910390f35b620000de620000d8366004620005dd565b62000172565b6040516001600160a01b039091168152602001620000be565b620000b26200010836600462000500565b6000546001600160a01b0391821691161490565b620001336200012d36600462000500565b620002a4565b005b600154620000de906001600160a01b031681565b6000546001600160a01b0316620000de565b620001336200016c36600462000500565b62000416565b600080604051806020016200018790620004f2565b601f1982820381018352601f90910116604052858585620001a7620004bc565b604051602001620001bc9493929190620006d0565b60408051601f1981840301815290829052620001dc929160200162000729565b60405160208183030381529060405290506000620001f9620004bc565b60405160200162000222919060609190911b6bffffffffffffffffffffffff1916815260140190565b604051602081830303815290604052805190602001209050808251602084016000f59250823b6200025257600080fd5b6200025c620004bc565b6001600160a01b0316836001600160a01b03167fd5f9bdf12adf29dab0248c349842c3822d53ae2bb4f36352f301630d018c813960405160405180910390a350509392505050565b6040516301ffc9a760e01b815263063eef6760e51b60048201526001600160a01b038216906301ffc9a790602401602060405180830381865afa158015620002f0573d6000803e3d6000fd5b505050506040513d601f19601f820116820180604052508101906200031691906200075c565b15156001146200036d5760405162461bcd60e51b815260206004820152601e60248201527f494465736f6320696e74657266616365206e6f7420737570706f72746564000060448201526064015b60405180910390fd5b6001546001600160a01b031662000383620004bc565b6001600160a01b031614620003ca5760405162461bcd60e51b815260206004820152600c60248201526b155b905d5d1a1bdc9a5e995960a21b604482015260640162000364565b6001600160a01b038116600081815260026020526040808220805460ff19166001179055517f6a6455914f452787eb3985452aceedc1000fb545e394eb3b370e3d08958e0a5b9190a250565b6001546001600160a01b03166200042c620004bc565b6001600160a01b031614620004735760405162461bcd60e51b815260206004820152600c60248201526b155b905d5d1a1bdc9a5e995960a21b604482015260640162000364565b6001600160a01b038116600081815260026020526040808220805460ff19169055517f0447b747642c4670e25ad3282fd36423e06b0c46fb64bddad47ad787867802629190a250565b600060143610801590620004da57506000546001600160a01b031633145b15620004ed575060131936013560601c90565b503390565b612dfe806200078183390190565b6000602082840312156200051357600080fd5b81356001600160a01b03811681146200052b57600080fd5b9392505050565b634e487b7160e01b600052604160045260246000fd5b600082601f8301126200055a57600080fd5b813567ffffffffffffffff8082111562000578576200057862000532565b604051601f8301601f19908116603f01168101908282118183101715620005a357620005a362000532565b81604052838152866020858801011115620005bd57600080fd5b836020870160208301376000602085830101528094505050505092915050565b600080600060608486031215620005f357600080fd5b833567ffffffffffffffff808211156200060c57600080fd5b6200061a8783880162000548565b945060208601359150808211156200063157600080fd5b6200063f8783880162000548565b935060408601359150808211156200065657600080fd5b50620006658682870162000548565b9150509250925092565b60005b838110156200068c57818101518382015260200162000672565b838111156200069c576000848401525b50505050565b60008151808452620006bc8160208601602086016200066f565b601f01601f19169290920160200192915050565b608081526000620006e56080830187620006a2565b8281036020840152620006f98187620006a2565b905082810360408401526200070f8186620006a2565b91505060018060a01b038316606083015295945050505050565b600083516200073d8184602088016200066f565b835190830190620007538183602088016200066f565b01949350505050565b6000602082840312156200076f57600080fd5b815180151581146200052b57600080fdfe60806040523480156200001157600080fd5b5060405162002dfe38038062002dfe8339810160408190526200003491620003fb565b8351849084906200004d90600090602085019062000288565b5080516200006390600190602084019062000288565b50506009805462010000600160b01b0319163362010000021790555081516200009490600a90602085019062000288565b50620000b160008051602062002dde8339815191526000620000e3565b620000cc60008051602062002dde833981519152826200012e565b620000d96000826200012e565b50505050620004ea565b600082815260066020526040808220600101805490849055905190918391839186917fbd79b86ffe0ab8e8776151514217cd7cacd52c909f66475c3af44e129f0b00ff9190a4505050565b6200014582826200017160201b620011931760201c565b60008281526007602090815260409091206200016c9183906200121962000216821b17901c565b505050565b60008281526006602090815260408083206001600160a01b038516845290915290205460ff16620002125760008281526006602090815260408083206001600160a01b03851684529091529020805460ff19166001179055620001d13390565b6001600160a01b0316816001600160a01b0316837f2f8788117e7eff1d82e926ec794901d17c78024a50270940304540a733656f0d60405160405180910390a45b5050565b60006200022d836001600160a01b03841662000236565b90505b92915050565b60008181526001830160205260408120546200027f5750815460018181018455600084815260208082209093018490558454848252828601909352604090209190915562000230565b50600062000230565b8280546200029690620004ae565b90600052602060002090601f016020900481019282620002ba576000855562000305565b82601f10620002d557805160ff191683800117855562000305565b8280016001018555821562000305579182015b8281111562000305578251825591602001919060010190620002e8565b506200031392915062000317565b5090565b5b8082111562000313576000815560010162000318565b634e487b7160e01b600052604160045260246000fd5b600082601f8301126200035657600080fd5b81516001600160401b03808211156200037357620003736200032e565b604051601f8301601f19908116603f011681019082821181831017156200039e576200039e6200032e565b81604052838152602092508683858801011115620003bb57600080fd5b600091505b83821015620003df5785820183015181830184015290820190620003c0565b83821115620003f15760008385830101525b9695505050505050565b600080600080608085870312156200041257600080fd5b84516001600160401b03808211156200042a57600080fd5b620004388883890162000344565b955060208701519150808211156200044f57600080fd5b6200045d8883890162000344565b945060408701519150808211156200047457600080fd5b50620004838782880162000344565b606087015190935090506001600160a01b0381168114620004a357600080fd5b939692955090935050565b600181811c90821680620004c357607f821691505b602082108103620004e457634e487b7160e01b600052602260045260246000fd5b50919050565b6128e480620004fa6000396000f3fe608060405234801561001057600080fd5b50600436106102275760003560e01c806370a0823111610130578063b88d4fde116100b8578063cf4fc7bb1161007c578063cf4fc7bb146104fc578063d547741f1461050f578063e8a3d48514610522578063e985e9c51461052a578063f15df2e51461056657600080fd5b8063b88d4fde1461049b578063bf5c2c88146104ae578063c0ba241b146104c1578063c87b56dd146104d6578063ca15c873146104e957600080fd5b806395d89b41116100ff57806395d89b4114610452578063a217fddf1461045a578063a22cb46514610462578063a703ba7f14610475578063ad0be4bd1461048857600080fd5b806370a08231146104065780639010d07c1461041957806391d148541461042c578063938e3d7b1461043f57600080fd5b80632f2ff15d116101b35780633cfaa64e116101825780633cfaa64e146103a757806342842e0e146103ba57806342966c68146103cd5780634b185b60146103e05780636352211e146103f357600080fd5b80632f2ff15d1461031c578063356ee3351461032f57806336568abe146103665780633c2a0a0c1461037957600080fd5b806318160ddd116101fa57806318160ddd146102a95780631c02a97c146102c057806320c5429b146102d357806323b872dd146102e6578063248a9ca3146102f957600080fd5b806301ffc9a71461022c57806306fdde0314610254578063081812fc14610269578063095ea7b314610294575b600080fd5b61023f61023a366004611faa565b610574565b60405190151581526020015b60405180910390f35b61025c6105ba565b60405161024b919061201f565b61027c610277366004612032565b61064c565b6040516001600160a01b03909116815260200161024b565b6102a76102a2366004612067565b610673565b005b6102b260085481565b60405190815260200161024b565b6102a76102ce3660046120fc565b61078d565b6102a76102e1366004612032565b6107db565b6102a76102f4366004612192565b610883565b6102b2610307366004612032565b60009081526006602052604090206001015490565b6102a761032a3660046121ce565b6108b4565b61035361033d366004612032565b600c6020526000908152604090205461ffff1681565b60405161ffff909116815260200161024b565b6102a76103743660046121ce565b6108d9565b61023f61038736600461220c565b600d60209081526000928352604080842090915290825290205460ff1681565b6102a76103b53660046122ae565b610957565b6102a76103c8366004612192565b610a2d565b6102a76103db366004612032565b610a48565b61025c6103ee3660046122fc565b610b3c565b61027c610401366004612032565b610be3565b6102b2610414366004612317565b610c43565b61027c610427366004612332565b610cc9565b61023f61043a3660046121ce565b610ce8565b6102a761044d366004612354565b610d13565b61025c610d31565b6102b2600081565b6102a7610470366004612389565b610d40565b6102a7610483366004612354565b610d4b565b6102a76104963660046123c5565b610e42565b6102a76104a93660046123ef565b610f9d565b6102a76104bc36600461246b565b610fd5565b6102b260008051602061288f83398151915281565b61025c6104e4366004612032565b611024565b6102b26104f7366004612032565b611052565b6102a761050a366004612515565b611069565b6102a761051d3660046121ce565b61115f565b61025c611184565b61023f610538366004612538565b6001600160a01b03918216600090815260056020908152604080832093909416825291909152205460ff1690565b6009546103539061ffff1681565b60006001600160e01b0319821663063eef6760e51b14806105a557506001600160e01b03198216635a05180f60e01b145b806105b457506105b48261122e565b92915050565b6060600080546105c990612554565b80601f01602080910402602001604051908101604052809291908181526020018280546105f590612554565b80156106425780601f1061061757610100808354040283529160200191610642565b820191906000526020600020905b81548152906001019060200180831161062557829003601f168201915b5050505050905090565b600061065782611253565b506000908152600460205260409020546001600160a01b031690565b600061067e82610be3565b9050806001600160a01b0316836001600160a01b0316036106f05760405162461bcd60e51b815260206004820152602160248201527f4552433732313a20617070726f76616c20746f2063757272656e74206f776e656044820152603960f91b60648201526084015b60405180910390fd5b336001600160a01b038216148061070c575061070c8133610538565b61077e5760405162461bcd60e51b815260206004820152603d60248201527f4552433732313a20617070726f76652063616c6c6572206973206e6f7420746f60448201527f6b656e206f776e6572206f7220617070726f76656420666f7220616c6c00000060648201526084016106e7565b61078883836112b5565b505050565b60008051602061288f8339815191526107a581611323565b60005b8251811015610788576107d38382815181106107c6576107c661258e565b60200260200101516107db565b6001016107a8565b60008051602061288f8339815191526107f381611323565b60006107fe83610be3565b90506108098361132d565b6000838152600c60208181526040808420805461ffff168552600d83528185206001600160a01b038716808752908452828620805460ff1916905588865293909252815461ffff191690915551859233917f1b0d5fb22a7bd6488427342953b1f43743eda17130144de1ea68a9058355d3fb9190a4505050565b61088d33826113ce565b6108a95760405162461bcd60e51b81526004016106e7906125a4565b61078883838361144d565b6000828152600660205260409020600101546108cf81611323565b61078883836115bc565b6001600160a01b03811633146109495760405162461bcd60e51b815260206004820152602f60248201527f416363657373436f6e74726f6c3a2063616e206f6e6c792072656e6f756e636560448201526e103937b632b9903337b91039b2b63360891b60648201526084016106e7565b61095382826115de565b5050565b600061096281611323565b61096b83611600565b6109875760405162461bcd60e51b81526004016106e7906125f1565b60008251116109ca5760405162461bcd60e51b815260206004820152600f60248201526e496e76616c6964207479706555524960881b60448201526064016106e7565b61ffff83166000908152600b6020908152604090912083516109ee92850190611efb565b507f304e696a7fa05e5e3ba004dbd79df964b1b3d5db091a49d05cc3be105bf6b28d8383604051610a2092919061261a565b60405180910390a1505050565b61078883838360405180602001604052806000815250610f9d565b6000610a5382610be3565b90506001600160a01b0381163314610ab95760405162461bcd60e51b815260206004820152602360248201527f4f6e6c7920746865206f776e65722063616e206275726e20746865697220746f60448201526235b2b760e91b60648201526084016106e7565b610ac28261132d565b6000828152600c60208181526040808420805461ffff168552600d835281852033808752908452828620805460ff1916905587865293909252815461ffff19169091555184926001600160a01b03851692917f1b0d5fb22a7bd6488427342953b1f43743eda17130144de1ea68a9058355d3fb9190a45050565b61ffff81166000908152600b60205260409020805460609190610b5e90612554565b80601f0160208091040260200160405190810160405280929190818152602001828054610b8a90612554565b8015610bd75780601f10610bac57610100808354040283529160200191610bd7565b820191906000526020600020905b815481529060010190602001808311610bba57829003601f168201915b50505050509050919050565b6000818152600260205260408120546001600160a01b0316806105b45760405162461bcd60e51b8152602060048201526018602482015277115490cdcc8c4e881a5b9d985b1a59081d1bdad95b88125160421b60448201526064016106e7565b60006001600160a01b038216610cad5760405162461bcd60e51b815260206004820152602960248201527f4552433732313a2061646472657373207a65726f206973206e6f7420612076616044820152683634b21037bbb732b960b91b60648201526084016106e7565b506001600160a01b031660009081526003602052604090205490565b6000828152600760205260408120610ce19083611632565b9392505050565b60009182526006602090815260408084206001600160a01b0393909316845291905290205460ff1690565b6000610d1e81611323565b815161078890600a906020850190611efb565b6060600180546105c990612554565b61095333838361163e565b60008051602061288f833981519152610d6381611323565b6000825111610da65760405162461bcd60e51b815260206004820152600f60248201526e496e76616c6964207479706555524960881b60448201526064016106e7565b6009805461ffff16906000610dba8361264d565b82546101009290920a61ffff818102199093169183160217909155600954166000908152600b602090815260409091208451610dfb93509091850190611efb565b5060095460405133917feee6d734ab3002f6fb2460eba7ece9dc144994f56daef931baad47e3d94ef31391610e369161ffff1690869061261a565b60405180910390a25050565b60008051602061288f833981519152610e5a81611323565b610e6382611600565b610e7f5760405162461bcd60e51b81526004016106e7906125f1565b61ffff82166000908152600d602090815260408083206001600160a01b038716845290915290205460ff161515600103610ef25760405162461bcd60e51b8152602060048201526014602482015273111d5c1b1a58d85d194818dc9959195b9d1a585b60621b60448201526064016106e7565b60088054906000610f028361266e565b9190505550610f138360085461170c565b600880546000908152600c60209081526040808320805461ffff191661ffff8816908117909155808452600d83528184206001600160a01b03891680865290845293829020805460ff19166001179055935490519384529233917f41ddb298124e0da68871b0019ae3694217bfe6d6b113248eb257552eec74268e910160405180910390a4505050565b610fa733836113ce565b610fc35760405162461bcd60e51b81526004016106e7906125a4565b610fcf84848484611726565b50505050565b60008051602061288f833981519152610fed81611323565b60005b8351811015610fcf5761101c84828151811061100e5761100e61258e565b602002602001015184610e42565b600101610ff0565b6000818152600c602090815260408083205461ffff168352600b9091529020805460609190610b5e90612554565b60008181526007602052604081206105b490611759565b60008051602061288f83398151915261108181611323565b61108a82611600565b6110a65760405162461bcd60e51b81526004016106e7906125f1565b6000838152600260205260409020546001600160a01b031661110a5760405162461bcd60e51b815260206004820152601a60248201527f464f5242494444454e3a20496e76616c696420746f6b656e496400000000000060448201526064016106e7565b6000838152600c6020908152604091829020805461ffff191661ffff86169081179091558251868152918201527f6ddfe9db30cf58862bb534375072568ccc4a9bac7cd79e26252b116f6b3be36a9101610a20565b60008281526006602052604090206001015461117a81611323565b61078883836115de565b6060600a80546105c990612554565b61119d8282610ce8565b6109535760008281526006602090815260408083206001600160a01b03851684529091529020805460ff191660011790556111d53390565b6001600160a01b0316816001600160a01b0316837f2f8788117e7eff1d82e926ec794901d17c78024a50270940304540a733656f0d60405160405180910390a45050565b6000610ce1836001600160a01b038416611763565b60006001600160e01b03198216635a05180f60e01b14806105b457506105b4826117b2565b6000818152600260205260409020546001600160a01b03166112b25760405162461bcd60e51b8152602060048201526018602482015277115490cdcc8c4e881a5b9d985b1a59081d1bdad95b88125160421b60448201526064016106e7565b50565b600081815260046020526040902080546001600160a01b0319166001600160a01b03841690811790915581906112ea82610be3565b6001600160a01b03167f8c5be1e5ebec7d5bd14f71427d1e84f3dd0314c0f7b2291e5b200ac8c7c3b92560405160405180910390a45050565b6112b281336117d7565b600061133882610be3565b905061134681600084611830565b61134f82610be3565b600083815260046020908152604080832080546001600160a01b03199081169091556001600160a01b0385168085526003845282852080546000190190558785526002909352818420805490911690555192935084927fddf252ad1be2c89b69c2b068fc378daa952ba7f163c4a11628f55a4df523b3ef908390a45050565b6000806113da83610be3565b9050806001600160a01b0316846001600160a01b0316148061142157506001600160a01b0380821660009081526005602090815260408083209388168352929052205460ff165b806114455750836001600160a01b031661143a8461064c565b6001600160a01b0316145b949350505050565b826001600160a01b031661146082610be3565b6001600160a01b0316146114865760405162461bcd60e51b81526004016106e790612687565b6001600160a01b0382166114e85760405162461bcd60e51b8152602060048201526024808201527f4552433732313a207472616e7366657220746f20746865207a65726f206164646044820152637265737360e01b60648201526084016106e7565b6114f3838383611830565b826001600160a01b031661150682610be3565b6001600160a01b03161461152c5760405162461bcd60e51b81526004016106e790612687565b600081815260046020908152604080832080546001600160a01b03199081169091556001600160a01b0387811680865260038552838620805460001901905590871680865283862080546001019055868652600290945282852080549092168417909155905184937fddf252ad1be2c89b69c2b068fc378daa952ba7f163c4a11628f55a4df523b3ef91a4505050565b6115c68282611193565b60008281526007602052604090206107889082611219565b6115e88282611899565b60008281526007602052604090206107889082611900565b6000808261ffff161180156105b457506009546116229061ffff1660016126cc565b61ffff168261ffff161092915050565b6000610ce18383611915565b816001600160a01b0316836001600160a01b03160361169f5760405162461bcd60e51b815260206004820152601960248201527f4552433732313a20617070726f766520746f2063616c6c65720000000000000060448201526064016106e7565b6001600160a01b03838116600081815260056020908152604080832094871680845294825291829020805460ff191686151590811790915591519182527f17307eab39ab6107e8899845ad3d59bd9653f200f220920489ca2b5937696c31910160405180910390a3505050565b61095382826040518060200160405280600081525061193f565b61173184848461144d565b61173d84848484611972565b610fcf5760405162461bcd60e51b81526004016106e7906126f2565b60006105b4825490565b60008181526001830160205260408120546117aa575081546001818101845560008481526020808220909301849055845484825282860190935260409020919091556105b4565b5060006105b4565b60006001600160e01b03198216637965db0b60e01b14806105b457506105b482611a73565b6117e18282610ce8565b610953576117ee81611ac3565b6117f9836020611ad5565b60405160200161180a929190612744565b60408051601f198184030181529082905262461bcd60e51b82526106e79160040161201f565b6001600160a01b038216158061184d57506001600160a01b038316155b6107885760405162461bcd60e51b815260206004820152601d60248201527f5468697320746f6b656e2063616e206f6e6c79206265206275726e656400000060448201526064016106e7565b6118a38282610ce8565b156109535760008281526006602090815260408083206001600160a01b0385168085529252808320805460ff1916905551339285917ff6391f5c32d9c69d2a47ea670b442974b53935d1edc7fd64eb21e047a839171b9190a45050565b6000610ce1836001600160a01b038416611c71565b600082600001828154811061192c5761192c61258e565b9060005260206000200154905092915050565b6119498383611d64565b6119566000848484611972565b6107885760405162461bcd60e51b81526004016106e7906126f2565b60006001600160a01b0384163b15611a6857604051630a85bd0160e11b81526001600160a01b0385169063150b7a02906119b69033908990889088906004016127b9565b6020604051808303816000875af19250505080156119f1575060408051601f3d908101601f191682019092526119ee918101906127f6565b60015b611a4e573d808015611a1f576040519150601f19603f3d011682016040523d82523d6000602084013e611a24565b606091505b508051600003611a465760405162461bcd60e51b81526004016106e7906126f2565b805181602001fd5b6001600160e01b031916630a85bd0160e11b149050611445565b506001949350505050565b60006001600160e01b031982166380ac58cd60e01b1480611aa457506001600160e01b03198216635b5e139f60e01b145b806105b457506301ffc9a760e01b6001600160e01b03198316146105b4565b60606105b46001600160a01b03831660145b60606000611ae4836002612813565b611aef906002612832565b67ffffffffffffffff811115611b0757611b07612091565b6040519080825280601f01601f191660200182016040528015611b31576020820181803683370190505b509050600360fc1b81600081518110611b4c57611b4c61258e565b60200101906001600160f81b031916908160001a905350600f60fb1b81600181518110611b7b57611b7b61258e565b60200101906001600160f81b031916908160001a9053506000611b9f846002612813565b611baa906001612832565b90505b6001811115611c22576f181899199a1a9b1b9c1cb0b131b232b360811b85600f1660108110611bde57611bde61258e565b1a60f81b828281518110611bf457611bf461258e565b60200101906001600160f81b031916908160001a90535060049490941c93611c1b8161284a565b9050611bad565b508315610ce15760405162461bcd60e51b815260206004820181905260248201527f537472696e67733a20686578206c656e67746820696e73756666696369656e7460448201526064016106e7565b60008181526001830160205260408120548015611d5a576000611c95600183612861565b8554909150600090611ca990600190612861565b9050818114611d0e576000866000018281548110611cc957611cc961258e565b9060005260206000200154905080876000018481548110611cec57611cec61258e565b6000918252602080832090910192909255918252600188019052604090208390555b8554869080611d1f57611d1f612878565b6001900381819060005260206000200160009055905585600101600086815260200190815260200160002060009055600193505050506105b4565b60009150506105b4565b6001600160a01b038216611dba5760405162461bcd60e51b815260206004820181905260248201527f4552433732313a206d696e7420746f20746865207a65726f206164647265737360448201526064016106e7565b6000818152600260205260409020546001600160a01b031615611e1f5760405162461bcd60e51b815260206004820152601c60248201527f4552433732313a20746f6b656e20616c7265616479206d696e7465640000000060448201526064016106e7565b611e2b60008383611830565b6000818152600260205260409020546001600160a01b031615611e905760405162461bcd60e51b815260206004820152601c60248201527f4552433732313a20746f6b656e20616c7265616479206d696e7465640000000060448201526064016106e7565b6001600160a01b038216600081815260036020908152604080832080546001019055848352600290915280822080546001600160a01b0319168417905551839291907fddf252ad1be2c89b69c2b068fc378daa952ba7f163c4a11628f55a4df523b3ef908290a45050565b828054611f0790612554565b90600052602060002090601f016020900481019282611f295760008555611f6f565b82601f10611f4257805160ff1916838001178555611f6f565b82800160010185558215611f6f579182015b82811115611f6f578251825591602001919060010190611f54565b50611f7b929150611f7f565b5090565b5b80821115611f7b5760008155600101611f80565b6001600160e01b0319811681146112b257600080fd5b600060208284031215611fbc57600080fd5b8135610ce181611f94565b60005b83811015611fe2578181015183820152602001611fca565b83811115610fcf5750506000910152565b6000815180845261200b816020860160208601611fc7565b601f01601f19169290920160200192915050565b602081526000610ce16020830184611ff3565b60006020828403121561204457600080fd5b5035919050565b80356001600160a01b038116811461206257600080fd5b919050565b6000806040838503121561207a57600080fd5b6120838361204b565b946020939093013593505050565b634e487b7160e01b600052604160045260246000fd5b604051601f8201601f1916810167ffffffffffffffff811182821017156120d0576120d0612091565b604052919050565b600067ffffffffffffffff8211156120f2576120f2612091565b5060051b60200190565b6000602080838503121561210f57600080fd5b823567ffffffffffffffff81111561212657600080fd5b8301601f8101851361213757600080fd5b803561214a612145826120d8565b6120a7565b81815260059190911b8201830190838101908783111561216957600080fd5b928401925b828410156121875783358252928401929084019061216e565b979650505050505050565b6000806000606084860312156121a757600080fd5b6121b08461204b565b92506121be6020850161204b565b9150604084013590509250925092565b600080604083850312156121e157600080fd5b823591506121f16020840161204b565b90509250929050565b803561ffff8116811461206257600080fd5b6000806040838503121561221f57600080fd5b612228836121fa565b91506121f16020840161204b565b600067ffffffffffffffff83111561225057612250612091565b612263601f8401601f19166020016120a7565b905082815283838301111561227757600080fd5b828260208301376000602084830101529392505050565b600082601f83011261229f57600080fd5b610ce183833560208501612236565b600080604083850312156122c157600080fd5b6122ca836121fa565b9150602083013567ffffffffffffffff8111156122e657600080fd5b6122f28582860161228e565b9150509250929050565b60006020828403121561230e57600080fd5b610ce1826121fa565b60006020828403121561232957600080fd5b610ce18261204b565b6000806040838503121561234557600080fd5b50508035926020909101359150565b60006020828403121561236657600080fd5b813567ffffffffffffffff81111561237d57600080fd5b6114458482850161228e565b6000806040838503121561239c57600080fd5b6123a58361204b565b9150602083013580151581146123ba57600080fd5b809150509250929050565b600080604083850312156123d857600080fd5b6123e18361204b565b91506121f1602084016121fa565b6000806000806080858703121561240557600080fd5b61240e8561204b565b935061241c6020860161204b565b925060408501359150606085013567ffffffffffffffff81111561243f57600080fd5b8501601f8101871361245057600080fd5b61245f87823560208401612236565b91505092959194509250565b6000806040838503121561247e57600080fd5b823567ffffffffffffffff81111561249557600080fd5b8301601f810185136124a657600080fd5b803560206124b6612145836120d8565b82815260059290921b830181019181810190888411156124d557600080fd5b938201935b838510156124fa576124eb8561204b565b825293820193908201906124da565b955061250990508682016121fa565b93505050509250929050565b6000806040838503121561252857600080fd5b823591506121f1602084016121fa565b6000806040838503121561254b57600080fd5b6122288361204b565b600181811c9082168061256857607f821691505b60208210810361258857634e487b7160e01b600052602260045260246000fd5b50919050565b634e487b7160e01b600052603260045260246000fd5b6020808252602d908201527f4552433732313a2063616c6c6572206973206e6f7420746f6b656e206f776e6560408201526c1c881bdc88185c1c1c9bdd9959609a1b606082015260800190565b6020808252600f908201526e496e76616c6964205342207479706560881b604082015260600190565b61ffff831681526040602082015260006114456040830184611ff3565b634e487b7160e01b600052601160045260246000fd5b600061ffff80831681810361266457612664612637565b6001019392505050565b60006001820161268057612680612637565b5060010190565b60208082526025908201527f4552433732313a207472616e736665722066726f6d20696e636f72726563742060408201526437bbb732b960d91b606082015260800190565b600061ffff8083168185168083038211156126e9576126e9612637565b01949350505050565b60208082526032908201527f4552433732313a207472616e7366657220746f206e6f6e20455243373231526560408201527131b2b4bb32b91034b6b83632b6b2b73a32b960711b606082015260800190565b7f416363657373436f6e74726f6c3a206163636f756e742000000000000000000081526000835161277c816017850160208801611fc7565b7001034b99036b4b9b9b4b733903937b6329607d1b60179184019182015283516127ad816028840160208801611fc7565b01602801949350505050565b6001600160a01b03858116825284166020820152604081018390526080606082018190526000906127ec90830184611ff3565b9695505050505050565b60006020828403121561280857600080fd5b8151610ce181611f94565b600081600019048311821515161561282d5761282d612637565b500290565b6000821982111561284557612845612637565b500190565b60008161285957612859612637565b506000190190565b60008282101561287357612873612637565b500390565b634e487b7160e01b600052603160045260246000fdfe663244bfd3de81cc055674c09ade24d4646b75863d5d9dd77d1544f2eb5acc26a2646970667358221220949058d5b94417054fd378601416977b2f673dabd3aaf97ea47f0af528df668264736f6c634300080d0033663244bfd3de81cc055674c09ade24d4646b75863d5d9dd77d1544f2eb5acc26a2646970667358221220ea42dbe25ad75d17f8d241dd82a50a68f3bbd454189a9b3484b9f43d4a44357864736f6c634300080d0033",
    "linkReferences": {}
  },
  "methodIdentifiers": {
    "deployToken(string,string,string)": "457902d2",
    "getTrustedForwarder()": "ce1b815f",
    "isTrustedForwarder(address)": "572b6c05",
    "owner()": "8da5cb5b",
    "refute(address)": "dcbf6b14",
    "verified(address)": "0db065f4",
    "verify(address)": "63a9c3d7"
  },
  "id": 40
}