{
  "abi": [
    {
      "inputs": [
        {
          "internalType": "address",
          "name": "forwarder",
          "type": "address"
        }
      ],
      "stateMutability": "nonpayable",
      "type": "constructor"
    },
    {
      "anonymous": false,
      "inputs": [
        {
          "indexed": true,
          "internalType": "address",
          "name": "token",
          "type": "address"
        },
        {
          "indexed": true,
          "internalType": "address",
          "name": "owner",
          "type": "address"
        }
      ],
      "name": "TokenCreated",
      "type": "event"
    },
    {
      "inputs": [
        {
          "internalType": "string",
          "name": "_name",
          "type": "string"
        },
        {
          "internalType": "string",
          "name": "_symbol",
          "type": "string"
        },
        {
          "internalType": "bytes",
          "name": "_metadata",
          "type": "bytes"
        }
      ],
      "name": "deployToken",
      "outputs": [
        {
          "internalType": "address",
          "name": "token",
          "type": "address"
        }
      ],
      "stateMutability": "nonpayable",
      "type": "function"
    },
    {
      "inputs": [],
      "name": "getTrustedForwarder",
      "outputs": [
        {
          "internalType": "address",
          "name": "forwarder",
          "type": "address"
        }
      ],
      "stateMutability": "view",
      "type": "function"
    },
    {
      "inputs": [
        {
          "internalType": "address",
          "name": "forwarder",
          "type": "address"
        }
      ],
      "name": "isTrustedForwarder",
      "outputs": [
        {
          "internalType": "bool",
          "name": "",
          "type": "bool"
        }
      ],
      "stateMutability": "view",
      "type": "function"
    }
  ],
  "bytecode": {
    "object": "0x608060405234801561001057600080fd5b506040516135e13803806135e183398101604081905261002f91610050565b600080546001600160a01b0319166001600160a01b03831617905550610080565b60006020828403121561006257600080fd5b81516001600160a01b038116811461007957600080fd5b9392505050565b6135528061008f6000396000f3fe60806040523480156200001157600080fd5b5060043610620000465760003560e01c8063572b6c05146200004b578063b53270091462000085578063ce1b815f14620000b5575b600080fd5b620000706200005c3660046200023d565b6000546001600160a01b0391821691161490565b60405190151581526020015b60405180910390f35b6200009c6200009636600462000325565b620000c7565b6040516001600160a01b0390911681526020016200007c565b6000546001600160a01b03166200009c565b60008060405180602001620000dc906200022f565b601f1982820381018352601f90910116604052858585620000fc620001f9565b6040516020016200011194939291906200042d565b60408051601f198184030181529082905262000131929160200162000486565b604051602081830303815290604052905060006200014e620001f9565b60405160200162000177919060609190911b6bffffffffffffffffffffffff1916815260140190565b604051602081830303815290604052805190602001209050808251602084016000f59250823b620001a757600080fd5b620001b1620001f9565b6001600160a01b0316836001600160a01b03167fd5f9bdf12adf29dab0248c349842c3822d53ae2bb4f36352f301630d018c813960405160405180910390a350509392505050565b6000601436108015906200021757506000546001600160a01b031633145b156200022a575060131936013560601c90565b503390565b61306380620004ba83390190565b6000602082840312156200025057600080fd5b81356001600160a01b03811681146200026857600080fd5b9392505050565b634e487b7160e01b600052604160045260246000fd5b600067ffffffffffffffff80841115620002a357620002a36200026f565b604051601f8501601f19908116603f01168101908282118183101715620002ce57620002ce6200026f565b81604052809350858152868686011115620002e857600080fd5b858560208301376000602087830101525050509392505050565b600082601f8301126200031457600080fd5b620002688383356020850162000285565b6000806000606084860312156200033b57600080fd5b833567ffffffffffffffff808211156200035457600080fd5b620003628783880162000302565b945060208601359150808211156200037957600080fd5b620003878783880162000302565b935060408601359150808211156200039e57600080fd5b508401601f81018613620003b157600080fd5b620003c28682356020840162000285565b9150509250925092565b60005b83811015620003e9578181015183820152602001620003cf565b83811115620003f9576000848401525b50505050565b6000815180845262000419816020860160208601620003cc565b601f01601f19169290920160200192915050565b608081526000620004426080830187620003ff565b8281036020840152620004568187620003ff565b905082810360408401526200046c8186620003ff565b91505060018060a01b038316606083015295945050505050565b600083516200049a818460208801620003cc565b835190830190620004b0818360208801620003cc565b0194935050505056fe60806040523480156200001157600080fd5b50604051620030633803806200306383398101604081905262000034916200040b565b8351849084906200004d90600090602085019062000288565b5080516200006390600190602084019062000288565b50506009805462010000600160b01b0319163362010000021790555081516200009490600a90602085019062000288565b50620000b1600080516020620030438339815191526000620000e3565b620000cc60008051602062003043833981519152826200012e565b620000d96000826200012e565b505050506200050f565b600082815260066020526040808220600101805490849055905190918391839186917fbd79b86ffe0ab8e8776151514217cd7cacd52c909f66475c3af44e129f0b00ff9190a4505050565b6200014582826200017160201b620012321760201c565b60008281526007602090815260409091206200016c918390620012b862000216821b17901c565b505050565b60008281526006602090815260408083206001600160a01b038516845290915290205460ff16620002125760008281526006602090815260408083206001600160a01b03851684529091529020805460ff19166001179055620001d13390565b6001600160a01b0316816001600160a01b0316837f2f8788117e7eff1d82e926ec794901d17c78024a50270940304540a733656f0d60405160405180910390a45b5050565b60006200022d836001600160a01b03841662000236565b90505b92915050565b60008181526001830160205260408120546200027f5750815460018181018455600084815260208082209093018490558454848252828601909352604090209190915562000230565b50600062000230565b8280546200029690620004d3565b90600052602060002090601f016020900481019282620002ba576000855562000305565b82601f10620002d557805160ff191683800117855562000305565b8280016001018555821562000305579182015b8281111562000305578251825591602001919060010190620002e8565b506200031392915062000317565b5090565b5b8082111562000313576000815560010162000318565b634e487b7160e01b600052604160045260246000fd5b60006001600160401b03808411156200036157620003616200032e565b604051601f8501601f19908116603f011681019082821181831017156200038c576200038c6200032e565b81604052809350858152868686011115620003a657600080fd5b600092505b85831015620003cb578285015160208483010152602083019250620003ab565b85831115620003de576000602087830101525b5050509392505050565b600082601f830112620003fa57600080fd5b6200022d8383516020850162000344565b600080600080608085870312156200042257600080fd5b84516001600160401b03808211156200043a57600080fd5b6200044888838901620003e8565b955060208701519150808211156200045f57600080fd5b6200046d88838901620003e8565b945060408701519150808211156200048457600080fd5b508501601f810187136200049757600080fd5b620004a88782516020840162000344565b606087015190935090506001600160a01b0381168114620004c857600080fd5b939692955090935050565b600181811c90821680620004e857607f821691505b6020821081036200050957634e487b7160e01b600052602260045260246000fd5b50919050565b612b24806200051f6000396000f3fe608060405234801561001057600080fd5b50600436106102325760003560e01c806370a0823111610130578063b88d4fde116100b8578063cf4fc7bb1161007c578063cf4fc7bb1461051a578063d547741f1461052d578063e8a3d48514610540578063e985e9c514610548578063f15df2e51461058457600080fd5b8063b88d4fde146104b9578063bf5c2c88146104cc578063c0ba241b146104df578063c87b56dd146104f4578063ca15c8731461050757600080fd5b806395d89b41116100ff57806395d89b4114610470578063a217fddf14610478578063a22cb46514610480578063ad0be4bd14610493578063b64da769146104a657600080fd5b806370a08231146104245780638f6dbbbb146104375780639010d07c1461044a57806391d148541461045d57600080fd5b8063248a9ca3116101be57806342966c681161018257806342966c68146103aa5780634b185b60146103bd5780634d9d061d146103d05780636352211e146103fe5780636972fbb81461041157600080fd5b8063248a9ca3146103175780632f2ff15d1461033a578063356ee3351461034d57806336568abe1461038457806342842e0e1461039757600080fd5b806318160ddd1161020557806318160ddd146102b45780631c02a97c146102cb57806320c5429b146102de5780632329319a146102f157806323b872dd1461030457600080fd5b806301ffc9a71461023757806306fdde031461025f578063081812fc14610274578063095ea7b31461029f575b600080fd5b61024a610245366004612142565b610592565b60405190151581526020015b60405180910390f35b6102676105bd565b60405161025691906121b7565b6102876102823660046121ca565b61064f565b6040516001600160a01b039091168152602001610256565b6102b26102ad3660046121ff565b610676565b005b6102bd60085481565b604051908152602001610256565b6102b26102d9366004612294565b610790565b6102b26102ec3660046121ca565b6107de565b6102b26102ff366004612373565b610890565b6102b26103123660046123b5565b6108ad565b6102bd6103253660046121ca565b60009081526006602052604090206001015490565b6102b26103483660046123f1565b6108de565b61037161035b3660046121ca565b600c6020526000908152604090205461ffff1681565b60405161ffff9091168152602001610256565b6102b26103923660046123f1565b610903565b6102b26103a53660046123b5565b610981565b6102b26103b83660046121ca565b61099c565b6102676103cb36600461242f565b610a99565b61024a6103de36600461244a565b600d60209081526000928352604080842090915290825290205460ff1681565b61028761040c3660046121ca565b610b40565b61026761041f3660046121ca565b610ba0565b6102bd610432366004612474565b610bce565b6102b261044536600461248f565b610c54565b6102876104583660046124e2565b610d23565b61024a61046b3660046123f1565b610d42565b610267610d6d565b6102bd600081565b6102b261048e366004612504565b610d7c565b6102b26104a1366004612540565b610d87565b6102b26104b4366004612373565b610ee2565b6102b26104c736600461256a565b610fd0565b6102b26104da36600461262a565b611002565b6102bd600080516020612acf83398151915281565b6102676105023660046121ca565b611076565b6102bd6105153660046121ca565b6110e9565b6102b26105283660046126d4565b611100565b6102b261053b3660046123f1565b6111fe565b610267611223565b61024a6105563660046126f7565b6001600160a01b03918216600090815260056020908152604080832093909416825291909152205460ff1690565b6009546103719061ffff1681565b60006001600160e01b03198216635a05180f60e01b14806105b757506105b7826112cd565b92915050565b6060600080546105cc90612713565b80601f01602080910402602001604051908101604052809291908181526020018280546105f890612713565b80156106455780601f1061061a57610100808354040283529160200191610645565b820191906000526020600020905b81548152906001019060200180831161062857829003601f168201915b5050505050905090565b600061065a826112f2565b506000908152600460205260409020546001600160a01b031690565b600061068182610b40565b9050806001600160a01b0316836001600160a01b0316036106f35760405162461bcd60e51b815260206004820152602160248201527f4552433732313a20617070726f76616c20746f2063757272656e74206f776e656044820152603960f91b60648201526084015b60405180910390fd5b336001600160a01b038216148061070f575061070f8133610556565b6107815760405162461bcd60e51b815260206004820152603d60248201527f4552433732313a20617070726f76652063616c6c6572206973206e6f7420746f60448201527f6b656e206f776e6572206f7220617070726f76656420666f7220616c6c00000060648201526084016106ea565b61078b8383611354565b505050565b600080516020612acf8339815191526107a8816113c2565b60005b825181101561078b576107d68382815181106107c9576107c961274d565b60200260200101516107de565b6001016107ab565b600080516020612acf8339815191526107f6816113c2565b600061080183610b40565b905061080c836113cc565b6000838152600c60208181526040808420805461ffff168552600d83528185206001600160a01b038716808752908452828620805460ff1916905594889052928252825461ffff1916909255905185815233917f1b0d5fb22a7bd6488427342953b1f43743eda17130144de1ea68a9058355d3fb91015b60405180910390a3505050565b600061089b816113c2565b6108a7600a8484612093565b50505050565b6108b7338261146d565b6108d35760405162461bcd60e51b81526004016106ea90612763565b61078b8383836114ec565b6000828152600660205260409020600101546108f9816113c2565b61078b838361165b565b6001600160a01b03811633146109735760405162461bcd60e51b815260206004820152602f60248201527f416363657373436f6e74726f6c3a2063616e206f6e6c792072656e6f756e636560448201526e103937b632b9903337b91039b2b63360891b60648201526084016106ea565b61097d828261167d565b5050565b61078b83838360405180602001604052806000815250610fd0565b60006109a782610b40565b90506001600160a01b0381163314610a0d5760405162461bcd60e51b815260206004820152602360248201527f4f6e6c7920746865206f776e65722063616e206275726e20746865697220746f60448201526235b2b760e91b60648201526084016106ea565b610a16826113cc565b6000828152600c60208181526040808420805461ffff168552600d835281852033808752908452828620805460ff1916905594879052928252825461ffff191690925590518481526001600160a01b03841692917f1b0d5fb22a7bd6488427342953b1f43743eda17130144de1ea68a9058355d3fb910160405180910390a35050565b61ffff81166000908152600b60205260409020805460609190610abb90612713565b80601f0160208091040260200160405190810160405280929190818152602001828054610ae790612713565b8015610b345780601f10610b0957610100808354040283529160200191610b34565b820191906000526020600020905b815481529060010190602001808311610b1757829003601f168201915b50505050509050919050565b6000818152600260205260408120546001600160a01b0316806105b75760405162461bcd60e51b8152602060048201526018602482015277115490cdcc8c4e881a5b9d985b1a59081d1bdad95b88125160421b60448201526064016106ea565b6000818152600c602090815260408083205461ffff168352600b9091529020805460609190610abb90612713565b60006001600160a01b038216610c385760405162461bcd60e51b815260206004820152602960248201527f4552433732313a2061646472657373207a65726f206973206e6f7420612076616044820152683634b21037bbb732b960b91b60648201526084016106ea565b506001600160a01b031660009081526003602052604090205490565b6000610c5f816113c2565b610c688461169f565b610c845760405162461bcd60e51b81526004016106ea906127b0565b81610cc35760405162461bcd60e51b815260206004820152600f60248201526e496e76616c6964207479706555524960881b60448201526064016106ea565b61ffff84166000908152600b60205260409020610ce1908484612093565b507fdc86cf909261f03097a94d7a759421659cb255578ed96118d9ea96a32d424dd5848484604051610d15939291906127d9565b60405180910390a150505050565b6000828152600760205260408120610d3b90836116d1565b9392505050565b60009182526006602090815260408084206001600160a01b0393909316845291905290205460ff1690565b6060600180546105cc90612713565b61097d3383836116dd565b600080516020612acf833981519152610d9f816113c2565b610da88261169f565b610dc45760405162461bcd60e51b81526004016106ea906127b0565b61ffff82166000908152600d602090815260408083206001600160a01b038716845290915290205460ff161515600103610e375760405162461bcd60e51b8152602060048201526014602482015273111d5c1b1a58d85d194818dc9959195b9d1a585b60621b60448201526064016106ea565b60088054906000610e4783612829565b9190505550610e58836008546117a3565b600880546000908152600c60209081526040808320805461ffff191661ffff8816908117909155808452600d83528184206001600160a01b03891680865290845293829020805460ff191660011790559354815190815291820193909352909133917f41ddb298124e0da68871b0019ae3694217bfe6d6b113248eb257552eec74268e9101610883565b600080516020612acf833981519152610efa816113c2565b81610f395760405162461bcd60e51b815260206004820152600f60248201526e496e76616c6964207479706555524960881b60448201526064016106ea565b6009805461ffff16906000610f4d83612842565b82546101009290920a61ffff818102199093169183160217909155600954166000908152600b60205260409020610f8691508484612093565b5060095460405133917fadd3eb4561a4fd4de77bdc61981a52d574518ca58af23209a9d827254388abf191610fc39161ffff1690879087906127d9565b60405180910390a2505050565b610fda338361146d565b610ff65760405162461bcd60e51b81526004016106ea90612763565b6108a7848484846117bd565b600080516020612acf83398151915261101a816113c2565b6110238261169f565b61103f5760405162461bcd60e51b81526004016106ea906127b0565b60005b83518110156108a75761106e8482815181106110605761106061274d565b602002602001015184610d87565b600101611042565b6060611081826112f2565b600061109860408051602081019091526000815290565b905060008151116110b85760405180602001604052806000815250610d3b565b806110c2846117f0565b6040516020016110d3929190612863565b6040516020818303038152906040529392505050565b60008181526007602052604081206105b7906118f1565b600080516020612acf833981519152611118816113c2565b6111218261169f565b61113d5760405162461bcd60e51b81526004016106ea906127b0565b6000838152600260205260409020546001600160a01b03166111a15760405162461bcd60e51b815260206004820152601a60248201527f464f5242494444454e3a20496e76616c696420746f6b656e496400000000000060448201526064016106ea565b6000838152600c6020908152604091829020805461ffff191661ffff86169081179091558251868152918201527f6ddfe9db30cf58862bb534375072568ccc4a9bac7cd79e26252b116f6b3be36a910160405180910390a1505050565b600082815260066020526040902060010154611219816113c2565b61078b838361167d565b6060600a80546105cc90612713565b61123c8282610d42565b61097d5760008281526006602090815260408083206001600160a01b03851684529091529020805460ff191660011790556112743390565b6001600160a01b0316816001600160a01b0316837f2f8788117e7eff1d82e926ec794901d17c78024a50270940304540a733656f0d60405160405180910390a45050565b6000610d3b836001600160a01b0384166118fb565b60006001600160e01b03198216635a05180f60e01b14806105b757506105b78261194a565b6000818152600260205260409020546001600160a01b03166113515760405162461bcd60e51b8152602060048201526018602482015277115490cdcc8c4e881a5b9d985b1a59081d1bdad95b88125160421b60448201526064016106ea565b50565b600081815260046020526040902080546001600160a01b0319166001600160a01b038416908117909155819061138982610b40565b6001600160a01b03167f8c5be1e5ebec7d5bd14f71427d1e84f3dd0314c0f7b2291e5b200ac8c7c3b92560405160405180910390a45050565b611351813361196f565b60006113d782610b40565b90506113e5816000846119c8565b6113ee82610b40565b600083815260046020908152604080832080546001600160a01b03199081169091556001600160a01b0385168085526003845282852080546000190190558785526002909352818420805490911690555192935084927fddf252ad1be2c89b69c2b068fc378daa952ba7f163c4a11628f55a4df523b3ef908390a45050565b60008061147983610b40565b9050806001600160a01b0316846001600160a01b031614806114c057506001600160a01b0380821660009081526005602090815260408083209388168352929052205460ff165b806114e45750836001600160a01b03166114d98461064f565b6001600160a01b0316145b949350505050565b826001600160a01b03166114ff82610b40565b6001600160a01b0316146115255760405162461bcd60e51b81526004016106ea90612892565b6001600160a01b0382166115875760405162461bcd60e51b8152602060048201526024808201527f4552433732313a207472616e7366657220746f20746865207a65726f206164646044820152637265737360e01b60648201526084016106ea565b6115928383836119c8565b826001600160a01b03166115a582610b40565b6001600160a01b0316146115cb5760405162461bcd60e51b81526004016106ea90612892565b600081815260046020908152604080832080546001600160a01b03199081169091556001600160a01b0387811680865260038552838620805460001901905590871680865283862080546001019055868652600290945282852080549092168417909155905184937fddf252ad1be2c89b69c2b068fc378daa952ba7f163c4a11628f55a4df523b3ef91a4505050565b6116658282611232565b600082815260076020526040902061078b90826112b8565b6116878282611a31565b600082815260076020526040902061078b9082611a98565b6000808261ffff161180156105b757506009546116c19061ffff1660016128d7565b61ffff168261ffff161092915050565b6000610d3b8383611aad565b816001600160a01b0316836001600160a01b03160361173e5760405162461bcd60e51b815260206004820152601960248201527f4552433732313a20617070726f766520746f2063616c6c65720000000000000060448201526064016106ea565b6001600160a01b03838116600081815260056020908152604080832094871680845294825291829020805460ff191686151590811790915591519182527f17307eab39ab6107e8899845ad3d59bd9653f200f220920489ca2b5937696c319101610883565b61097d828260405180602001604052806000815250611ad7565b6117c88484846114ec565b6117d484848484611b0a565b6108a75760405162461bcd60e51b81526004016106ea906128f4565b6060816000036118175750506040805180820190915260018152600360fc1b602082015290565b8160005b8115611841578061182b81612829565b915061183a9050600a8361295c565b915061181b565b60008167ffffffffffffffff81111561185c5761185c612229565b6040519080825280601f01601f191660200182016040528015611886576020820181803683370190505b5090505b84156114e45761189b600183612970565b91506118a8600a86612987565b6118b390603061299b565b60f81b8183815181106118c8576118c861274d565b60200101906001600160f81b031916908160001a9053506118ea600a8661295c565b945061188a565b60006105b7825490565b6000818152600183016020526040812054611942575081546001818101845560008481526020808220909301849055845484825282860190935260409020919091556105b7565b5060006105b7565b60006001600160e01b03198216637965db0b60e01b14806105b757506105b782611c0b565b6119798282610d42565b61097d5761198681611c5b565b611991836020611c6d565b6040516020016119a29291906129b3565b60408051601f198184030181529082905262461bcd60e51b82526106ea916004016121b7565b6001600160a01b03821615806119e557506001600160a01b038316155b61078b5760405162461bcd60e51b815260206004820152601d60248201527f5468697320746f6b656e2063616e206f6e6c79206265206275726e656400000060448201526064016106ea565b611a3b8282610d42565b1561097d5760008281526006602090815260408083206001600160a01b0385168085529252808320805460ff1916905551339285917ff6391f5c32d9c69d2a47ea670b442974b53935d1edc7fd64eb21e047a839171b9190a45050565b6000610d3b836001600160a01b038416611e09565b6000826000018281548110611ac457611ac461274d565b9060005260206000200154905092915050565b611ae18383611efc565b611aee6000848484611b0a565b61078b5760405162461bcd60e51b81526004016106ea906128f4565b60006001600160a01b0384163b15611c0057604051630a85bd0160e11b81526001600160a01b0385169063150b7a0290611b4e903390899088908890600401612a28565b6020604051808303816000875af1925050508015611b89575060408051601f3d908101601f19168201909252611b8691810190612a65565b60015b611be6573d808015611bb7576040519150601f19603f3d011682016040523d82523d6000602084013e611bbc565b606091505b508051600003611bde5760405162461bcd60e51b81526004016106ea906128f4565b805181602001fd5b6001600160e01b031916630a85bd0160e11b1490506114e4565b506001949350505050565b60006001600160e01b031982166380ac58cd60e01b1480611c3c57506001600160e01b03198216635b5e139f60e01b145b806105b757506301ffc9a760e01b6001600160e01b03198316146105b7565b60606105b76001600160a01b03831660145b60606000611c7c836002612a82565b611c8790600261299b565b67ffffffffffffffff811115611c9f57611c9f612229565b6040519080825280601f01601f191660200182016040528015611cc9576020820181803683370190505b509050600360fc1b81600081518110611ce457611ce461274d565b60200101906001600160f81b031916908160001a905350600f60fb1b81600181518110611d1357611d1361274d565b60200101906001600160f81b031916908160001a9053506000611d37846002612a82565b611d4290600161299b565b90505b6001811115611dba576f181899199a1a9b1b9c1cb0b131b232b360811b85600f1660108110611d7657611d7661274d565b1a60f81b828281518110611d8c57611d8c61274d565b60200101906001600160f81b031916908160001a90535060049490941c93611db381612aa1565b9050611d45565b508315610d3b5760405162461bcd60e51b815260206004820181905260248201527f537472696e67733a20686578206c656e67746820696e73756666696369656e7460448201526064016106ea565b60008181526001830160205260408120548015611ef2576000611e2d600183612970565b8554909150600090611e4190600190612970565b9050818114611ea6576000866000018281548110611e6157611e6161274d565b9060005260206000200154905080876000018481548110611e8457611e8461274d565b6000918252602080832090910192909255918252600188019052604090208390555b8554869080611eb757611eb7612ab8565b6001900381819060005260206000200160009055905585600101600086815260200190815260200160002060009055600193505050506105b7565b60009150506105b7565b6001600160a01b038216611f525760405162461bcd60e51b815260206004820181905260248201527f4552433732313a206d696e7420746f20746865207a65726f206164647265737360448201526064016106ea565b6000818152600260205260409020546001600160a01b031615611fb75760405162461bcd60e51b815260206004820152601c60248201527f4552433732313a20746f6b656e20616c7265616479206d696e7465640000000060448201526064016106ea565b611fc3600083836119c8565b6000818152600260205260409020546001600160a01b0316156120285760405162461bcd60e51b815260206004820152601c60248201527f4552433732313a20746f6b656e20616c7265616479206d696e7465640000000060448201526064016106ea565b6001600160a01b038216600081815260036020908152604080832080546001019055848352600290915280822080546001600160a01b0319168417905551839291907fddf252ad1be2c89b69c2b068fc378daa952ba7f163c4a11628f55a4df523b3ef908290a45050565b82805461209f90612713565b90600052602060002090601f0160209004810192826120c15760008555612107565b82601f106120da5782800160ff19823516178555612107565b82800160010185558215612107579182015b828111156121075782358255916020019190600101906120ec565b50612113929150612117565b5090565b5b808211156121135760008155600101612118565b6001600160e01b03198116811461135157600080fd5b60006020828403121561215457600080fd5b8135610d3b8161212c565b60005b8381101561217a578181015183820152602001612162565b838111156108a75750506000910152565b600081518084526121a381602086016020860161215f565b601f01601f19169290920160200192915050565b602081526000610d3b602083018461218b565b6000602082840312156121dc57600080fd5b5035919050565b80356001600160a01b03811681146121fa57600080fd5b919050565b6000806040838503121561221257600080fd5b61221b836121e3565b946020939093013593505050565b634e487b7160e01b600052604160045260246000fd5b604051601f8201601f1916810167ffffffffffffffff8111828210171561226857612268612229565b604052919050565b600067ffffffffffffffff82111561228a5761228a612229565b5060051b60200190565b600060208083850312156122a757600080fd5b823567ffffffffffffffff8111156122be57600080fd5b8301601f810185136122cf57600080fd5b80356122e26122dd82612270565b61223f565b81815260059190911b8201830190838101908783111561230157600080fd5b928401925b8284101561231f57833582529284019290840190612306565b979650505050505050565b60008083601f84011261233c57600080fd5b50813567ffffffffffffffff81111561235457600080fd5b60208301915083602082850101111561236c57600080fd5b9250929050565b6000806020838503121561238657600080fd5b823567ffffffffffffffff81111561239d57600080fd5b6123a98582860161232a565b90969095509350505050565b6000806000606084860312156123ca57600080fd5b6123d3846121e3565b92506123e1602085016121e3565b9150604084013590509250925092565b6000806040838503121561240457600080fd5b82359150612414602084016121e3565b90509250929050565b803561ffff811681146121fa57600080fd5b60006020828403121561244157600080fd5b610d3b8261241d565b6000806040838503121561245d57600080fd5b6124668361241d565b9150612414602084016121e3565b60006020828403121561248657600080fd5b610d3b826121e3565b6000806000604084860312156124a457600080fd5b6124ad8461241d565b9250602084013567ffffffffffffffff8111156124c957600080fd5b6124d58682870161232a565b9497909650939450505050565b600080604083850312156124f557600080fd5b50508035926020909101359150565b6000806040838503121561251757600080fd5b612520836121e3565b91506020830135801515811461253557600080fd5b809150509250929050565b6000806040838503121561255357600080fd5b61255c836121e3565b91506124146020840161241d565b6000806000806080858703121561258057600080fd5b612589856121e3565b935060206125988187016121e3565b935060408601359250606086013567ffffffffffffffff808211156125bc57600080fd5b818801915088601f8301126125d057600080fd5b8135818111156125e2576125e2612229565b6125f4601f8201601f1916850161223f565b9150808252898482850101111561260a57600080fd5b808484018584013760008482840101525080935050505092959194509250565b6000806040838503121561263d57600080fd5b823567ffffffffffffffff81111561265457600080fd5b8301601f8101851361266557600080fd5b803560206126756122dd83612270565b82815260059290921b8301810191818101908884111561269457600080fd5b938201935b838510156126b9576126aa856121e3565b82529382019390820190612699565b95506126c8905086820161241d565b93505050509250929050565b600080604083850312156126e757600080fd5b823591506124146020840161241d565b6000806040838503121561270a57600080fd5b612466836121e3565b600181811c9082168061272757607f821691505b60208210810361274757634e487b7160e01b600052602260045260246000fd5b50919050565b634e487b7160e01b600052603260045260246000fd5b6020808252602d908201527f4552433732313a2063616c6c6572206973206e6f7420746f6b656e206f776e6560408201526c1c881bdc88185c1c1c9bdd9959609a1b606082015260800190565b6020808252600f908201526e496e76616c6964205342207479706560881b604082015260600190565b61ffff8416815260406020820152816040820152818360608301376000818301606090810191909152601f909201601f1916010192915050565b634e487b7160e01b600052601160045260246000fd5b60006001820161283b5761283b612813565b5060010190565b600061ffff80831681810361285957612859612813565b6001019392505050565b6000835161287581846020880161215f565b83519083019061288981836020880161215f565b01949350505050565b60208082526025908201527f4552433732313a207472616e736665722066726f6d20696e636f72726563742060408201526437bbb732b960d91b606082015260800190565b600061ffff80831681851680830382111561288957612889612813565b60208082526032908201527f4552433732313a207472616e7366657220746f206e6f6e20455243373231526560408201527131b2b4bb32b91034b6b83632b6b2b73a32b960711b606082015260800190565b634e487b7160e01b600052601260045260246000fd5b60008261296b5761296b612946565b500490565b60008282101561298257612982612813565b500390565b60008261299657612996612946565b500690565b600082198211156129ae576129ae612813565b500190565b7f416363657373436f6e74726f6c3a206163636f756e74200000000000000000008152600083516129eb81601785016020880161215f565b7001034b99036b4b9b9b4b733903937b6329607d1b6017918401918201528351612a1c81602884016020880161215f565b01602801949350505050565b6001600160a01b0385811682528416602082015260408101839052608060608201819052600090612a5b9083018461218b565b9695505050505050565b600060208284031215612a7757600080fd5b8151610d3b8161212c565b6000816000190483118215151615612a9c57612a9c612813565b500290565b600081612ab057612ab0612813565b506000190190565b634e487b7160e01b600052603160045260246000fdfe663244bfd3de81cc055674c09ade24d4646b75863d5d9dd77d1544f2eb5acc26a2646970667358221220f092a3465f4aff02cc65b5b90337ef5fa717e9237f210fdccb8dd7913d24c8be64736f6c634300080d0033663244bfd3de81cc055674c09ade24d4646b75863d5d9dd77d1544f2eb5acc26a2646970667358221220cadbeee2ae6648afd2c6f7d55f8803c69a4a41003d33bf05072e53cb7680547f64736f6c634300080d0033",
    "linkReferences": {}
  },
  "methodIdentifiers": {
    "deployToken(string,string,bytes)": "b5327009",
    "getTrustedForwarder()": "ce1b815f",
    "isTrustedForwarder(address)": "572b6c05"
  },
  "id": 39
}