{
  "abi": [
    {
      "inputs": [
        {
          "internalType": "address",
          "name": "forwarder",
          "type": "address"
        }
      ],
      "stateMutability": "nonpayable",
      "type": "constructor"
    },
    {
      "anonymous": false,
      "inputs": [
        {
          "indexed": true,
          "internalType": "address",
          "name": "org",
          "type": "address"
        }
      ],
      "name": "Refuted",
      "type": "event"
    },
    {
      "anonymous": false,
      "inputs": [
        {
          "indexed": true,
          "internalType": "address",
          "name": "token",
          "type": "address"
        },
        {
          "indexed": true,
          "internalType": "address",
          "name": "owner",
          "type": "address"
        }
      ],
      "name": "TokenCreated",
      "type": "event"
    },
    {
      "anonymous": false,
      "inputs": [
        {
          "indexed": true,
          "internalType": "address",
          "name": "org",
          "type": "address"
        }
      ],
      "name": "Verified",
      "type": "event"
    },
    {
      "inputs": [
        {
          "internalType": "string",
          "name": "_name",
          "type": "string"
        },
        {
          "internalType": "string",
          "name": "_symbol",
          "type": "string"
        },
        {
          "internalType": "string",
          "name": "_metadata",
          "type": "string"
        }
      ],
      "name": "deployToken",
      "outputs": [
        {
          "internalType": "address",
          "name": "token",
          "type": "address"
        }
      ],
      "stateMutability": "nonpayable",
      "type": "function"
    },
    {
      "inputs": [],
      "name": "getTrustedForwarder",
      "outputs": [
        {
          "internalType": "address",
          "name": "forwarder",
          "type": "address"
        }
      ],
      "stateMutability": "view",
      "type": "function"
    },
    {
      "inputs": [
        {
          "internalType": "address",
          "name": "forwarder",
          "type": "address"
        }
      ],
      "name": "isTrustedForwarder",
      "outputs": [
        {
          "internalType": "bool",
          "name": "",
          "type": "bool"
        }
      ],
      "stateMutability": "view",
      "type": "function"
    },
    {
      "inputs": [],
      "name": "owner",
      "outputs": [
        {
          "internalType": "address",
          "name": "",
          "type": "address"
        }
      ],
      "stateMutability": "view",
      "type": "function"
    },
    {
      "inputs": [
        {
          "internalType": "address",
          "name": "org",
          "type": "address"
        }
      ],
      "name": "refute",
      "outputs": [],
      "stateMutability": "nonpayable",
      "type": "function"
    },
    {
      "inputs": [
        {
          "internalType": "address",
          "name": "",
          "type": "address"
        }
      ],
      "name": "verified",
      "outputs": [
        {
          "internalType": "bool",
          "name": "",
          "type": "bool"
        }
      ],
      "stateMutability": "view",
      "type": "function"
    },
    {
      "inputs": [
        {
          "internalType": "address",
          "name": "org",
          "type": "address"
        }
      ],
      "name": "verify",
      "outputs": [],
      "stateMutability": "nonpayable",
      "type": "function"
    }
  ],
  "bytecode": {
    "object": "0x608060405234801561001057600080fd5b506040516136ac3803806136ac83398101604081905261002f9161009f565b61003761006b565b600180546001600160a01b039283166001600160a01b031991821617909155600080549390921692169190911790556100cf565b60006014361080159061008857506000546001600160a01b031633145b1561009a575060131936013560601c90565b503390565b6000602082840312156100b157600080fd5b81516001600160a01b03811681146100c857600080fd5b9392505050565b6135ce806100de6000396000f3fe60806040523480156200001157600080fd5b5060043610620000875760003560e01c806363a9c3d7116200006257806363a9c3d7146200011c5780638da5cb5b1462000135578063ce1b815f1462000149578063dcbf6b14146200015b57600080fd5b80630db065f4146200008c578063457902d214620000c7578063572b6c0514620000f7575b600080fd5b620000b26200009d36600462000500565b60026020526000908152604090205460ff1681565b60405190151581526020015b60405180910390f35b620000de620000d8366004620005dd565b62000172565b6040516001600160a01b039091168152602001620000be565b620000b26200010836600462000500565b6000546001600160a01b0391821691161490565b620001336200012d36600462000500565b620002a4565b005b600154620000de906001600160a01b031681565b6000546001600160a01b0316620000de565b620001336200016c36600462000500565b62000416565b600080604051806020016200018790620004f2565b601f1982820381018352601f90910116604052858585620001a7620004bc565b604051602001620001bc9493929190620006d0565b60408051601f1981840301815290829052620001dc929160200162000729565b60405160208183030381529060405290506000620001f9620004bc565b60405160200162000222919060609190911b6bffffffffffffffffffffffff1916815260140190565b604051602081830303815290604052805190602001209050808251602084016000f59250823b6200025257600080fd5b6200025c620004bc565b6001600160a01b0316836001600160a01b03167fd5f9bdf12adf29dab0248c349842c3822d53ae2bb4f36352f301630d018c813960405160405180910390a350509392505050565b6040516301ffc9a760e01b815263063eef6760e51b60048201526001600160a01b038216906301ffc9a790602401602060405180830381865afa158015620002f0573d6000803e3d6000fd5b505050506040513d601f19601f820116820180604052508101906200031691906200075c565b15156001146200036d5760405162461bcd60e51b815260206004820152601e60248201527f494465736f6320696e74657266616365206e6f7420737570706f72746564000060448201526064015b60405180910390fd5b6001546001600160a01b031662000383620004bc565b6001600160a01b031614620003ca5760405162461bcd60e51b815260206004820152600c60248201526b155b905d5d1a1bdc9a5e995960a21b604482015260640162000364565b6001600160a01b038116600081815260026020526040808220805460ff19166001179055517f6a6455914f452787eb3985452aceedc1000fb545e394eb3b370e3d08958e0a5b9190a250565b6001546001600160a01b03166200042c620004bc565b6001600160a01b031614620004735760405162461bcd60e51b815260206004820152600c60248201526b155b905d5d1a1bdc9a5e995960a21b604482015260640162000364565b6001600160a01b038116600081815260026020526040808220805460ff19169055517f0447b747642c4670e25ad3282fd36423e06b0c46fb64bddad47ad787867802629190a250565b600060143610801590620004da57506000546001600160a01b031633145b15620004ed575060131936013560601c90565b503390565b612e18806200078183390190565b6000602082840312156200051357600080fd5b81356001600160a01b03811681146200052b57600080fd5b9392505050565b634e487b7160e01b600052604160045260246000fd5b600082601f8301126200055a57600080fd5b813567ffffffffffffffff8082111562000578576200057862000532565b604051601f8301601f19908116603f01168101908282118183101715620005a357620005a362000532565b81604052838152866020858801011115620005bd57600080fd5b836020870160208301376000602085830101528094505050505092915050565b600080600060608486031215620005f357600080fd5b833567ffffffffffffffff808211156200060c57600080fd5b6200061a8783880162000548565b945060208601359150808211156200063157600080fd5b6200063f8783880162000548565b935060408601359150808211156200065657600080fd5b50620006658682870162000548565b9150509250925092565b60005b838110156200068c57818101518382015260200162000672565b838111156200069c576000848401525b50505050565b60008151808452620006bc8160208601602086016200066f565b601f01601f19169290920160200192915050565b608081526000620006e56080830187620006a2565b8281036020840152620006f98187620006a2565b905082810360408401526200070f8186620006a2565b91505060018060a01b038316606083015295945050505050565b600083516200073d8184602088016200066f565b835190830190620007538183602088016200066f565b01949350505050565b6000602082840312156200076f57600080fd5b815180151581146200052b57600080fdfe60806040523480156200001157600080fd5b5060405162002e1838038062002e188339810160408190526200003491620003fb565b8351849084906200004d90600090602085019062000288565b5080516200006390600190602084019062000288565b50506009805462010000600160b01b0319163362010000021790555081516200009490600a90602085019062000288565b50620000b160008051602062002df88339815191526000620000e3565b620000be6000826200012e565b620000d960008051602062002df8833981519152826200012e565b50505050620004ea565b600082815260066020526040808220600101805490849055905190918391839186917fbd79b86ffe0ab8e8776151514217cd7cacd52c909f66475c3af44e129f0b00ff9190a4505050565b6200014582826200017160201b620011ad1760201c565b60008281526007602090815260409091206200016c9183906200123362000216821b17901c565b505050565b60008281526006602090815260408083206001600160a01b038516845290915290205460ff16620002125760008281526006602090815260408083206001600160a01b03851684529091529020805460ff19166001179055620001d13390565b6001600160a01b0316816001600160a01b0316837f2f8788117e7eff1d82e926ec794901d17c78024a50270940304540a733656f0d60405160405180910390a45b5050565b60006200022d836001600160a01b03841662000236565b90505b92915050565b60008181526001830160205260408120546200027f5750815460018181018455600084815260208082209093018490558454848252828601909352604090209190915562000230565b50600062000230565b8280546200029690620004ae565b90600052602060002090601f016020900481019282620002ba576000855562000305565b82601f10620002d557805160ff191683800117855562000305565b8280016001018555821562000305579182015b8281111562000305578251825591602001919060010190620002e8565b506200031392915062000317565b5090565b5b8082111562000313576000815560010162000318565b634e487b7160e01b600052604160045260246000fd5b600082601f8301126200035657600080fd5b81516001600160401b03808211156200037357620003736200032e565b604051601f8301601f19908116603f011681019082821181831017156200039e576200039e6200032e565b81604052838152602092508683858801011115620003bb57600080fd5b600091505b83821015620003df5785820183015181830184015290820190620003c0565b83821115620003f15760008385830101525b9695505050505050565b600080600080608085870312156200041257600080fd5b84516001600160401b03808211156200042a57600080fd5b620004388883890162000344565b955060208701519150808211156200044f57600080fd5b6200045d8883890162000344565b945060408701519150808211156200047457600080fd5b50620004838782880162000344565b606087015190935090506001600160a01b0381168114620004a357600080fd5b939692955090935050565b600181811c90821680620004c357607f821691505b602082108103620004e457634e487b7160e01b600052602260045260246000fd5b50919050565b6128fe80620004fa6000396000f3fe608060405234801561001057600080fd5b50600436106102275760003560e01c806370a0823111610130578063b88d4fde116100b8578063cf4fc7bb1161007c578063cf4fc7bb146104fc578063d547741f1461050f578063e8a3d48514610522578063e985e9c51461052a578063f15df2e51461056657600080fd5b8063b88d4fde1461049b578063bf5c2c88146104ae578063c0ba241b146104c1578063c87b56dd146104d6578063ca15c873146104e957600080fd5b806395d89b41116100ff57806395d89b4114610452578063a217fddf1461045a578063a22cb46514610462578063a703ba7f14610475578063ad0be4bd1461048857600080fd5b806370a08231146104065780639010d07c1461041957806391d148541461042c578063938e3d7b1461043f57600080fd5b80632f2ff15d116101b35780633cfaa64e116101825780633cfaa64e146103a757806342842e0e146103ba57806342966c68146103cd5780634b185b60146103e05780636352211e146103f357600080fd5b80632f2ff15d1461031c578063356ee3351461032f57806336568abe146103665780633c2a0a0c1461037957600080fd5b806318160ddd116101fa57806318160ddd146102a95780631c02a97c146102c057806320c5429b146102d357806323b872dd146102e6578063248a9ca3146102f957600080fd5b806301ffc9a71461022c57806306fdde0314610254578063081812fc14610269578063095ea7b314610294575b600080fd5b61023f61023a366004611fc4565b610574565b60405190151581526020015b60405180910390f35b61025c6105ba565b60405161024b9190612039565b61027c61027736600461204c565b61064c565b6040516001600160a01b03909116815260200161024b565b6102a76102a2366004612081565b610673565b005b6102b260085481565b60405190815260200161024b565b6102a76102ce366004612116565b61078d565b6102a76102e136600461204c565b6107db565b6102a76102f43660046121ac565b610883565b6102b261030736600461204c565b60009081526006602052604090206001015490565b6102a761032a3660046121e8565b6108b4565b61035361033d36600461204c565b600c6020526000908152604090205461ffff1681565b60405161ffff909116815260200161024b565b6102a76103743660046121e8565b6108d9565b61023f610387366004612226565b600d60209081526000928352604080842090915290825290205460ff1681565b6102a76103b53660046122c8565b610957565b6102a76103c83660046121ac565b610a3a565b6102a76103db36600461204c565b610a55565b61025c6103ee366004612316565b610b49565b61027c61040136600461204c565b610bf0565b6102b2610414366004612331565b610c50565b61027c61042736600461234c565b610cd6565b61023f61043a3660046121e8565b610cf5565b6102a761044d36600461236e565b610d20565b61025c610d4b565b6102b2600081565b6102a76104703660046123a3565b610d5a565b6102a761048336600461236e565b610d65565b6102a76104963660046123df565b610e5c565b6102a76104a9366004612409565b610fb7565b6102a76104bc366004612485565b610fef565b6102b26000805160206128a983398151915281565b61025c6104e436600461204c565b61103e565b6102b26104f736600461204c565b61106c565b6102a761050a36600461252f565b611083565b6102a761051d3660046121e8565b611179565b61025c61119e565b61023f610538366004612552565b6001600160a01b03918216600090815260056020908152604080832093909416825291909152205460ff1690565b6009546103539061ffff1681565b60006001600160e01b0319821663063eef6760e51b14806105a557506001600160e01b03198216635a05180f60e01b145b806105b457506105b482611248565b92915050565b6060600080546105c99061256e565b80601f01602080910402602001604051908101604052809291908181526020018280546105f59061256e565b80156106425780601f1061061757610100808354040283529160200191610642565b820191906000526020600020905b81548152906001019060200180831161062557829003601f168201915b5050505050905090565b60006106578261126d565b506000908152600460205260409020546001600160a01b031690565b600061067e82610bf0565b9050806001600160a01b0316836001600160a01b0316036106f05760405162461bcd60e51b815260206004820152602160248201527f4552433732313a20617070726f76616c20746f2063757272656e74206f776e656044820152603960f91b60648201526084015b60405180910390fd5b336001600160a01b038216148061070c575061070c8133610538565b61077e5760405162461bcd60e51b815260206004820152603d60248201527f4552433732313a20617070726f76652063616c6c6572206973206e6f7420746f60448201527f6b656e206f776e6572206f7220617070726f76656420666f7220616c6c00000060648201526084016106e7565b61078883836112cf565b505050565b6000805160206128a98339815191526107a58161133d565b60005b8251811015610788576107d38382815181106107c6576107c66125a8565b60200260200101516107db565b6001016107a8565b6000805160206128a98339815191526107f38161133d565b60006107fe83610bf0565b905061080983611347565b6000838152600c60208181526040808420805461ffff168552600d83528185206001600160a01b038716808752908452828620805460ff1916905588865293909252815461ffff191690915551859233917f1b0d5fb22a7bd6488427342953b1f43743eda17130144de1ea68a9058355d3fb9190a4505050565b61088d33826113e8565b6108a95760405162461bcd60e51b81526004016106e7906125be565b610788838383611467565b6000828152600660205260409020600101546108cf8161133d565b61078883836115d6565b6001600160a01b03811633146109495760405162461bcd60e51b815260206004820152602f60248201527f416363657373436f6e74726f6c3a2063616e206f6e6c792072656e6f756e636560448201526e103937b632b9903337b91039b2b63360891b60648201526084016106e7565b61095382826115f8565b5050565b6000805160206128a983398151915261096f8161133d565b6109788361161a565b6109945760405162461bcd60e51b81526004016106e79061260b565b60008251116109d75760405162461bcd60e51b815260206004820152600f60248201526e496e76616c6964207479706555524960881b60448201526064016106e7565b61ffff83166000908152600b6020908152604090912083516109fb92850190611f15565b507f304e696a7fa05e5e3ba004dbd79df964b1b3d5db091a49d05cc3be105bf6b28d8383604051610a2d929190612634565b60405180910390a1505050565b61078883838360405180602001604052806000815250610fb7565b6000610a6082610bf0565b90506001600160a01b0381163314610ac65760405162461bcd60e51b815260206004820152602360248201527f4f6e6c7920746865206f776e65722063616e206275726e20746865697220746f60448201526235b2b760e91b60648201526084016106e7565b610acf82611347565b6000828152600c60208181526040808420805461ffff168552600d835281852033808752908452828620805460ff1916905587865293909252815461ffff19169091555184926001600160a01b03851692917f1b0d5fb22a7bd6488427342953b1f43743eda17130144de1ea68a9058355d3fb9190a45050565b61ffff81166000908152600b60205260409020805460609190610b6b9061256e565b80601f0160208091040260200160405190810160405280929190818152602001828054610b979061256e565b8015610be45780601f10610bb957610100808354040283529160200191610be4565b820191906000526020600020905b815481529060010190602001808311610bc757829003601f168201915b50505050509050919050565b6000818152600260205260408120546001600160a01b0316806105b45760405162461bcd60e51b8152602060048201526018602482015277115490cdcc8c4e881a5b9d985b1a59081d1bdad95b88125160421b60448201526064016106e7565b60006001600160a01b038216610cba5760405162461bcd60e51b815260206004820152602960248201527f4552433732313a2061646472657373207a65726f206973206e6f7420612076616044820152683634b21037bbb732b960b91b60648201526084016106e7565b506001600160a01b031660009081526003602052604090205490565b6000828152600760205260408120610cee908361164c565b9392505050565b60009182526006602090815260408084206001600160a01b0393909316845291905290205460ff1690565b6000805160206128a9833981519152610d388161133d565b815161078890600a906020850190611f15565b6060600180546105c99061256e565b610953338383611658565b6000805160206128a9833981519152610d7d8161133d565b6000825111610dc05760405162461bcd60e51b815260206004820152600f60248201526e496e76616c6964207479706555524960881b60448201526064016106e7565b6009805461ffff16906000610dd483612667565b82546101009290920a61ffff818102199093169183160217909155600954166000908152600b602090815260409091208451610e1593509091850190611f15565b5060095460405133917feee6d734ab3002f6fb2460eba7ece9dc144994f56daef931baad47e3d94ef31391610e509161ffff16908690612634565b60405180910390a25050565b6000805160206128a9833981519152610e748161133d565b610e7d8261161a565b610e995760405162461bcd60e51b81526004016106e79061260b565b61ffff82166000908152600d602090815260408083206001600160a01b038716845290915290205460ff161515600103610f0c5760405162461bcd60e51b8152602060048201526014602482015273111d5c1b1a58d85d194818dc9959195b9d1a585b60621b60448201526064016106e7565b60088054906000610f1c83612688565b9190505550610f2d83600854611726565b600880546000908152600c60209081526040808320805461ffff191661ffff8816908117909155808452600d83528184206001600160a01b03891680865290845293829020805460ff19166001179055935490519384529233917f41ddb298124e0da68871b0019ae3694217bfe6d6b113248eb257552eec74268e910160405180910390a4505050565b610fc133836113e8565b610fdd5760405162461bcd60e51b81526004016106e7906125be565b610fe984848484611740565b50505050565b6000805160206128a98339815191526110078161133d565b60005b8351811015610fe957611036848281518110611028576110286125a8565b602002602001015184610e5c565b60010161100a565b6000818152600c602090815260408083205461ffff168352600b9091529020805460609190610b6b9061256e565b60008181526007602052604081206105b490611773565b6000805160206128a983398151915261109b8161133d565b6110a48261161a565b6110c05760405162461bcd60e51b81526004016106e79061260b565b6000838152600260205260409020546001600160a01b03166111245760405162461bcd60e51b815260206004820152601a60248201527f464f5242494444454e3a20496e76616c696420746f6b656e496400000000000060448201526064016106e7565b6000838152600c6020908152604091829020805461ffff191661ffff86169081179091558251868152918201527f6ddfe9db30cf58862bb534375072568ccc4a9bac7cd79e26252b116f6b3be36a9101610a2d565b6000828152600660205260409020600101546111948161133d565b61078883836115f8565b6060600a80546105c99061256e565b6111b78282610cf5565b6109535760008281526006602090815260408083206001600160a01b03851684529091529020805460ff191660011790556111ef3390565b6001600160a01b0316816001600160a01b0316837f2f8788117e7eff1d82e926ec794901d17c78024a50270940304540a733656f0d60405160405180910390a45050565b6000610cee836001600160a01b03841661177d565b60006001600160e01b03198216635a05180f60e01b14806105b457506105b4826117cc565b6000818152600260205260409020546001600160a01b03166112cc5760405162461bcd60e51b8152602060048201526018602482015277115490cdcc8c4e881a5b9d985b1a59081d1bdad95b88125160421b60448201526064016106e7565b50565b600081815260046020526040902080546001600160a01b0319166001600160a01b038416908117909155819061130482610bf0565b6001600160a01b03167f8c5be1e5ebec7d5bd14f71427d1e84f3dd0314c0f7b2291e5b200ac8c7c3b92560405160405180910390a45050565b6112cc81336117f1565b600061135282610bf0565b90506113608160008461184a565b61136982610bf0565b600083815260046020908152604080832080546001600160a01b03199081169091556001600160a01b0385168085526003845282852080546000190190558785526002909352818420805490911690555192935084927fddf252ad1be2c89b69c2b068fc378daa952ba7f163c4a11628f55a4df523b3ef908390a45050565b6000806113f483610bf0565b9050806001600160a01b0316846001600160a01b0316148061143b57506001600160a01b0380821660009081526005602090815260408083209388168352929052205460ff165b8061145f5750836001600160a01b03166114548461064c565b6001600160a01b0316145b949350505050565b826001600160a01b031661147a82610bf0565b6001600160a01b0316146114a05760405162461bcd60e51b81526004016106e7906126a1565b6001600160a01b0382166115025760405162461bcd60e51b8152602060048201526024808201527f4552433732313a207472616e7366657220746f20746865207a65726f206164646044820152637265737360e01b60648201526084016106e7565b61150d83838361184a565b826001600160a01b031661152082610bf0565b6001600160a01b0316146115465760405162461bcd60e51b81526004016106e7906126a1565b600081815260046020908152604080832080546001600160a01b03199081169091556001600160a01b0387811680865260038552838620805460001901905590871680865283862080546001019055868652600290945282852080549092168417909155905184937fddf252ad1be2c89b69c2b068fc378daa952ba7f163c4a11628f55a4df523b3ef91a4505050565b6115e082826111ad565b60008281526007602052604090206107889082611233565b61160282826118b3565b6000828152600760205260409020610788908261191a565b6000808261ffff161180156105b4575060095461163c9061ffff1660016126e6565b61ffff168261ffff161092915050565b6000610cee838361192f565b816001600160a01b0316836001600160a01b0316036116b95760405162461bcd60e51b815260206004820152601960248201527f4552433732313a20617070726f766520746f2063616c6c65720000000000000060448201526064016106e7565b6001600160a01b03838116600081815260056020908152604080832094871680845294825291829020805460ff191686151590811790915591519182527f17307eab39ab6107e8899845ad3d59bd9653f200f220920489ca2b5937696c31910160405180910390a3505050565b610953828260405180602001604052806000815250611959565b61174b848484611467565b6117578484848461198c565b610fe95760405162461bcd60e51b81526004016106e79061270c565b60006105b4825490565b60008181526001830160205260408120546117c4575081546001818101845560008481526020808220909301849055845484825282860190935260409020919091556105b4565b5060006105b4565b60006001600160e01b03198216637965db0b60e01b14806105b457506105b482611a8d565b6117fb8282610cf5565b6109535761180881611add565b611813836020611aef565b60405160200161182492919061275e565b60408051601f198184030181529082905262461bcd60e51b82526106e791600401612039565b6001600160a01b038216158061186757506001600160a01b038316155b6107885760405162461bcd60e51b815260206004820152601d60248201527f5468697320746f6b656e2063616e206f6e6c79206265206275726e656400000060448201526064016106e7565b6118bd8282610cf5565b156109535760008281526006602090815260408083206001600160a01b0385168085529252808320805460ff1916905551339285917ff6391f5c32d9c69d2a47ea670b442974b53935d1edc7fd64eb21e047a839171b9190a45050565b6000610cee836001600160a01b038416611c8b565b6000826000018281548110611946576119466125a8565b9060005260206000200154905092915050565b6119638383611d7e565b611970600084848461198c565b6107885760405162461bcd60e51b81526004016106e79061270c565b60006001600160a01b0384163b15611a8257604051630a85bd0160e11b81526001600160a01b0385169063150b7a02906119d09033908990889088906004016127d3565b6020604051808303816000875af1925050508015611a0b575060408051601f3d908101601f19168201909252611a0891810190612810565b60015b611a68573d808015611a39576040519150601f19603f3d011682016040523d82523d6000602084013e611a3e565b606091505b508051600003611a605760405162461bcd60e51b81526004016106e79061270c565b805181602001fd5b6001600160e01b031916630a85bd0160e11b14905061145f565b506001949350505050565b60006001600160e01b031982166380ac58cd60e01b1480611abe57506001600160e01b03198216635b5e139f60e01b145b806105b457506301ffc9a760e01b6001600160e01b03198316146105b4565b60606105b46001600160a01b03831660145b60606000611afe83600261282d565b611b0990600261284c565b67ffffffffffffffff811115611b2157611b216120ab565b6040519080825280601f01601f191660200182016040528015611b4b576020820181803683370190505b509050600360fc1b81600081518110611b6657611b666125a8565b60200101906001600160f81b031916908160001a905350600f60fb1b81600181518110611b9557611b956125a8565b60200101906001600160f81b031916908160001a9053506000611bb984600261282d565b611bc490600161284c565b90505b6001811115611c3c576f181899199a1a9b1b9c1cb0b131b232b360811b85600f1660108110611bf857611bf86125a8565b1a60f81b828281518110611c0e57611c0e6125a8565b60200101906001600160f81b031916908160001a90535060049490941c93611c3581612864565b9050611bc7565b508315610cee5760405162461bcd60e51b815260206004820181905260248201527f537472696e67733a20686578206c656e67746820696e73756666696369656e7460448201526064016106e7565b60008181526001830160205260408120548015611d74576000611caf60018361287b565b8554909150600090611cc39060019061287b565b9050818114611d28576000866000018281548110611ce357611ce36125a8565b9060005260206000200154905080876000018481548110611d0657611d066125a8565b6000918252602080832090910192909255918252600188019052604090208390555b8554869080611d3957611d39612892565b6001900381819060005260206000200160009055905585600101600086815260200190815260200160002060009055600193505050506105b4565b60009150506105b4565b6001600160a01b038216611dd45760405162461bcd60e51b815260206004820181905260248201527f4552433732313a206d696e7420746f20746865207a65726f206164647265737360448201526064016106e7565b6000818152600260205260409020546001600160a01b031615611e395760405162461bcd60e51b815260206004820152601c60248201527f4552433732313a20746f6b656e20616c7265616479206d696e7465640000000060448201526064016106e7565b611e456000838361184a565b6000818152600260205260409020546001600160a01b031615611eaa5760405162461bcd60e51b815260206004820152601c60248201527f4552433732313a20746f6b656e20616c7265616479206d696e7465640000000060448201526064016106e7565b6001600160a01b038216600081815260036020908152604080832080546001019055848352600290915280822080546001600160a01b0319168417905551839291907fddf252ad1be2c89b69c2b068fc378daa952ba7f163c4a11628f55a4df523b3ef908290a45050565b828054611f219061256e565b90600052602060002090601f016020900481019282611f435760008555611f89565b82601f10611f5c57805160ff1916838001178555611f89565b82800160010185558215611f89579182015b82811115611f89578251825591602001919060010190611f6e565b50611f95929150611f99565b5090565b5b80821115611f955760008155600101611f9a565b6001600160e01b0319811681146112cc57600080fd5b600060208284031215611fd657600080fd5b8135610cee81611fae565b60005b83811015611ffc578181015183820152602001611fe4565b83811115610fe95750506000910152565b60008151808452612025816020860160208601611fe1565b601f01601f19169290920160200192915050565b602081526000610cee602083018461200d565b60006020828403121561205e57600080fd5b5035919050565b80356001600160a01b038116811461207c57600080fd5b919050565b6000806040838503121561209457600080fd5b61209d83612065565b946020939093013593505050565b634e487b7160e01b600052604160045260246000fd5b604051601f8201601f1916810167ffffffffffffffff811182821017156120ea576120ea6120ab565b604052919050565b600067ffffffffffffffff82111561210c5761210c6120ab565b5060051b60200190565b6000602080838503121561212957600080fd5b823567ffffffffffffffff81111561214057600080fd5b8301601f8101851361215157600080fd5b803561216461215f826120f2565b6120c1565b81815260059190911b8201830190838101908783111561218357600080fd5b928401925b828410156121a157833582529284019290840190612188565b979650505050505050565b6000806000606084860312156121c157600080fd5b6121ca84612065565b92506121d860208501612065565b9150604084013590509250925092565b600080604083850312156121fb57600080fd5b8235915061220b60208401612065565b90509250929050565b803561ffff8116811461207c57600080fd5b6000806040838503121561223957600080fd5b61224283612214565b915061220b60208401612065565b600067ffffffffffffffff83111561226a5761226a6120ab565b61227d601f8401601f19166020016120c1565b905082815283838301111561229157600080fd5b828260208301376000602084830101529392505050565b600082601f8301126122b957600080fd5b610cee83833560208501612250565b600080604083850312156122db57600080fd5b6122e483612214565b9150602083013567ffffffffffffffff81111561230057600080fd5b61230c858286016122a8565b9150509250929050565b60006020828403121561232857600080fd5b610cee82612214565b60006020828403121561234357600080fd5b610cee82612065565b6000806040838503121561235f57600080fd5b50508035926020909101359150565b60006020828403121561238057600080fd5b813567ffffffffffffffff81111561239757600080fd5b61145f848285016122a8565b600080604083850312156123b657600080fd5b6123bf83612065565b9150602083013580151581146123d457600080fd5b809150509250929050565b600080604083850312156123f257600080fd5b6123fb83612065565b915061220b60208401612214565b6000806000806080858703121561241f57600080fd5b61242885612065565b935061243660208601612065565b925060408501359150606085013567ffffffffffffffff81111561245957600080fd5b8501601f8101871361246a57600080fd5b61247987823560208401612250565b91505092959194509250565b6000806040838503121561249857600080fd5b823567ffffffffffffffff8111156124af57600080fd5b8301601f810185136124c057600080fd5b803560206124d061215f836120f2565b82815260059290921b830181019181810190888411156124ef57600080fd5b938201935b838510156125145761250585612065565b825293820193908201906124f4565b95506125239050868201612214565b93505050509250929050565b6000806040838503121561254257600080fd5b8235915061220b60208401612214565b6000806040838503121561256557600080fd5b61224283612065565b600181811c9082168061258257607f821691505b6020821081036125a257634e487b7160e01b600052602260045260246000fd5b50919050565b634e487b7160e01b600052603260045260246000fd5b6020808252602d908201527f4552433732313a2063616c6c6572206973206e6f7420746f6b656e206f776e6560408201526c1c881bdc88185c1c1c9bdd9959609a1b606082015260800190565b6020808252600f908201526e496e76616c6964205342207479706560881b604082015260600190565b61ffff8316815260406020820152600061145f604083018461200d565b634e487b7160e01b600052601160045260246000fd5b600061ffff80831681810361267e5761267e612651565b6001019392505050565b60006001820161269a5761269a612651565b5060010190565b60208082526025908201527f4552433732313a207472616e736665722066726f6d20696e636f72726563742060408201526437bbb732b960d91b606082015260800190565b600061ffff80831681851680830382111561270357612703612651565b01949350505050565b60208082526032908201527f4552433732313a207472616e7366657220746f206e6f6e20455243373231526560408201527131b2b4bb32b91034b6b83632b6b2b73a32b960711b606082015260800190565b7f416363657373436f6e74726f6c3a206163636f756e7420000000000000000000815260008351612796816017850160208801611fe1565b7001034b99036b4b9b9b4b733903937b6329607d1b60179184019182015283516127c7816028840160208801611fe1565b01602801949350505050565b6001600160a01b03858116825284166020820152604081018390526080606082018190526000906128069083018461200d565b9695505050505050565b60006020828403121561282257600080fd5b8151610cee81611fae565b600081600019048311821515161561284757612847612651565b500290565b6000821982111561285f5761285f612651565b500190565b60008161287357612873612651565b506000190190565b60008282101561288d5761288d612651565b500390565b634e487b7160e01b600052603160045260246000fdfe663244bfd3de81cc055674c09ade24d4646b75863d5d9dd77d1544f2eb5acc26a264697066735822122094c7d98ee93554948b11b45c01390c4fa66c6a6a7309d06e7ef66ea7666ca22c64736f6c634300080d0033663244bfd3de81cc055674c09ade24d4646b75863d5d9dd77d1544f2eb5acc26a2646970667358221220c3af3ae02cba9ebc24284260731787ab6668634ecd636a0c7db0fab52cb1ee9364736f6c634300080d0033",
    "linkReferences": {}
  },
  "methodIdentifiers": {
    "deployToken(string,string,string)": "457902d2",
    "getTrustedForwarder()": "ce1b815f",
    "isTrustedForwarder(address)": "572b6c05",
    "owner()": "8da5cb5b",
    "refute(address)": "dcbf6b14",
    "verified(address)": "0db065f4",
    "verify(address)": "63a9c3d7"
  },
  "id": 40
}