{
  "abi": [
    {
      "anonymous": false,
      "inputs": [
        {
          "indexed": true,
          "internalType": "address",
          "name": "token",
          "type": "address"
        },
        {
          "indexed": true,
          "internalType": "address",
          "name": "owner",
          "type": "address"
        }
      ],
      "name": "TokenCreated",
      "type": "event"
    },
    {
      "inputs": [
        {
          "internalType": "string",
          "name": "_name",
          "type": "string"
        },
        {
          "internalType": "string",
          "name": "_symbol",
          "type": "string"
        },
        {
          "internalType": "bytes",
          "name": "_metadata",
          "type": "bytes"
        }
      ],
      "name": "deployToken",
      "outputs": [
        {
          "internalType": "address",
          "name": "token",
          "type": "address"
        }
      ],
      "stateMutability": "nonpayable",
      "type": "function"
    }
  ],
  "bytecode": {
    "object": "0x608060405234801561001057600080fd5b50613600806100206000396000f3fe60806040523480156200001157600080fd5b50600436106200002e5760003560e01c8063b53270091462000033575b600080fd5b6200004a6200004436600462000231565b62000066565b6040516001600160a01b03909116815260200160405180910390f35b600080604051806020016200007b9062000166565b601f1982820381018352601f909101166040819052620000a690879087908790339060200162000339565b60408051601f1981840301815290829052620000c6929160200162000392565b60408051601f19818403018152908290526bffffffffffffffffffffffff193360601b1660208301529150600090603401604051602081830303815290604052805190602001209050808251602084016000f59250823b6200012757600080fd5b60405133906001600160a01b038516907fd5f9bdf12adf29dab0248c349842c3822d53ae2bb4f36352f301630d018c813990600090a350509392505050565b61320580620003c683390190565b634e487b7160e01b600052604160045260246000fd5b600067ffffffffffffffff80841115620001a857620001a862000174565b604051601f8501601f19908116603f01168101908282118183101715620001d357620001d362000174565b81604052809350858152868686011115620001ed57600080fd5b858560208301376000602087830101525050509392505050565b600082601f8301126200021957600080fd5b6200022a838335602085016200018a565b9392505050565b6000806000606084860312156200024757600080fd5b833567ffffffffffffffff808211156200026057600080fd5b6200026e8783880162000207565b945060208601359150808211156200028557600080fd5b620002938783880162000207565b93506040860135915080821115620002aa57600080fd5b508401601f81018613620002bd57600080fd5b620002ce868235602084016200018a565b9150509250925092565b60005b83811015620002f5578181015183820152602001620002db565b8381111562000305576000848401525b50505050565b6000815180845262000325816020860160208601620002d8565b601f01601f19169290920160200192915050565b6080815260006200034e60808301876200030b565b82810360208401526200036281876200030b565b905082810360408401526200037881866200030b565b91505060018060a01b038316606083015295945050505050565b60008351620003a6818460208801620002d8565b835190830190620003bc818360208801620002d8565b0194935050505056fe60806040523480156200001157600080fd5b50604051620032053803806200320583398101604081905262000034916200040b565b8351849084906200004d90600090602085019062000288565b5080516200006390600190602084019062000288565b50506009805462010000600160b01b0319163362010000021790555081516200009490600a90602085019062000288565b50620000b1600080516020620031e58339815191526000620000e3565b620000cc600080516020620031e5833981519152826200012e565b620000d96000826200012e565b505050506200050f565b600082815260066020526040808220600101805490849055905190918391839186917fbd79b86ffe0ab8e8776151514217cd7cacd52c909f66475c3af44e129f0b00ff9190a4505050565b6200014582826200017160201b6200136c1760201c565b60008281526007602090815260409091206200016c918390620013f262000216821b17901c565b505050565b60008281526006602090815260408083206001600160a01b038516845290915290205460ff16620002125760008281526006602090815260408083206001600160a01b03851684529091529020805460ff19166001179055620001d13390565b6001600160a01b0316816001600160a01b0316837f2f8788117e7eff1d82e926ec794901d17c78024a50270940304540a733656f0d60405160405180910390a45b5050565b60006200022d836001600160a01b03841662000236565b90505b92915050565b60008181526001830160205260408120546200027f5750815460018181018455600084815260208082209093018490558454848252828601909352604090209190915562000230565b50600062000230565b8280546200029690620004d3565b90600052602060002090601f016020900481019282620002ba576000855562000305565b82601f10620002d557805160ff191683800117855562000305565b8280016001018555821562000305579182015b8281111562000305578251825591602001919060010190620002e8565b506200031392915062000317565b5090565b5b8082111562000313576000815560010162000318565b634e487b7160e01b600052604160045260246000fd5b60006001600160401b03808411156200036157620003616200032e565b604051601f8501601f19908116603f011681019082821181831017156200038c576200038c6200032e565b81604052809350858152868686011115620003a657600080fd5b600092505b85831015620003cb578285015160208483010152602083019250620003ab565b85831115620003de576000602087830101525b5050509392505050565b600082601f830112620003fa57600080fd5b6200022d8383516020850162000344565b600080600080608085870312156200042257600080fd5b84516001600160401b03808211156200043a57600080fd5b6200044888838901620003e8565b955060208701519150808211156200045f57600080fd5b6200046d88838901620003e8565b945060408701519150808211156200048457600080fd5b508501601f810187136200049757600080fd5b620004a88782516020840162000344565b606087015190935090506001600160a01b0381168114620004c857600080fd5b939692955090935050565b600181811c90821680620004e857607f821691505b6020821081036200050957634e487b7160e01b600052602260045260246000fd5b50919050565b612cc6806200051f6000396000f3fe608060405234801561001057600080fd5b50600436106102325760003560e01c806379cdf6ad11610130578063b88d4fde116100b8578063cf4fc7bb1161007c578063cf4fc7bb14610515578063d547741f14610528578063e8a3d4851461053b578063e985e9c514610543578063f15df2e51461057f57600080fd5b8063b88d4fde146104b4578063bf5c2c88146104c7578063c0ba241b146104da578063c87b56dd146104ef578063ca15c8731461050257600080fd5b806395d89b41116100ff57806395d89b411461046b578063a217fddf14610473578063a22cb4651461047b578063ad0be4bd1461048e578063b64da769146104a157600080fd5b806379cdf6ad146104095780638f6dbbbb146104325780639010d07c1461044557806391d148541461045857600080fd5b8063248a9ca3116101be57806342966c681161018257806342966c68146103aa5780634b185b60146103bd5780636352211e146103d05780636972fbb8146103e357806370a08231146103f657600080fd5b8063248a9ca3146103175780632f2ff15d1461033a578063356ee3351461034d57806336568abe1461038457806342842e0e1461039757600080fd5b806318160ddd1161020557806318160ddd146102b45780631c02a97c146102cb57806320c5429b146102de5780632329319a146102f157806323b872dd1461030457600080fd5b806301ffc9a71461023757806306fdde031461025f578063081812fc14610274578063095ea7b31461029f575b600080fd5b61024a61024536600461227c565b61058d565b60405190151581526020015b60405180910390f35b6102676105b8565b60405161025691906122f1565b610287610282366004612304565b61064a565b6040516001600160a01b039091168152602001610256565b6102b26102ad366004612339565b610671565b005b6102bd60085481565b604051908152602001610256565b6102b26102d93660046123ce565b61078b565b6102b26102ec366004612304565b61090e565b6102b26102ff3660046124ad565b6109a4565b6102b26103123660046124ef565b6109c1565b6102bd610325366004612304565b60009081526006602052604090206001015490565b6102b261034836600461252b565b6109f2565b61037161035b366004612304565b600d6020526000908152604090205461ffff1681565b60405161ffff9091168152602001610256565b6102b261039236600461252b565b610a17565b6102b26103a53660046124ef565b610a95565b6102b26103b8366004612304565b610ab0565b6102676103cb366004612569565b610b88565b6102876103de366004612304565b610c2f565b6102676103f1366004612304565b610c8f565b6102bd610404366004612584565b610cbd565b610287610417366004612304565b600c602052600090815260409020546001600160a01b031681565b6102b261044036600461259f565b610d43565b6102876104533660046125f2565b610e12565b61024a61046636600461252b565b610e31565b610267610e5c565b6102bd600081565b6102b2610489366004612614565b610e6b565b6102b261049c366004612650565b610e76565b6102b26104af3660046124ad565b610f5c565b6102b26104c236600461267a565b61103d565b6102b26104d536600461273a565b61106f565b6102bd600080516020612c7183398151915281565b6102676104fd366004612304565b6111b0565b6102bd610510366004612304565b611223565b6102b26105233660046127e4565b61123a565b6102b261053636600461252b565b611338565b61026761135d565b61024a610551366004612807565b6001600160a01b03918216600090815260056020908152604080832093909416825291909152205460ff1690565b6009546103719061ffff1681565b60006001600160e01b03198216635a05180f60e01b14806105b257506105b282611407565b92915050565b6060600080546105c790612831565b80601f01602080910402602001604051908101604052809291908181526020018280546105f390612831565b80156106405780601f1061061557610100808354040283529160200191610640565b820191906000526020600020905b81548152906001019060200180831161062357829003601f168201915b5050505050905090565b60006106558261142c565b506000908152600460205260409020546001600160a01b031690565b600061067c82610c2f565b9050806001600160a01b0316836001600160a01b0316036106ee5760405162461bcd60e51b815260206004820152602160248201527f4552433732313a20617070726f76616c20746f2063757272656e74206f776e656044820152603960f91b60648201526084015b60405180910390fd5b336001600160a01b038216148061070a575061070a8133610551565b61077c5760405162461bcd60e51b815260206004820152603d60248201527f4552433732313a20617070726f76652063616c6c6572206973206e6f7420746f60448201527f6b656e206f776e6572206f7220617070726f76656420666f7220616c6c00000060648201526084016106e5565b610786838361148e565b505050565b600080516020612c718339815191526107a3816114fc565b6000825167ffffffffffffffff8111156107bf576107bf612363565b6040519080825280602002602001820160405280156107e8578160200160208202803683370190505b50905060005b83518110156108c55761081984828151811061080c5761080c61286b565b6020026020010151610c2f565b82828151811061082b5761082b61286b565b60200260200101906001600160a01b031690816001600160a01b03168152505061086d8482815181106108605761086061286b565b6020026020010151611506565b6000600c60008684815181106108855761088561286b565b602090810291909101810151825281019190915260400160002080546001600160a01b0319166001600160a01b03929092169190911790556001016107ee565b50336001600160a01b03167fdcd0cfc5596f7922b66d78eb868e28cd8f356952d1f7f589d467d7107ad3d2dd8285604051610901929190612881565b60405180910390a2505050565b600080516020612c71833981519152610926816114fc565b600061093183610c2f565b905061093c83611506565b6000838152600c60205260409081902080546001600160a01b03191690555133906001600160a01b038316907f1b0d5fb22a7bd6488427342953b1f43743eda17130144de1ea68a9058355d3fb906109979087815260200190565b60405180910390a3505050565b60006109af816114fc565b6109bb600a84846121cd565b50505050565b6109cb33826115a7565b6109e75760405162461bcd60e51b81526004016106e590612905565b610786838383611626565b600082815260066020526040902060010154610a0d816114fc565b6107868383611795565b6001600160a01b0381163314610a875760405162461bcd60e51b815260206004820152602f60248201527f416363657373436f6e74726f6c3a2063616e206f6e6c792072656e6f756e636560448201526e103937b632b9903337b91039b2b63360891b60648201526084016106e5565b610a9182826117b7565b5050565b6107868383836040518060200160405280600081525061103d565b33610aba82610c2f565b6001600160a01b031614610b1c5760405162461bcd60e51b815260206004820152602360248201527f4f6e6c7920746865206f776e65722063616e206275726e20746865697220746f60448201526235b2b760e91b60648201526084016106e5565b610b2581611506565b6000818152600c6020908152604080832080546001600160a01b0319169055600d8252808320805461ffff191690555183815233917f1b0d5fb22a7bd6488427342953b1f43743eda17130144de1ea68a9058355d3fb910160405180910390a350565b61ffff81166000908152600b60205260409020805460609190610baa90612831565b80601f0160208091040260200160405190810160405280929190818152602001828054610bd690612831565b8015610c235780601f10610bf857610100808354040283529160200191610c23565b820191906000526020600020905b815481529060010190602001808311610c0657829003601f168201915b50505050509050919050565b6000818152600260205260408120546001600160a01b0316806105b25760405162461bcd60e51b8152602060048201526018602482015277115490cdcc8c4e881a5b9d985b1a59081d1bdad95b88125160421b60448201526064016106e5565b6000818152600d602090815260408083205461ffff168352600b9091529020805460609190610baa90612831565b60006001600160a01b038216610d275760405162461bcd60e51b815260206004820152602960248201527f4552433732313a2061646472657373207a65726f206973206e6f7420612076616044820152683634b21037bbb732b960b91b60648201526084016106e5565b506001600160a01b031660009081526003602052604090205490565b6000610d4e816114fc565b610d57846117d9565b610d735760405162461bcd60e51b81526004016106e590612952565b81610db25760405162461bcd60e51b815260206004820152600f60248201526e496e76616c6964207479706555524960881b60448201526064016106e5565b61ffff84166000908152600b60205260409020610dd09084846121cd565b507fdc86cf909261f03097a94d7a759421659cb255578ed96118d9ea96a32d424dd5848484604051610e049392919061297b565b60405180910390a150505050565b6000828152600760205260408120610e2a908361180b565b9392505050565b60009182526006602090815260408084206001600160a01b0393909316845291905290205460ff1690565b6060600180546105c790612831565b610a91338383611817565b600080516020612c71833981519152610e8e816114fc565b610e97826117d9565b610eb35760405162461bcd60e51b81526004016106e590612952565b60088054906000610ec3836129cb565b9190505550610ed4836008546118dd565b600880546000908152600c602090815260408083208054336001600160a01b0319909116811790915584548452600d835292819020805461ffff191661ffff881690811790915593548151908152918201939093526001600160a01b038616927f41ddb298124e0da68871b0019ae3694217bfe6d6b113248eb257552eec74268e9101610997565b600080516020612c71833981519152610f74816114fc565b81610fb35760405162461bcd60e51b815260206004820152600f60248201526e496e76616c6964207479706555524960881b60448201526064016106e5565b6009805461ffff16906000610fc7836129e4565b82546101009290920a61ffff818102199093169183160217909155600954166000908152600b60205260409020611000915084846121cd565b5060095460405133917fadd3eb4561a4fd4de77bdc61981a52d574518ca58af23209a9d827254388abf1916109019161ffff16908790879061297b565b61104733836115a7565b6110635760405162461bcd60e51b81526004016106e590612905565b6109bb848484846118f7565b600080516020612c71833981519152611087816114fc565b611090826117d9565b6110ac5760405162461bcd60e51b81526004016106e590612952565b60005b83518110156109bb57600880549060006110c8836129cb565b91905055506110f28482815181106110e2576110e261286b565b60200260200101516008546118dd565b600880546000908152600c6020908152604080832080546001600160a01b0319163317905592548252600d905220805461ffff851661ffff1990911617905583518490829081106111455761114561286b565b60200260200101516001600160a01b0316336001600160a01b03167f41ddb298124e0da68871b0019ae3694217bfe6d6b113248eb257552eec74268e600854866040516111a092919091825261ffff16602082015260400190565b60405180910390a36001016110af565b60606111bb8261142c565b60006111d260408051602081019091526000815290565b905060008151116111f25760405180602001604052806000815250610e2a565b806111fc8461192a565b60405160200161120d929190612a05565b6040516020818303038152906040529392505050565b60008181526007602052604081206105b290611a2b565b600080516020612c71833981519152611252816114fc565b61125b826117d9565b6112775760405162461bcd60e51b81526004016106e590612952565b6000838152600260205260409020546001600160a01b03166112db5760405162461bcd60e51b815260206004820152601a60248201527f464f5242494444454e3a20496e76616c696420746f6b656e496400000000000060448201526064016106e5565b6000838152600d6020908152604091829020805461ffff191661ffff86169081179091558251868152918201527f6ddfe9db30cf58862bb534375072568ccc4a9bac7cd79e26252b116f6b3be36a910160405180910390a1505050565b600082815260066020526040902060010154611353816114fc565b61078683836117b7565b6060600a80546105c790612831565b6113768282610e31565b610a915760008281526006602090815260408083206001600160a01b03851684529091529020805460ff191660011790556113ae3390565b6001600160a01b0316816001600160a01b0316837f2f8788117e7eff1d82e926ec794901d17c78024a50270940304540a733656f0d60405160405180910390a45050565b6000610e2a836001600160a01b038416611a35565b60006001600160e01b03198216635a05180f60e01b14806105b257506105b282611a84565b6000818152600260205260409020546001600160a01b031661148b5760405162461bcd60e51b8152602060048201526018602482015277115490cdcc8c4e881a5b9d985b1a59081d1bdad95b88125160421b60448201526064016106e5565b50565b600081815260046020526040902080546001600160a01b0319166001600160a01b03841690811790915581906114c382610c2f565b6001600160a01b03167f8c5be1e5ebec7d5bd14f71427d1e84f3dd0314c0f7b2291e5b200ac8c7c3b92560405160405180910390a45050565b61148b8133611aa9565b600061151182610c2f565b905061151f81600084611b02565b61152882610c2f565b600083815260046020908152604080832080546001600160a01b03199081169091556001600160a01b0385168085526003845282852080546000190190558785526002909352818420805490911690555192935084927fddf252ad1be2c89b69c2b068fc378daa952ba7f163c4a11628f55a4df523b3ef908390a45050565b6000806115b383610c2f565b9050806001600160a01b0316846001600160a01b031614806115fa57506001600160a01b0380821660009081526005602090815260408083209388168352929052205460ff165b8061161e5750836001600160a01b03166116138461064a565b6001600160a01b0316145b949350505050565b826001600160a01b031661163982610c2f565b6001600160a01b03161461165f5760405162461bcd60e51b81526004016106e590612a34565b6001600160a01b0382166116c15760405162461bcd60e51b8152602060048201526024808201527f4552433732313a207472616e7366657220746f20746865207a65726f206164646044820152637265737360e01b60648201526084016106e5565b6116cc838383611b02565b826001600160a01b03166116df82610c2f565b6001600160a01b0316146117055760405162461bcd60e51b81526004016106e590612a34565b600081815260046020908152604080832080546001600160a01b03199081169091556001600160a01b0387811680865260038552838620805460001901905590871680865283862080546001019055868652600290945282852080549092168417909155905184937fddf252ad1be2c89b69c2b068fc378daa952ba7f163c4a11628f55a4df523b3ef91a4505050565b61179f828261136c565b600082815260076020526040902061078690826113f2565b6117c18282611b6b565b60008281526007602052604090206107869082611bd2565b6000808261ffff161180156105b257506009546117fb9061ffff166001612a79565b61ffff168261ffff161092915050565b6000610e2a8383611be7565b816001600160a01b0316836001600160a01b0316036118785760405162461bcd60e51b815260206004820152601960248201527f4552433732313a20617070726f766520746f2063616c6c65720000000000000060448201526064016106e5565b6001600160a01b03838116600081815260056020908152604080832094871680845294825291829020805460ff191686151590811790915591519182527f17307eab39ab6107e8899845ad3d59bd9653f200f220920489ca2b5937696c319101610997565b610a91828260405180602001604052806000815250611c11565b611902848484611626565b61190e84848484611c44565b6109bb5760405162461bcd60e51b81526004016106e590612a96565b6060816000036119515750506040805180820190915260018152600360fc1b602082015290565b8160005b811561197b5780611965816129cb565b91506119749050600a83612afe565b9150611955565b60008167ffffffffffffffff81111561199657611996612363565b6040519080825280601f01601f1916602001820160405280156119c0576020820181803683370190505b5090505b841561161e576119d5600183612b12565b91506119e2600a86612b29565b6119ed906030612b3d565b60f81b818381518110611a0257611a0261286b565b60200101906001600160f81b031916908160001a905350611a24600a86612afe565b94506119c4565b60006105b2825490565b6000818152600183016020526040812054611a7c575081546001818101845560008481526020808220909301849055845484825282860190935260409020919091556105b2565b5060006105b2565b60006001600160e01b03198216637965db0b60e01b14806105b257506105b282611d45565b611ab38282610e31565b610a9157611ac081611d95565b611acb836020611da7565b604051602001611adc929190612b55565b60408051601f198184030181529082905262461bcd60e51b82526106e5916004016122f1565b6001600160a01b0382161580611b1f57506001600160a01b038316155b6107865760405162461bcd60e51b815260206004820152601d60248201527f5468697320746f6b656e2063616e206f6e6c79206265206275726e656400000060448201526064016106e5565b611b758282610e31565b15610a915760008281526006602090815260408083206001600160a01b0385168085529252808320805460ff1916905551339285917ff6391f5c32d9c69d2a47ea670b442974b53935d1edc7fd64eb21e047a839171b9190a45050565b6000610e2a836001600160a01b038416611f43565b6000826000018281548110611bfe57611bfe61286b565b9060005260206000200154905092915050565b611c1b8383612036565b611c286000848484611c44565b6107865760405162461bcd60e51b81526004016106e590612a96565b60006001600160a01b0384163b15611d3a57604051630a85bd0160e11b81526001600160a01b0385169063150b7a0290611c88903390899088908890600401612bca565b6020604051808303816000875af1925050508015611cc3575060408051601f3d908101601f19168201909252611cc091810190612c07565b60015b611d20573d808015611cf1576040519150601f19603f3d011682016040523d82523d6000602084013e611cf6565b606091505b508051600003611d185760405162461bcd60e51b81526004016106e590612a96565b805181602001fd5b6001600160e01b031916630a85bd0160e11b14905061161e565b506001949350505050565b60006001600160e01b031982166380ac58cd60e01b1480611d7657506001600160e01b03198216635b5e139f60e01b145b806105b257506301ffc9a760e01b6001600160e01b03198316146105b2565b60606105b26001600160a01b03831660145b60606000611db6836002612c24565b611dc1906002612b3d565b67ffffffffffffffff811115611dd957611dd9612363565b6040519080825280601f01601f191660200182016040528015611e03576020820181803683370190505b509050600360fc1b81600081518110611e1e57611e1e61286b565b60200101906001600160f81b031916908160001a905350600f60fb1b81600181518110611e4d57611e4d61286b565b60200101906001600160f81b031916908160001a9053506000611e71846002612c24565b611e7c906001612b3d565b90505b6001811115611ef4576f181899199a1a9b1b9c1cb0b131b232b360811b85600f1660108110611eb057611eb061286b565b1a60f81b828281518110611ec657611ec661286b565b60200101906001600160f81b031916908160001a90535060049490941c93611eed81612c43565b9050611e7f565b508315610e2a5760405162461bcd60e51b815260206004820181905260248201527f537472696e67733a20686578206c656e67746820696e73756666696369656e7460448201526064016106e5565b6000818152600183016020526040812054801561202c576000611f67600183612b12565b8554909150600090611f7b90600190612b12565b9050818114611fe0576000866000018281548110611f9b57611f9b61286b565b9060005260206000200154905080876000018481548110611fbe57611fbe61286b565b6000918252602080832090910192909255918252600188019052604090208390555b8554869080611ff157611ff1612c5a565b6001900381819060005260206000200160009055905585600101600086815260200190815260200160002060009055600193505050506105b2565b60009150506105b2565b6001600160a01b03821661208c5760405162461bcd60e51b815260206004820181905260248201527f4552433732313a206d696e7420746f20746865207a65726f206164647265737360448201526064016106e5565b6000818152600260205260409020546001600160a01b0316156120f15760405162461bcd60e51b815260206004820152601c60248201527f4552433732313a20746f6b656e20616c7265616479206d696e7465640000000060448201526064016106e5565b6120fd60008383611b02565b6000818152600260205260409020546001600160a01b0316156121625760405162461bcd60e51b815260206004820152601c60248201527f4552433732313a20746f6b656e20616c7265616479206d696e7465640000000060448201526064016106e5565b6001600160a01b038216600081815260036020908152604080832080546001019055848352600290915280822080546001600160a01b0319168417905551839291907fddf252ad1be2c89b69c2b068fc378daa952ba7f163c4a11628f55a4df523b3ef908290a45050565b8280546121d990612831565b90600052602060002090601f0160209004810192826121fb5760008555612241565b82601f106122145782800160ff19823516178555612241565b82800160010185558215612241579182015b82811115612241578235825591602001919060010190612226565b5061224d929150612251565b5090565b5b8082111561224d5760008155600101612252565b6001600160e01b03198116811461148b57600080fd5b60006020828403121561228e57600080fd5b8135610e2a81612266565b60005b838110156122b457818101518382015260200161229c565b838111156109bb5750506000910152565b600081518084526122dd816020860160208601612299565b601f01601f19169290920160200192915050565b602081526000610e2a60208301846122c5565b60006020828403121561231657600080fd5b5035919050565b80356001600160a01b038116811461233457600080fd5b919050565b6000806040838503121561234c57600080fd5b6123558361231d565b946020939093013593505050565b634e487b7160e01b600052604160045260246000fd5b604051601f8201601f1916810167ffffffffffffffff811182821017156123a2576123a2612363565b604052919050565b600067ffffffffffffffff8211156123c4576123c4612363565b5060051b60200190565b600060208083850312156123e157600080fd5b823567ffffffffffffffff8111156123f857600080fd5b8301601f8101851361240957600080fd5b803561241c612417826123aa565b612379565b81815260059190911b8201830190838101908783111561243b57600080fd5b928401925b8284101561245957833582529284019290840190612440565b979650505050505050565b60008083601f84011261247657600080fd5b50813567ffffffffffffffff81111561248e57600080fd5b6020830191508360208285010111156124a657600080fd5b9250929050565b600080602083850312156124c057600080fd5b823567ffffffffffffffff8111156124d757600080fd5b6124e385828601612464565b90969095509350505050565b60008060006060848603121561250457600080fd5b61250d8461231d565b925061251b6020850161231d565b9150604084013590509250925092565b6000806040838503121561253e57600080fd5b8235915061254e6020840161231d565b90509250929050565b803561ffff8116811461233457600080fd5b60006020828403121561257b57600080fd5b610e2a82612557565b60006020828403121561259657600080fd5b610e2a8261231d565b6000806000604084860312156125b457600080fd5b6125bd84612557565b9250602084013567ffffffffffffffff8111156125d957600080fd5b6125e586828701612464565b9497909650939450505050565b6000806040838503121561260557600080fd5b50508035926020909101359150565b6000806040838503121561262757600080fd5b6126308361231d565b91506020830135801515811461264557600080fd5b809150509250929050565b6000806040838503121561266357600080fd5b61266c8361231d565b915061254e60208401612557565b6000806000806080858703121561269057600080fd5b6126998561231d565b935060206126a881870161231d565b935060408601359250606086013567ffffffffffffffff808211156126cc57600080fd5b818801915088601f8301126126e057600080fd5b8135818111156126f2576126f2612363565b612704601f8201601f19168501612379565b9150808252898482850101111561271a57600080fd5b808484018584013760008482840101525080935050505092959194509250565b6000806040838503121561274d57600080fd5b823567ffffffffffffffff81111561276457600080fd5b8301601f8101851361277557600080fd5b80356020612785612417836123aa565b82815260059290921b830181019181810190888411156127a457600080fd5b938201935b838510156127c9576127ba8561231d565b825293820193908201906127a9565b95506127d89050868201612557565b93505050509250929050565b600080604083850312156127f757600080fd5b8235915061254e60208401612557565b6000806040838503121561281a57600080fd5b6128238361231d565b915061254e6020840161231d565b600181811c9082168061284557607f821691505b60208210810361286557634e487b7160e01b600052602260045260246000fd5b50919050565b634e487b7160e01b600052603260045260246000fd5b604080825283519082018190526000906020906060840190828701845b828110156128c35781516001600160a01b03168452928401929084019060010161289e565b5050508381038285015284518082528583019183019060005b818110156128f8578351835292840192918401916001016128dc565b5090979650505050505050565b6020808252602d908201527f4552433732313a2063616c6c6572206973206e6f7420746f6b656e206f776e6560408201526c1c881bdc88185c1c1c9bdd9959609a1b606082015260800190565b6020808252600f908201526e496e76616c6964205342207479706560881b604082015260600190565b61ffff8416815260406020820152816040820152818360608301376000818301606090810191909152601f909201601f1916010192915050565b634e487b7160e01b600052601160045260246000fd5b6000600182016129dd576129dd6129b5565b5060010190565b600061ffff8083168181036129fb576129fb6129b5565b6001019392505050565b60008351612a17818460208801612299565b835190830190612a2b818360208801612299565b01949350505050565b60208082526025908201527f4552433732313a207472616e736665722066726f6d20696e636f72726563742060408201526437bbb732b960d91b606082015260800190565b600061ffff808316818516808303821115612a2b57612a2b6129b5565b60208082526032908201527f4552433732313a207472616e7366657220746f206e6f6e20455243373231526560408201527131b2b4bb32b91034b6b83632b6b2b73a32b960711b606082015260800190565b634e487b7160e01b600052601260045260246000fd5b600082612b0d57612b0d612ae8565b500490565b600082821015612b2457612b246129b5565b500390565b600082612b3857612b38612ae8565b500690565b60008219821115612b5057612b506129b5565b500190565b7f416363657373436f6e74726f6c3a206163636f756e7420000000000000000000815260008351612b8d816017850160208801612299565b7001034b99036b4b9b9b4b733903937b6329607d1b6017918401918201528351612bbe816028840160208801612299565b01602801949350505050565b6001600160a01b0385811682528416602082015260408101839052608060608201819052600090612bfd908301846122c5565b9695505050505050565b600060208284031215612c1957600080fd5b8151610e2a81612266565b6000816000190483118215151615612c3e57612c3e6129b5565b500290565b600081612c5257612c526129b5565b506000190190565b634e487b7160e01b600052603160045260246000fdfe663244bfd3de81cc055674c09ade24d4646b75863d5d9dd77d1544f2eb5acc26a26469706673582212204a72b4f78abb06f220ba8c1ecd11e732ca5de83856acc81ce993762202a3129e64736f6c634300080d0033663244bfd3de81cc055674c09ade24d4646b75863d5d9dd77d1544f2eb5acc26a264697066735822122023df6ed7b151bd34d053f1eea6dea70f28791a871aad948fd5e88a5273f2b41e64736f6c634300080d0033",
    "linkReferences": {}
  },
  "methodIdentifiers": {
    "deployToken(string,string,bytes)": "b5327009"
  },
  "id": 22
}