{
  "abi": [
    {
      "anonymous": false,
      "inputs": [
        {
          "indexed": true,
          "internalType": "address",
          "name": "token",
          "type": "address"
        },
        {
          "indexed": true,
          "internalType": "address",
          "name": "owner",
          "type": "address"
        }
      ],
      "name": "TokenCreated",
      "type": "event"
    },
    {
      "inputs": [
        {
          "internalType": "string",
          "name": "_name",
          "type": "string"
        },
        {
          "internalType": "string",
          "name": "_symbol",
          "type": "string"
        },
        {
          "internalType": "bytes",
          "name": "_metadata",
          "type": "bytes"
        }
      ],
      "name": "deployToken",
      "outputs": [
        {
          "internalType": "address",
          "name": "token",
          "type": "address"
        }
      ],
      "stateMutability": "nonpayable",
      "type": "function"
    }
  ],
  "bytecode": {
    "object": "0x608060405234801561001057600080fd5b50613631806100206000396000f3fe60806040523480156200001157600080fd5b50600436106200002e5760003560e01c8063b53270091462000033575b600080fd5b6200004a6200004436600462000231565b62000066565b6040516001600160a01b03909116815260200160405180910390f35b600080604051806020016200007b9062000166565b601f1982820381018352601f909101166040819052620000a690879087908790339060200162000339565b60408051601f1981840301815290829052620000c6929160200162000392565b60408051601f19818403018152908290526bffffffffffffffffffffffff193360601b1660208301529150600090603401604051602081830303815290604052805190602001209050808251602084016000f59250823b6200012757600080fd5b60405133906001600160a01b038516907fd5f9bdf12adf29dab0248c349842c3822d53ae2bb4f36352f301630d018c813990600090a350509392505050565b61323680620003c683390190565b634e487b7160e01b600052604160045260246000fd5b600067ffffffffffffffff80841115620001a857620001a862000174565b604051601f8501601f19908116603f01168101908282118183101715620001d357620001d362000174565b81604052809350858152868686011115620001ed57600080fd5b858560208301376000602087830101525050509392505050565b600082601f8301126200021957600080fd5b6200022a838335602085016200018a565b9392505050565b6000806000606084860312156200024757600080fd5b833567ffffffffffffffff808211156200026057600080fd5b6200026e8783880162000207565b945060208601359150808211156200028557600080fd5b620002938783880162000207565b93506040860135915080821115620002aa57600080fd5b508401601f81018613620002bd57600080fd5b620002ce868235602084016200018a565b9150509250925092565b60005b83811015620002f5578181015183820152602001620002db565b8381111562000305576000848401525b50505050565b6000815180845262000325816020860160208601620002d8565b601f01601f19169290920160200192915050565b6080815260006200034e60808301876200030b565b82810360208401526200036281876200030b565b905082810360408401526200037881866200030b565b91505060018060a01b038316606083015295945050505050565b60008351620003a6818460208801620002d8565b835190830190620003bc818360208801620002d8565b0194935050505056fe60806040523480156200001157600080fd5b50604051620032363803806200323683398101604081905262000034916200034e565b83836000620000448382620004a4565b506001620000538282620004a4565b50506009805462010000600160b01b03191633620100000217905550600a6200007d8382620004a4565b506200009a600080516020620032168339815191526000620000cc565b620000b5600080516020620032168339815191528262000117565b620000c260008262000117565b5050505062000570565b600082815260066020526040808220600101805490849055905190918391839186917fbd79b86ffe0ab8e8776151514217cd7cacd52c909f66475c3af44e129f0b00ff9190a4505050565b6200012e82826200015a60201b6200134a1760201c565b600082815260076020908152604090912062000155918390620013d0620001ff821b17901c565b505050565b60008281526006602090815260408083206001600160a01b038516845290915290205460ff16620001fb5760008281526006602090815260408083206001600160a01b03851684529091529020805460ff19166001179055620001ba3390565b6001600160a01b0316816001600160a01b0316837f2f8788117e7eff1d82e926ec794901d17c78024a50270940304540a733656f0d60405160405180910390a45b5050565b600062000216836001600160a01b0384166200021f565b90505b92915050565b6000818152600183016020526040812054620002685750815460018181018455600084815260208082209093018490558454848252828601909352604090209190915562000219565b50600062000219565b634e487b7160e01b600052604160045260246000fd5b60006001600160401b0380841115620002a457620002a462000271565b604051601f8501601f19908116603f01168101908282118183101715620002cf57620002cf62000271565b81604052809350858152868686011115620002e957600080fd5b600092505b858310156200030e578285015160208483010152602083019250620002ee565b8583111562000321576000602087830101525b5050509392505050565b600082601f8301126200033d57600080fd5b620002168383516020850162000287565b600080600080608085870312156200036557600080fd5b84516001600160401b03808211156200037d57600080fd5b6200038b888389016200032b565b95506020870151915080821115620003a257600080fd5b620003b0888389016200032b565b94506040870151915080821115620003c757600080fd5b508501601f81018713620003da57600080fd5b620003eb8782516020840162000287565b606087015190935090506001600160a01b03811681146200040b57600080fd5b939692955090935050565b600181811c908216806200042b57607f821691505b6020821081036200044c57634e487b7160e01b600052602260045260246000fd5b50919050565b601f8211156200015557600081815260208120601f850160051c810160208610156200047b5750805b601f850160051c820191505b818110156200049c5782815560010162000487565b505050505050565b81516001600160401b03811115620004c057620004c062000271565b620004d881620004d1845462000416565b8462000452565b602080601f831160018114620005105760008415620004f75750858301515b600019600386901b1c1916600185901b1785556200049c565b600085815260208120601f198616915b82811015620005415788860151825594840194600190910190840162000520565b5085821015620005605787850151600019600388901b60f8161c191681555b5050505050600190811b01905550565b612c9680620005806000396000f3fe608060405234801561001057600080fd5b50600436106102325760003560e01c806379cdf6ad11610130578063b88d4fde116100b8578063cf4fc7bb1161007c578063cf4fc7bb14610515578063d547741f14610528578063e8a3d4851461053b578063e985e9c514610543578063f15df2e51461057f57600080fd5b8063b88d4fde146104b4578063bf5c2c88146104c7578063c0ba241b146104da578063c87b56dd146104ef578063ca15c8731461050257600080fd5b806395d89b41116100ff57806395d89b411461046b578063a217fddf14610473578063a22cb4651461047b578063ad0be4bd1461048e578063b64da769146104a157600080fd5b806379cdf6ad146104095780638f6dbbbb146104325780639010d07c1461044557806391d148541461045857600080fd5b8063248a9ca3116101be57806342966c681161018257806342966c68146103aa5780634b185b60146103bd5780636352211e146103d05780636972fbb8146103e357806370a08231146103f657600080fd5b8063248a9ca3146103175780632f2ff15d1461033a578063356ee3351461034d57806336568abe1461038457806342842e0e1461039757600080fd5b806318160ddd1161020557806318160ddd146102b45780631c02a97c146102cb57806320c5429b146102de5780632329319a146102f157806323b872dd1461030457600080fd5b806301ffc9a71461023757806306fdde031461025f578063081812fc14610274578063095ea7b31461029f575b600080fd5b61024a6102453660046121c1565b61058d565b60405190151581526020015b60405180910390f35b6102676105b8565b6040516102569190612236565b610287610282366004612249565b61064a565b6040516001600160a01b039091168152602001610256565b6102b26102ad36600461227e565b610671565b005b6102bd60085481565b604051908152602001610256565b6102b26102d9366004612313565b61078b565b6102b26102ec366004612249565b6108d9565b6102b26102ff3660046123f2565b610964565b6102b2610312366004612434565b610982565b6102bd610325366004612249565b60009081526006602052604090206001015490565b6102b2610348366004612470565b6109b3565b61037161035b366004612249565b600d6020526000908152604090205461ffff1681565b60405161ffff9091168152602001610256565b6102b2610392366004612470565b6109d8565b6102b26103a5366004612434565b610a56565b6102b26103b8366004612249565b610a71565b6102676103cb3660046124ae565b610b4f565b6102876103de366004612249565b610bf6565b6102676103f1366004612249565b610c56565b6102bd6104043660046124c9565b610c84565b610287610417366004612249565b600c602052600090815260409020546001600160a01b031681565b6102b26104403660046124e4565b610d0a565b610287610453366004612537565b610dd9565b61024a610466366004612470565b610df8565b610267610e23565b6102bd600081565b6102b2610489366004612559565b610e32565b6102b261049c366004612595565b610e3d565b6102b26104af3660046123f2565b610f2c565b6102b26104c23660046125bf565b61101b565b6102b26104d536600461267f565b61104d565b6102bd600080516020612c4183398151915281565b6102676104fd366004612249565b61118e565b6102bd610510366004612249565b611201565b6102b2610523366004612729565b611218565b6102b2610536366004612470565b611316565b61026761133b565b61024a61055136600461274c565b6001600160a01b03918216600090815260056020908152604080832093909416825291909152205460ff1690565b6009546103719061ffff1681565b60006001600160e01b03198216635a05180f60e01b14806105b257506105b2826113e5565b92915050565b6060600080546105c790612776565b80601f01602080910402602001604051908101604052809291908181526020018280546105f390612776565b80156106405780601f1061061557610100808354040283529160200191610640565b820191906000526020600020905b81548152906001019060200180831161062357829003601f168201915b5050505050905090565b60006106558261140a565b506000908152600460205260409020546001600160a01b031690565b600061067c82610bf6565b9050806001600160a01b0316836001600160a01b0316036106ee5760405162461bcd60e51b815260206004820152602160248201527f4552433732313a20617070726f76616c20746f2063757272656e74206f776e656044820152603960f91b60648201526084015b60405180910390fd5b336001600160a01b038216148061070a575061070a8133610551565b61077c5760405162461bcd60e51b815260206004820152603d60248201527f4552433732313a20617070726f76652063616c6c6572206973206e6f7420746f60448201527f6b656e206f776e6572206f7220617070726f76656420666f7220616c6c00000060648201526084016106e5565b610786838361146c565b505050565b600080516020612c418339815191526107a3816114da565b60005b8251811015610786576107d18382815181106107c4576107c46127b0565b60200260200101516114e4565b6000600c60008584815181106107e9576107e96127b0565b6020026020010151815260200190815260200160002060006101000a8154816001600160a01b0302191690836001600160a01b031602179055506000600d600085848151811061083b5761083b6127b0565b6020026020010151815260200190815260200160002060006101000a81548161ffff021916908361ffff1602179055507f713b90881ad62c4fa8ab6bd9197fa86481fc0c11b2edba60026514281b2dbac43384838151811061089f5761089f6127b0565b60200260200101516040516108c99291906001600160a01b03929092168252602082015260400190565b60405180910390a16001016107a6565b600080516020612c418339815191526108f1816114da565b6108fa826114e4565b6000828152600c6020908152604080832080546001600160a01b0319169055600d825291829020805461ffff1916905581513381529081018490527f713b90881ad62c4fa8ab6bd9197fa86481fc0c11b2edba60026514281b2dbac4910160405180910390a15050565b600061096f816114da565b600a61097c838583612814565b50505050565b61098c3382611585565b6109a85760405162461bcd60e51b81526004016106e5906128d5565b610786838383611604565b6000828152600660205260409020600101546109ce816114da565b6107868383611773565b6001600160a01b0381163314610a485760405162461bcd60e51b815260206004820152602f60248201527f416363657373436f6e74726f6c3a2063616e206f6e6c792072656e6f756e636560448201526e103937b632b9903337b91039b2b63360891b60648201526084016106e5565b610a528282611795565b5050565b6107868383836040518060200160405280600081525061101b565b33610a7b82610bf6565b6001600160a01b031614610add5760405162461bcd60e51b815260206004820152602360248201527f4f6e6c7920746865206f776e65722063616e206275726e20746865697220746f60448201526235b2b760e91b60648201526084016106e5565b610ae6816114e4565b6000818152600c6020908152604080832080546001600160a01b0319169055600d825291829020805461ffff1916905581513381529081018390527f713b90881ad62c4fa8ab6bd9197fa86481fc0c11b2edba60026514281b2dbac4910160405180910390a150565b61ffff81166000908152600b60205260409020805460609190610b7190612776565b80601f0160208091040260200160405190810160405280929190818152602001828054610b9d90612776565b8015610bea5780601f10610bbf57610100808354040283529160200191610bea565b820191906000526020600020905b815481529060010190602001808311610bcd57829003601f168201915b50505050509050919050565b6000818152600260205260408120546001600160a01b0316806105b25760405162461bcd60e51b8152602060048201526018602482015277115490cdcc8c4e881a5b9d985b1a59081d1bdad95b88125160421b60448201526064016106e5565b6000818152600d602090815260408083205461ffff168352600b9091529020805460609190610b7190612776565b60006001600160a01b038216610cee5760405162461bcd60e51b815260206004820152602960248201527f4552433732313a2061646472657373207a65726f206973206e6f7420612076616044820152683634b21037bbb732b960b91b60648201526084016106e5565b506001600160a01b031660009081526003602052604090205490565b6000610d15816114da565b610d1e846117b7565b610d3a5760405162461bcd60e51b81526004016106e590612922565b81610d795760405162461bcd60e51b815260206004820152600f60248201526e496e76616c6964207479706555524960881b60448201526064016106e5565b61ffff84166000908152600b60205260409020610d97838583612814565b507fdc86cf909261f03097a94d7a759421659cb255578ed96118d9ea96a32d424dd5848484604051610dcb9392919061294b565b60405180910390a150505050565b6000828152600760205260408120610df190836117e9565b9392505050565b60009182526006602090815260408084206001600160a01b0393909316845291905290205460ff1690565b6060600180546105c790612776565b610a523383836117f5565b600080516020612c41833981519152610e55816114da565b610e5e826117b7565b610e7a5760405162461bcd60e51b81526004016106e590612922565b60088054906000610e8a8361299b565b9190505550610e9b836008546118bb565b600880546000908152600c602090815260408083208054336001600160a01b0319909116811790915584548452600d835292819020805461ffff191661ffff881690811790915593548151908152918201939093526001600160a01b038616927f41ddb298124e0da68871b0019ae3694217bfe6d6b113248eb257552eec74268e91015b60405180910390a3505050565b600080516020612c41833981519152610f44816114da565b81610f835760405162461bcd60e51b815260206004820152600f60248201526e496e76616c6964207479706555524960881b60448201526064016106e5565b6009805461ffff16906000610f97836129b4565b82546101009290920a61ffff818102199093169183160217909155600954166000908152600b602052604090209050610fd1838583612814565b5060095460405133917fadd3eb4561a4fd4de77bdc61981a52d574518ca58af23209a9d827254388abf19161100e9161ffff16908790879061294b565b60405180910390a2505050565b6110253383611585565b6110415760405162461bcd60e51b81526004016106e5906128d5565b61097c848484846118d5565b600080516020612c41833981519152611065816114da565b61106e826117b7565b61108a5760405162461bcd60e51b81526004016106e590612922565b60005b835181101561097c57600880549060006110a68361299b565b91905055506110d08482815181106110c0576110c06127b0565b60200260200101516008546118bb565b600880546000908152600c6020908152604080832080546001600160a01b0319163317905592548252600d905220805461ffff851661ffff199091161790558351849082908110611123576111236127b0565b60200260200101516001600160a01b0316336001600160a01b03167f41ddb298124e0da68871b0019ae3694217bfe6d6b113248eb257552eec74268e6008548660405161117e92919091825261ffff16602082015260400190565b60405180910390a360010161108d565b60606111998261140a565b60006111b060408051602081019091526000815290565b905060008151116111d05760405180602001604052806000815250610df1565b806111da84611908565b6040516020016111eb9291906129d5565b6040516020818303038152906040529392505050565b60008181526007602052604081206105b290611a09565b600080516020612c41833981519152611230816114da565b611239826117b7565b6112555760405162461bcd60e51b81526004016106e590612922565b6000838152600260205260409020546001600160a01b03166112b95760405162461bcd60e51b815260206004820152601a60248201527f464f5242494444454e3a20496e76616c696420746f6b656e496400000000000060448201526064016106e5565b6000838152600d6020908152604091829020805461ffff191661ffff86169081179091558251868152918201527f6ddfe9db30cf58862bb534375072568ccc4a9bac7cd79e26252b116f6b3be36a910160405180910390a1505050565b600082815260066020526040902060010154611331816114da565b6107868383611795565b6060600a80546105c790612776565b6113548282610df8565b610a525760008281526006602090815260408083206001600160a01b03851684529091529020805460ff1916600117905561138c3390565b6001600160a01b0316816001600160a01b0316837f2f8788117e7eff1d82e926ec794901d17c78024a50270940304540a733656f0d60405160405180910390a45050565b6000610df1836001600160a01b038416611a13565b60006001600160e01b03198216635a05180f60e01b14806105b257506105b282611a62565b6000818152600260205260409020546001600160a01b03166114695760405162461bcd60e51b8152602060048201526018602482015277115490cdcc8c4e881a5b9d985b1a59081d1bdad95b88125160421b60448201526064016106e5565b50565b600081815260046020526040902080546001600160a01b0319166001600160a01b03841690811790915581906114a182610bf6565b6001600160a01b03167f8c5be1e5ebec7d5bd14f71427d1e84f3dd0314c0f7b2291e5b200ac8c7c3b92560405160405180910390a45050565b6114698133611a87565b60006114ef82610bf6565b90506114fd81600084611ae0565b61150682610bf6565b600083815260046020908152604080832080546001600160a01b03199081169091556001600160a01b0385168085526003845282852080546000190190558785526002909352818420805490911690555192935084927fddf252ad1be2c89b69c2b068fc378daa952ba7f163c4a11628f55a4df523b3ef908390a45050565b60008061159183610bf6565b9050806001600160a01b0316846001600160a01b031614806115d857506001600160a01b0380821660009081526005602090815260408083209388168352929052205460ff165b806115fc5750836001600160a01b03166115f18461064a565b6001600160a01b0316145b949350505050565b826001600160a01b031661161782610bf6565b6001600160a01b03161461163d5760405162461bcd60e51b81526004016106e590612a04565b6001600160a01b03821661169f5760405162461bcd60e51b8152602060048201526024808201527f4552433732313a207472616e7366657220746f20746865207a65726f206164646044820152637265737360e01b60648201526084016106e5565b6116aa838383611ae0565b826001600160a01b03166116bd82610bf6565b6001600160a01b0316146116e35760405162461bcd60e51b81526004016106e590612a04565b600081815260046020908152604080832080546001600160a01b03199081169091556001600160a01b0387811680865260038552838620805460001901905590871680865283862080546001019055868652600290945282852080549092168417909155905184937fddf252ad1be2c89b69c2b068fc378daa952ba7f163c4a11628f55a4df523b3ef91a4505050565b61177d828261134a565b600082815260076020526040902061078690826113d0565b61179f8282611b49565b60008281526007602052604090206107869082611bb0565b6000808261ffff161180156105b257506009546117d99061ffff166001612a49565b61ffff168261ffff161092915050565b6000610df18383611bc5565b816001600160a01b0316836001600160a01b0316036118565760405162461bcd60e51b815260206004820152601960248201527f4552433732313a20617070726f766520746f2063616c6c65720000000000000060448201526064016106e5565b6001600160a01b03838116600081815260056020908152604080832094871680845294825291829020805460ff191686151590811790915591519182527f17307eab39ab6107e8899845ad3d59bd9653f200f220920489ca2b5937696c319101610f1f565b610a52828260405180602001604052806000815250611bef565b6118e0848484611604565b6118ec84848484611c22565b61097c5760405162461bcd60e51b81526004016106e590612a66565b60608160000361192f5750506040805180820190915260018152600360fc1b602082015290565b8160005b811561195957806119438161299b565b91506119529050600a83612ace565b9150611933565b60008167ffffffffffffffff811115611974576119746122a8565b6040519080825280601f01601f19166020018201604052801561199e576020820181803683370190505b5090505b84156115fc576119b3600183612ae2565b91506119c0600a86612af9565b6119cb906030612b0d565b60f81b8183815181106119e0576119e06127b0565b60200101906001600160f81b031916908160001a905350611a02600a86612ace565b94506119a2565b60006105b2825490565b6000818152600183016020526040812054611a5a575081546001818101845560008481526020808220909301849055845484825282860190935260409020919091556105b2565b5060006105b2565b60006001600160e01b03198216637965db0b60e01b14806105b257506105b282611d23565b611a918282610df8565b610a5257611a9e81611d73565b611aa9836020611d85565b604051602001611aba929190612b25565b60408051601f198184030181529082905262461bcd60e51b82526106e591600401612236565b6001600160a01b0382161580611afd57506001600160a01b038316155b6107865760405162461bcd60e51b815260206004820152601d60248201527f5468697320746f6b656e2063616e206f6e6c79206265206275726e656400000060448201526064016106e5565b611b538282610df8565b15610a525760008281526006602090815260408083206001600160a01b0385168085529252808320805460ff1916905551339285917ff6391f5c32d9c69d2a47ea670b442974b53935d1edc7fd64eb21e047a839171b9190a45050565b6000610df1836001600160a01b038416611f21565b6000826000018281548110611bdc57611bdc6127b0565b9060005260206000200154905092915050565b611bf98383612014565b611c066000848484611c22565b6107865760405162461bcd60e51b81526004016106e590612a66565b60006001600160a01b0384163b15611d1857604051630a85bd0160e11b81526001600160a01b0385169063150b7a0290611c66903390899088908890600401612b9a565b6020604051808303816000875af1925050508015611ca1575060408051601f3d908101601f19168201909252611c9e91810190612bd7565b60015b611cfe573d808015611ccf576040519150601f19603f3d011682016040523d82523d6000602084013e611cd4565b606091505b508051600003611cf65760405162461bcd60e51b81526004016106e590612a66565b805181602001fd5b6001600160e01b031916630a85bd0160e11b1490506115fc565b506001949350505050565b60006001600160e01b031982166380ac58cd60e01b1480611d5457506001600160e01b03198216635b5e139f60e01b145b806105b257506301ffc9a760e01b6001600160e01b03198316146105b2565b60606105b26001600160a01b03831660145b60606000611d94836002612bf4565b611d9f906002612b0d565b67ffffffffffffffff811115611db757611db76122a8565b6040519080825280601f01601f191660200182016040528015611de1576020820181803683370190505b509050600360fc1b81600081518110611dfc57611dfc6127b0565b60200101906001600160f81b031916908160001a905350600f60fb1b81600181518110611e2b57611e2b6127b0565b60200101906001600160f81b031916908160001a9053506000611e4f846002612bf4565b611e5a906001612b0d565b90505b6001811115611ed2576f181899199a1a9b1b9c1cb0b131b232b360811b85600f1660108110611e8e57611e8e6127b0565b1a60f81b828281518110611ea457611ea46127b0565b60200101906001600160f81b031916908160001a90535060049490941c93611ecb81612c13565b9050611e5d565b508315610df15760405162461bcd60e51b815260206004820181905260248201527f537472696e67733a20686578206c656e67746820696e73756666696369656e7460448201526064016106e5565b6000818152600183016020526040812054801561200a576000611f45600183612ae2565b8554909150600090611f5990600190612ae2565b9050818114611fbe576000866000018281548110611f7957611f796127b0565b9060005260206000200154905080876000018481548110611f9c57611f9c6127b0565b6000918252602080832090910192909255918252600188019052604090208390555b8554869080611fcf57611fcf612c2a565b6001900381819060005260206000200160009055905585600101600086815260200190815260200160002060009055600193505050506105b2565b60009150506105b2565b6001600160a01b03821661206a5760405162461bcd60e51b815260206004820181905260248201527f4552433732313a206d696e7420746f20746865207a65726f206164647265737360448201526064016106e5565b6000818152600260205260409020546001600160a01b0316156120cf5760405162461bcd60e51b815260206004820152601c60248201527f4552433732313a20746f6b656e20616c7265616479206d696e7465640000000060448201526064016106e5565b6120db60008383611ae0565b6000818152600260205260409020546001600160a01b0316156121405760405162461bcd60e51b815260206004820152601c60248201527f4552433732313a20746f6b656e20616c7265616479206d696e7465640000000060448201526064016106e5565b6001600160a01b038216600081815260036020908152604080832080546001019055848352600290915280822080546001600160a01b0319168417905551839291907fddf252ad1be2c89b69c2b068fc378daa952ba7f163c4a11628f55a4df523b3ef908290a45050565b6001600160e01b03198116811461146957600080fd5b6000602082840312156121d357600080fd5b8135610df1816121ab565b60005b838110156121f95781810151838201526020016121e1565b8381111561097c5750506000910152565b600081518084526122228160208601602086016121de565b601f01601f19169290920160200192915050565b602081526000610df1602083018461220a565b60006020828403121561225b57600080fd5b5035919050565b80356001600160a01b038116811461227957600080fd5b919050565b6000806040838503121561229157600080fd5b61229a83612262565b946020939093013593505050565b634e487b7160e01b600052604160045260246000fd5b604051601f8201601f1916810167ffffffffffffffff811182821017156122e7576122e76122a8565b604052919050565b600067ffffffffffffffff821115612309576123096122a8565b5060051b60200190565b6000602080838503121561232657600080fd5b823567ffffffffffffffff81111561233d57600080fd5b8301601f8101851361234e57600080fd5b803561236161235c826122ef565b6122be565b81815260059190911b8201830190838101908783111561238057600080fd5b928401925b8284101561239e57833582529284019290840190612385565b979650505050505050565b60008083601f8401126123bb57600080fd5b50813567ffffffffffffffff8111156123d357600080fd5b6020830191508360208285010111156123eb57600080fd5b9250929050565b6000806020838503121561240557600080fd5b823567ffffffffffffffff81111561241c57600080fd5b612428858286016123a9565b90969095509350505050565b60008060006060848603121561244957600080fd5b61245284612262565b925061246060208501612262565b9150604084013590509250925092565b6000806040838503121561248357600080fd5b8235915061249360208401612262565b90509250929050565b803561ffff8116811461227957600080fd5b6000602082840312156124c057600080fd5b610df18261249c565b6000602082840312156124db57600080fd5b610df182612262565b6000806000604084860312156124f957600080fd5b6125028461249c565b9250602084013567ffffffffffffffff81111561251e57600080fd5b61252a868287016123a9565b9497909650939450505050565b6000806040838503121561254a57600080fd5b50508035926020909101359150565b6000806040838503121561256c57600080fd5b61257583612262565b91506020830135801515811461258a57600080fd5b809150509250929050565b600080604083850312156125a857600080fd5b6125b183612262565b91506124936020840161249c565b600080600080608085870312156125d557600080fd5b6125de85612262565b935060206125ed818701612262565b935060408601359250606086013567ffffffffffffffff8082111561261157600080fd5b818801915088601f83011261262557600080fd5b813581811115612637576126376122a8565b612649601f8201601f191685016122be565b9150808252898482850101111561265f57600080fd5b808484018584013760008482840101525080935050505092959194509250565b6000806040838503121561269257600080fd5b823567ffffffffffffffff8111156126a957600080fd5b8301601f810185136126ba57600080fd5b803560206126ca61235c836122ef565b82815260059290921b830181019181810190888411156126e957600080fd5b938201935b8385101561270e576126ff85612262565b825293820193908201906126ee565b955061271d905086820161249c565b93505050509250929050565b6000806040838503121561273c57600080fd5b823591506124936020840161249c565b6000806040838503121561275f57600080fd5b61276883612262565b915061249360208401612262565b600181811c9082168061278a57607f821691505b6020821081036127aa57634e487b7160e01b600052602260045260246000fd5b50919050565b634e487b7160e01b600052603260045260246000fd5b601f82111561078657600081815260208120601f850160051c810160208610156127ed5750805b601f850160051c820191505b8181101561280c578281556001016127f9565b505050505050565b67ffffffffffffffff83111561282c5761282c6122a8565b6128408361283a8354612776565b836127c6565b6000601f841160018114612874576000851561285c5750838201355b600019600387901b1c1916600186901b1783556128ce565b600083815260209020601f19861690835b828110156128a55786850135825560209485019460019092019101612885565b50868210156128c25760001960f88860031b161c19848701351681555b505060018560011b0183555b5050505050565b6020808252602d908201527f4552433732313a2063616c6c6572206973206e6f7420746f6b656e206f776e6560408201526c1c881bdc88185c1c1c9bdd9959609a1b606082015260800190565b6020808252600f908201526e496e76616c6964205342207479706560881b604082015260600190565b61ffff8416815260406020820152816040820152818360608301376000818301606090810191909152601f909201601f1916010192915050565b634e487b7160e01b600052601160045260246000fd5b6000600182016129ad576129ad612985565b5060010190565b600061ffff8083168181036129cb576129cb612985565b6001019392505050565b600083516129e78184602088016121de565b8351908301906129fb8183602088016121de565b01949350505050565b60208082526025908201527f4552433732313a207472616e736665722066726f6d20696e636f72726563742060408201526437bbb732b960d91b606082015260800190565b600061ffff8083168185168083038211156129fb576129fb612985565b60208082526032908201527f4552433732313a207472616e7366657220746f206e6f6e20455243373231526560408201527131b2b4bb32b91034b6b83632b6b2b73a32b960711b606082015260800190565b634e487b7160e01b600052601260045260246000fd5b600082612add57612add612ab8565b500490565b600082821015612af457612af4612985565b500390565b600082612b0857612b08612ab8565b500690565b60008219821115612b2057612b20612985565b500190565b7f416363657373436f6e74726f6c3a206163636f756e7420000000000000000000815260008351612b5d8160178501602088016121de565b7001034b99036b4b9b9b4b733903937b6329607d1b6017918401918201528351612b8e8160288401602088016121de565b01602801949350505050565b6001600160a01b0385811682528416602082015260408101839052608060608201819052600090612bcd9083018461220a565b9695505050505050565b600060208284031215612be957600080fd5b8151610df1816121ab565b6000816000190483118215151615612c0e57612c0e612985565b500290565b600081612c2257612c22612985565b506000190190565b634e487b7160e01b600052603160045260246000fdfe663244bfd3de81cc055674c09ade24d4646b75863d5d9dd77d1544f2eb5acc26a2646970667358221220ad806fdb51e0dd566fab3293e96bf7c5b5e774eca00bf84fdf5505059377980364736f6c634300080f0033663244bfd3de81cc055674c09ade24d4646b75863d5d9dd77d1544f2eb5acc26a2646970667358221220fc622534267888c37830717622d2e30e2210757a58ec4c74c0a8e5bdf12dc7c664736f6c634300080f0033",
    "linkReferences": {}
  },
  "methodIdentifiers": {
    "deployToken(string,string,bytes)": "b5327009"
  },
  "id": 22
}